:020000040800F2
:10000000284C0020B9030008DB460008B343000871
:10001000D946000803200008DF5400080000000053
:10002000000000000000000000000000D9020008ED
:100030001D2000080000000035030008D14F000813
:10004000D3030008D3030008D3030008D303000838
:10005000D3030008D3030008D3030008D303000828
:10006000D3030008D3030008D3030008D303000818
:100070000520000811200008D3030008D30300085E
:10008000D3030008D3030008D3030008D3030008F8
:10009000D3030008D3030008D3030008D3030008E8
:1000A000D3030008D3030008D3030008D3030008D8
:1000B000D30300080000000000000000D303000884
:1000C000D3030008D3030008D303000885480008C1
:1000D000D3030008D3030008D3030008D3030008A8
:1000E000D3030008D3030008000000000000000054
:1000F0000000000000000000000000000000000000
:1001000000000000D303000800000000D303000833
:100110000000000000000000D30300087D5000082C
:10012000D3030008D3030008D3030008D303000857
:10013000D3030008000000000000000000000000E1
:10014000D3030008D3030008D30300080000000015
:10015000D3030008D3030008D3030008D303000827
:10016000D3030008D3030008D303000800000000F5
:10017000D3030008D30300080000000000000000C3
:10018000D3030008D3030008D303000800F002F8EB
:1001900000F092F80AA090E8000C82448344AAF18F
:1001A0000107DA4501D100F087F8AFF2090EBAE88D
:1001B0000F0013F0010F18BFFB1A43F0010318479B
:1001C000CC6E0000EC6E0000103A24BF78C878C1F5
:1001D000FAD8520724BF30C830C144BF04680C604D
:1001E000704700000023002400250026103A28BF95
:1001F00078C1FBD8520728BF30C148BF0B60704799
:100200006E2900F0E982702900F03784662906F033
:100210003986652906F03686672906F03386612916
:1002200006F0328603681B0A28BF41F08001692965
:1002300000F09682642900F09382752900F0908284
:100240006F2900F0C483782900F00384E92900F0C5
:100250005F83E42900F05C83F52900F05983EF29DE
:1002600000F0C183F82900F002840368DB0928BF8D
:1002700041F08001632901F00E81732901F013819F
:10028000E32901F01E81F32901F02381002070474A
:100290001FB506F0F2FD01F06DF904000020002109
:1002A00006F05EFD401C60600020002106F042FD6B
:1002B000E0601FBD10B510BD01F02FF91146FFF72A
:1002C000E7FF05F099FA01F00BFA03B4FFF7F2FF2C
:1002D00003BC01F053FA00002C4B1968086800F0C9
:1002E0005AB880F30988BFF36F8F4FF0000080F396
:1002F000118870470000000008480068006880F31B
:1003000008884FF0000080F3148862B661B6BFF32E
:100310004F8FBFF36F8F00DF00BF00BF08ED00E01D
:10032000DFF80C00016841F470010160704700BF04
:1003300088ED00E0EFF30980BFF36F8F134B1A686D
:100340001EF0100F08BF20ED108A20E9F04F10605A
:1003500009B44FF0500080F31188BFF34F8FBFF303
:100360006F8F05F07BFF4FF0000080F3118809BC10
:100370001968086800F014B81EF0100F08BF00F0EC
:1003800014B880F30988BFF36F8F704734000020E2
:10039000EFF30580704730C8B0E8C04FFFF7A1BF4A
:1003A00030C8B0E8C04FFFF7E7BFB0EC088AB0EC48
:1003B00008CAFFF7E6BF0000094880470948004720
:1003C000FEE7FEE7FEE7FEE7FEE7FEE7FEE7FEE705
:1003D000FEE7FEE704480549054A064B7047000062
:1003E0006D5000088D01000828460020284C002090
:1003F000284800202848002053EA020C00F06980B9
:100400002DE9F04B4FF00006002B1FBFB3FA83F528
:1004100003FA05F424FA05F65E4012BF1643B2FA59
:1004200082F502FA05F4C5F120051EBF22FA05FC8B
:1004300044EA0C04203556EA044C4FEA144418BF31
:10044000641C4FF000084FF00009904271EB030C60
:1004500039D3002919BFB1FA81F701FA07F6B0FACA
:1004600080F700FA07F6C7F120071EBF20FA07FC45
:1004700046EA0C062037B6FBF4FCA7EB0507103F55
:1004800007F01F0BCBF120060CFA0BFB2CFA06F63B
:1004900044BFB3460026202FA4BF5E464FF0000B9A
:1004A0005BEA060C08BF4FF0010B19EB0B09ABFB25
:1004B000027C48EB0608C01B06FB02CC0BFB03CCFE
:1004C00071EB0C01C1E70B46024641464846BDE8C8
:1004D000F08B13B54FF000004FF00001AFF3008038
:1004E000BDE81C40704700007CB51D4616460C0058
:1004F000009001D02044401E074B7B442A466946A9
:100500000190304600F081F905461CB10020694693
:1005100000F08EF928467CBD3D03000010B5431C59
:1005200002E010F8011B71B18107FAD14FF00132DE
:1005300002C88C1A8C4314EAC211F9D0C01A0A06F8
:1005400003D0C01E10BDC01A10BD0A0401D0801E09
:1005500010BD0902FCD0401E10BD032A40F23080BD
:1005600010F0030C00F0158011F8013BBCF1020FF4
:10057000624498BF11F801CB00F8013B38BF11F875
:10058000013BA2F1040298BF00F801CB38BF00F88C
:10059000013B11F0030300F02580083AC0F0088009
:1005A00051F8043B083A51F804CBA0E80810F5E7ED
:1005B000121D5CBF51F8043B40F8043BAFF30080D0
:1005C000D20724BF11F8013B11F801CB48BF11F845
:1005D000012B24BF00F8013B00F801CB48BF00F815
:1005E000012B704710B5203AC0F00B80B1E81850CD
:1005F000203AA0E81850B1E81850A0E81850BFF40D
:10060000F5AF5FEA027C24BFB1E81850A0E81850AB
:1006100044BF18C918C0BDE810405FEA827C24BFFF
:1006200051F8043B40F8043B08BF7047D20728BF8D
:1006300031F8023B48BF11F8012B28BF20F8023BDC
:1006400048BF00F8012B70474FF0000200B5134679
:1006500094469646203922BFA0E80C50A0E80C50E2
:10066000B1F12001BFF4F7AF090728BFA0E80C5093
:1006700048BF0CC05DF804EB890028BF40F8042B8C
:1006800008BF704748BF20F8022B11F0804F18BFF9
:1006900000F8012B704770477047704770B50446EB
:1006A00085690068C10601D5302600E02026C00714
:1006B00007D070BDD4E9012130469047206A401C24
:1006C00020626D1EF6D570BD70B504468569007850
:1006D000C00707D170BDD4E9012120209047206ACE
:1006E000401C20626D1EF6D570BD09684A0501D513
:1006F00040B27047C905FCD500B2704709684A0589
:1007000001D5C0B27047C905FCD580B2704770B53D
:100710000C460546012A05D02878800600D5EA69EE
:10072000002302E0012305E05B1C934202D2E05C5F
:100730000028F9D1A869E618C01AA861286A1844E7
:1007400028622846FFF7AAFF04E0D5E9012114F842
:10075000010B9047B442F8D32846FFF7B5FF70BDB0
:100760002DE9F0410646002410687529314616A58A
:1007700010D0FFF7BAFF002802DA404213A507E0C5
:1007800031688A0701D512A502E0490704D511A5F1
:10079000012401E0FFF7B2FF00210A2206F124073D
:1007A00009E0B0FBF2FCB0FBF2F302FB1C003030BE
:1007B00078541846491C0028F3D123462A4630466F
:1007C000BDE8F04100F070BA000000002D0000000C
:1007D0002B0000002000000011680268006A530529
:1007E00001D508700AE0D30501D5088006E013069C
:1007F00003D5C217C1E9000200E00860012070477C
:1008000001694A1C02610878704700B58FB0CDE9D4
:1008100001310021059105497944CDE903101146C4
:10082000684600F035F90FB000BD0000E5FFFFFF9E
:100830000A6802F8010B0A607047D1E900239A4266
:1008400002D2531C0B601070704700002DE9FF5F4F
:1008500015468A460446DFF8AC80F8440027D8E9FC
:1008600000103E46CDE9001010E03AF816106A4636
:1008700002A800F032FE411C07D02178890603D57A
:10088000E269391891420DD80744761C2078800619
:1008900002D5E069B84205DDAE42E6DB3AF8160063
:1008A0000028E2D1A069C01BA0612046FFF7F6FE38
:1008B000D8E90010CDE90010002017E03AF8181030
:1008C0006A4602A800F009FEB0F1FF3F81460BD056
:1008D00000250DF1080B05E0D4E901211BF8050006
:1008E00090476D1C4D45F7D308F10100B04280469A
:1008F000E4DB206A384420622046FFF7E5FE00F082
:1009000003B80000CA6600003FBCBDE8C09F0000FD
:100910002DE9F0418046D21D22F007020025D2E9E0
:100920000002F52915A614D0011E72F1000106DAA5
:100930000023D0EB030063EB020211A608E0D8F815
:1009400000108B0701D50FA602E0490701D50EA6BE
:1009500001251146002408F1240704E000F05FF9A6
:1009600030323A55641C50EA0102F7D12B46324628
:1009700021464046BDE8F04100F096B90000000075
:100980002D0000002B0000002000000030B40021EA
:1009900000F1240408E002F00705D208303542EAED
:1009A0004372DB086554491C52EA0305F3D104681D
:1009B000002310A2250707D5A40600D421B1C469DD
:1009C00001230DA2641EC46130BC00F06DB910B5E6
:1009D000044621461068FFF791FE02462046BDE816
:1009E00010400023D2E7D21D22F00701D1E90023F5
:1009F000CCE700000000000030000000F0B40D461D
:100A00000188090502D5214C7C4402E01F4C7C443E
:100A10000E34002100F1240608E002F00F0712094D
:100A2000E75D42EA03721B097754491C52EA030747
:100A3000F3D102780023120704D5702D06D009B136
:100A4000022311342246F0BC00F02EB901231034E9
:100A5000F8E770B504460D4621461068FFF74EFED4
:100A6000024629462046BDE870400023C6E7D21D55
:100A700022F00703D3E90023C0E70368126843F0BC
:100A8000200303600823C3610023B7E72465000047
:100A90002DE9F05F894604464FF0000ADFF874B193
:100AA000FB44C0F820A02046E1688847002874D0A5
:100AB000252806D0D4E901219047206A401C2062F5
:100AC000F1E700265F462046E16888472028054672
:100AD00007DB312D05D2781910F8200C08B1064338
:100AE000F1E7B00701D526F00406C4F81CA00027E2
:100AF000C4F818A02A2D09D0284604F06FFE38B398
:100B000004EB8708303DC8F8185019E059F8041B69
:100B1000204604EB87029161E1688847012F054672
:100B200018D1E069002820DA26F020061DE0D8F868
:100B3000180000EB800005EB40003038C8F81800C2
:100B40002046E1688847054604F048FE0028EED1BB
:100B5000012F0AD02E2D08D12046E16888477F1C3E
:100B60000546022F46F02006C4DBA069002803DA00
:100B7000404246F00106A061F00701D026F01006C1
:100B80006C2D0BD0682D09D04C2D39D06A2D35D065
:100B9000742D35D07A2D33D016E038E0E1682F4639
:100BA00020468847B842054609D16C2F26D04FF41D
:100BB0008060E168064320468847054604E06C2FC4
:100BC0001AD04FF4807006430DB3A5F141001928E7
:100BD00002D8203546F400664A462946204626605B
:100BE0004E46FFF70DFB80B101280BD0F61D26F015
:100BF000070000F1080956E74020E4E78020D8E725
:100C00000020D6E706F104094DE7284652E7206A9E
:100C100000F002B8B464000030BCBDE8C09F30B53D
:100C2000B0F10A024FEA900E71F100034EEA817EA4
:100C3000B0EB0E0061EB91014FEA101E4EEA017E0F
:100C400010EB0E0041EB11114FEA102E4EEA016E2F
:100C500010EB0E0041EB11214FEA104E4EEA014E0F
:100C600010EB0E0041EB1141401841F100014FEA39
:100C7000D00040EA41704FEAD10110EB80054FEA05
:100C8000810444EA907444EB01046D1944EB0404BC
:100C9000521BA3414FF0000348BF0A3200D530BDBC
:100CA000401C41F1000130BD2DE9F0470D46994649
:100CB0009246044600F124080168880604D5E069DC
:100CC00021F01001216000E00120A84201DD471B56
:100CD00000E00027A1697A1902EB0900081AA06157
:100CE0002078C00602D42046FFF7D8FC002608E092
:100CF000D4E901211AF806009047206A401C761CAE
:100D000020624E45F4DB2078C0060AD52046FFF766
:100D1000C5FC06E0D4E9012130209047206A401C40
:100D20002062381EA7F10107F4DC07E0D4E90121B5
:100D300018F805009047206A401C2062281EA5F183
:100D40000105F3DC2046FFF7BFFC2078000602D542
:100D50000220BDE8F0870120FBE770472DE9FF4F37
:100D60000C461E464FF0FF378BB0D2E90001DDF88C
:100D700060800A908A46C1F30A5505B93D460021B4
:100D800008464FF00000BAF1000F00F4400005DA09
:100D900000EB80004FF4400101EA50004FEA905907
:100DA000B9F1010F00DDB9460A9850EA4A000ED0A9
:100DB00044F61050A5F2FF3545432F14B8F1000F4B
:100DC0001ED07542291E1EDDC9F100021CE0B8F1DB
:100DD000010F4FF0000001D0302103E0F24305E0A5
:100DE0002154401CB042FBDB30460022002121543C
:100DF0000B99C1F80880C1E900200FB000F0BCB920
:100E0000BD1B6D1CDEE74A4600DA694206A800F009
:100E1000F5FB06AB93E8070003AB83E807005046F9
:100E20000A9900F0B2FC8DE80700A0F500501F38C9
:100E300000900398002D0ADD42F21F014A46084443
:100E4000002303A90390684600F01BFF09E0A0F50A
:100E500000504A461F38002303A90390684600F05B
:100E600025FF8DE807000004000C03D04FF0FF3091
:100E7000410800E01046B8F1000F03D000220092B4
:100E800015461EE0751E05D4FFF7C9FE30326255C7
:100E90006D1EF9D5B3460122084302D000227F1C03
:100EA00004E02078302801D100227F1E002A099713
:100EB00084D01DE0112D07DAFFF7B1FE3032625504
:100EC0006D1C50EA0102F5D1084302D00098C8B168
:100ED0000EE00021681E05E0235C625C635422542E
:100EE000401E491C8142F7DBAB46A81B401E0990FF
:100EF000002004F80B000B98099AC0F80880C0E99C
:100F0000002B7AE711264FF0000857E72DE9F04F44
:100F100088460446D21D22F0070191B0D1E90001B4
:100F2000CDE90A0104F032FC02460B98C00F01D053
:100F30002D2007E02068810701D52B2002E0202129
:100F400001EAC000032A099001D0072A05DB034605
:100F50004146204600F012FB0BE12078800601D5C7
:100F6000E06900E00620B8F1650F814606D0B8F1CF
:100F7000660F18D0B8F1670F70D131E00020B9F1D9
:100F8000110F009001DB112301E009F101030AAA0E
:100F900001A90CA8FFF7E2FEDDE90C70002609F1BB
:100FA0000105834647E001204B4600904FF0004783
:100FB0000AAA01A90CA8FFF7D1FEDDE90DB00C9932
:100FC0005D46002610B909F101000D18B9EB0500C6
:100FD00003D4C0F1FF3609F10105A5EB09002BE0B0
:100FE000B9F1010F01DA4FF001090020B9F1110F39
:100FF0000090484601DD112300E003460AAA01A93A
:101000000CA8FFF7ABFEDDE90C704D4600268346C9
:10101000207800070AD4AB4500DA5D4601A8012D0F
:1010200004DD411911F8011C302907D04F4502DABF
:1010300017F1040F04DA012082460FE06D1EEEE77F
:10104000002F02DCED1B3E4403E0781CA84200DDCB
:101050007D1CB81B00F1010A4FF000472078000703
:1010600003D4AA4501DB4FF0FF3A0021B7F1004F4E
:101070000DF143088DF8431024D002202B23002FBC
:1010800001DA7F422D230A21021EA0F1010000DCBB
:101090005FB197FBF1FC97FBF1F201FB1C7C17465B
:1010A0000CF1300C08F801CDEEE7A8F10100037057
:1010B0002188090501D5452100E06521A0F101083D
:1010C00000F8011C09980FA9A1EB0807FF1D00B14A
:1010D0000120411901EBEA70A1693844081A401E49
:1010E000A0612078C00602D42046FFF7D7FA0998FD
:1010F00028B1D4E901219047206A401C2062207861
:10110000C00622D52046FFF7C9FA1EE0002E04DBF8
:10111000B34502DD01A8805D00E03020D4E9012163
:101120009047206A401C2062761CAAF101005FEA09
:10113000000A0AD100F01EFAC0680168405CD4E9D8
:1011400001219047206A401C2062281EA5F101055C
:10115000DCDC07E0D4E9012118F8010B9047206A94
:10116000401C2062381EA7F10107F3DC2046FFF780
:10117000ABFA032011B041E630BCBDE8C08F0000DF
:101180002DE9F04F04460D46D21D22F0070089B02C
:10119000D0E900974846394604F0F8FA0246F80FBD
:1011A00001D02D2307E02068810701D52B2302E021
:1011B000202101EAC0038DF820300BB1012000E0AE
:1011C0000020032A824601D0072A04DB2946204654
:1011D00000F0D4F93FE12078800601D40D2500E02D
:1011E000E569C7F30A560D2D49DA00214FEA175B6E
:1011F00008464FF00000002F00F4400007DA00EB33
:1012000080004FF4400100EBD07001EA60008115CE
:10121000012901DD4FF0FF3100224FEA850CBCF1BE
:10122000180F06D31346ACF118004FF08052C2409D
:1012300003E04FF4801323FA0CF30CF10C0CBCF117
:10124000200F04D3ACF1200C09FA0CF001E007FAEE
:101250000CF000294FF0004801DD18B90FE00ED165
:1012600040450CD319EB02095F4121B9404502D139
:101270009F4329EA0209BBEB175F00D0761C208848
:10128000000502D57B48784402E07A487844193852
:1012900008AA302302F80A30037C0AF10101002E6B
:1012A0000AF1020A53546A4602DC4FF0300101E0B1
:1012B0004FF031014FF001088DF8001002D0A6F276
:1012C000FF3603E059EA470100D06B4E002D02DCE7
:1012D0002178090704D54FF002082E218DF801105E
:1012E000C44600210BE0C7F303433F01C35C491C24
:1012F0006D1E02F80830052908F1010801DA002DF9
:10130000F1DC00210CE000EB1973491C1B786D1E09
:10131000082902F808304FEA091908F1010801DA32
:10132000002DF0DC21688B0602D516E0A8F101083B
:10133000E04505DD02EB080313F8013C302BF5D046
:10134000B8F1000F09DD02EB080313F8013C2E2B66
:1013500003D1090701D4A8F10108002D05DD3E21C4
:1013600002F808106D1E08F10108407C002E02F8FA
:10137000080008F1010804DA2D20764202F808007E
:1013800002E02B2002F808000A214FF47A7086420E
:1013900008F101080BDB96FBF0F3303302F808305C
:1013A00096FBF0F308F1010800FB136601E0642EE0
:1013B0000CDB642096FBF0F3303302F8083096FB28
:1013C000F0F308F1010800FB136601E00A2E06DBCA
:1013D00096FBF1F0303002F8080008F1010896FBA6
:1013E000F1F001FB1060303002F80800A16908F14B
:1013F000010808EB050202EB0A00081AA061207838
:10140000C00602D42046FFF749F9216A08AE01EB75
:101410000A00206204E0D4E9012116F8010B90478C
:10142000BAF1010AF7D22078C00602D52046FFF7AC
:1014300035F96E4609E016F8010B3E280FD0D4E9C5
:1014400001219047206A401C2062B8F10108F2D2C5
:101450002046FFF739F909B0032000F00FB8206AE1
:101460002844206203E0D4E90121302090476D1E1A
:10147000EBD3F8E7F25C000002FCFFFF30BCBDE8F4
:10148000C08F10B5436913B1AFF3008001E0FFF7DF
:101490003EF9012010BD127800F124010A700022EB
:1014A0004A700122EDE711684FF0FF32E9E710B50D
:1014B000436913B1AFF3008001E0FFF7C7F90120E2
:1014C00010BD128800F1240182840022C28401220E
:1014D000EDE711684FF0FF32E9E770B516460C46AC
:1014E000054600F03FF8036893F80101012806D093
:1014F000FF2C0FD8185D68B101202C7070BDD3F897
:1015000007013246214603F2071303442846BDE88B
:10151000704018474FF0FF3070BD754600F0EAF894
:10152000AE4605006946534620F00700854618B0D0
:1015300020B5FEF74FFFBDE820404FF000064FF00A
:1015400000074FF000084FF0000B21F00701AC46F8
:10155000ACE8C009ACE8C009ACE8C009ACE8C00917
:101560008D46704710B500F005F8001D10BD00BF96
:10157000F157000000487047E44500202DE9F04194
:101580001F46044603260168072A01F4006004DBB5
:1015900008B116A505E016A503E008B115A500E001
:1015A00015A521F010002060A069C01EA0610FB138
:1015B000401EA0612046FFF771F84FB1D4E9012128
:1015C00038469047206A401C2062C01C206206E01A
:1015D000206AFAE7D4E9012115F8010B9047761E3D
:1015E000F8D22046FFF770F8BDE8F0814E414E007A
:1015F0006E616E00494E4600696E66002DE9F04747
:10160000814616468AB0354878440DC88DE80D00ED
:1016100032487844801C03AC0DC884E80D0041F6C4
:101620009B300844372190FBF1F290FBF1F5A5F1D6
:10163000800501FB12041B3C02D56442012000E03E
:101640000020DFF898A080460027FA44AAF1BE0ADD
:101650000EE0E0070AD03246684607EB4701012357
:101660000AEB810100F022FB8DE8070064107F1C6B
:10167000002CEED1194F7F44AE3F19E0E80715D09A
:1016800007EB04100DF1180A90E80E008AE80E002E
:10169000C068F04201D1981908903246012306A98A
:1016A00003A800F003FB03AB83E807006D10641C84
:1016B000002DE3D14FF0010332466946B8F1000F27
:1016C00003A802D000F0DDFA01E000F0EFFAC9E96A
:1016D0000001C9F808200AB0BDE8F087005A0000F0
:1016E00010B50446AFF300802046BDE81040FEF779
:1016F000ECBD000000487047C44500204FF0013C9D
:1017000050F8042B51F8043B9A4221D1A2EB0C0370
:10171000934313EACC1317D150F8042B51F8043B30
:101720009A4215D1A2EB0C03934313EACC130BD1CD
:1017300050F8042B51F8043B9A4209D1A2EB0C0358
:10174000934313EACC13DBD04FF00000704700BF87
:10175000D01A01BAB1FA81F101F0180122FA01F0B0
:10176000CB40C1F12001DBB2C0B2C01A2CFA01F3A8
:10177000D11A914311EAC311E6D1704701491820EB
:10178000ABBEFEE72600020070475FEA400C08BFD0
:1017900091F0000F4FEA8C234FEAC12243EA5151E6
:1017A0004FEA1C5018BF00F5F0404FEA300018BF58
:1017B00041F000415FEA6C5C00F02980BCF1FF3F22
:1017C00008BF40F080407047130C06BF12044FF072
:1017D000100C4FF0000C130E04BF12020CF1080C99
:1017E000130F04BF12010CF1040C930F04BF9200FD
:1017F0000CF1020CD30F04BF52000CF1010C114686
:101800004FF00002A0F11F00A0EB0C00704711F098
:10181000004F08BF704731F000413FF4D5AF0B0CCB
:1018200006BF09044FF0100C4FF0000C0B0E04BF64
:1018300009020CF1080C0B0F04BF09010CF1040C98
:101840008B0F04BF89000CF1020CCB0F04BF4900C1
:101850000CF1010CCCF12003A0EB0C0022FA03F3F5
:1018600002FA0CF241EA030100F10100704720F096
:101870007F4C80EA030023F07F47ACEB070303F5BE
:101880007C5300F0004003F1FF032DE980494FEA4B
:10189000154B09B44FEA144325EA0B4E24EA0348DA
:1018A0000FF2042606EB132749083E785FEA32025E
:1018B00003FB0667C7F5000707FB06F64FEA543738
:1018C0004FEAD64606F1020607FB066CCCF1005C37
:1018D0004FEA1C472CEA074C07FB06F40CFB06F505
:1018E00004EB15464FEA961634BF00204FF0004037
:1018F0004FEAD13706FB07FC4FEA1C4C0CFB0BF7F9
:10190000D21B03FB0CF761EB07010CFB0EF7B0EBEE
:10191000074072EB17420CFB08F734BFA2EB0742FB
:10192000B2EB074261EB17414FEA0C444FEA9107D3
:1019300006FB07FC4FEA1C4C0CFB0BF7B0EBC74057
:1019400072EB573203FB0CF734BFA2EBC742B2EB8A
:10195000C74261EB57310CFB0EF7B0EBC70072EBDF
:1019600057720CFB08F734BFA2EBC702B2EBC702F9
:1019700061EB5771039F4FEA816141EA921104EBD9
:10198000CC044FEAD1374FEA826206FB07FC42EAF9
:1019900090124FEA80604FEA1C4C0CFB0BF7D21BF5
:1019A00003FB0CF761EB07010CFB0EF7B0EB0740F4
:1019B00072EB17420CFB08F734BFA2EB0742B2EB05
:1019C000074261EB17414FEA8C554FEA910704EB50
:1019D0009C2406FB07FC4FEA1C4C0CFB0BF7B0EBFE
:1019E000C74072EB573203FB0CF734BFA2EBC74280
:1019F000B2EBC74261EB57310CFB0EF7B0EBC700FF
:101A000072EB57720CFB08F734BFA2EBC702B2EBC4
:101A1000C70261EB577115EB4C254FEA816141EA32
:101A200092114FEA82624FEAD13742EA901206FBE6
:101A300007FC44F100044FEA80604FEA1C4C0CFBA9
:101A40000BF7D21B03FB0CF761EB07010CFB0EF746
:101A5000B0EB074072EB17420CFB08F734BFA2EB68
:101A60000742B2EB074261EB174115EB1C154FEA39
:101A7000813141EA92414FEA823242EA90424FEA92
:101A800080304FEA0C7644F1000448EA03434EEA02
:101A90000B484FF0000EB2EB080C71EB030724BFAC
:101AA000624639464EEB0E0E4FF0000B00185241C5
:101AB00049414BEB0B0BB2EB080C71EB03077BF1CD
:101AC000000B24BF624639464EEB0E0E4FF0000B62
:101AD0000018524149414BEB0B0BB2EB080C71EB78
:101AE00003077BF1000B24BF624639464EEB0E0E16
:101AF00051EA020718BF46F0010616EB0E7655F1C3
:101B0000000254F1000103D5BDE88901BDE8008859
:101B1000BDE88901BDE80048B619524141EB010119
:101B2000A3F10103704780807F7E7D7C7B7A79788A
:101B3000777676757473727171706F6E6E6D6C6C92
:101B40006B6A6A6968686766666564646363626134
:101B50006160605F5F5E5E5D5D5C5C5B5B5A5A59B5
:101B60005958585757565655555554545353525221
:101B70005251515050504F4F4F4E4E4D4D4D4C4C79
:101B80004C4B4B4B4A4A4A494949484848474747C2
:101B900047464646454545444444444343434342FF
:101BA000424242414141002B9C4630D477002BD029
:101BB0001CB54FEA370703B44FF010004FF0100187
:101BC000BAF1000F06D0BCF1000FDCBF40F00800F6
:101BD00040F008014FF000000FBCBDE810400BF1D1
:101BE000010BBBF1010F08BF5FEA170722BF12F11B
:101BF000010211F101014FF0004143F1000300F037
:101C0000004043EA00007047F9D35708D0E746EA9E
:101C1000064613F1400F4FEA16461FDD13F1200F61
:101C2000DFBF16430A46002120335B42BED0C3F11A
:101C3000200746EA064602FA07F74FEA164646EA42
:101C40000706C3F1200722FA03F201FA07F721FA87
:101C500003F14FF0000342EA0702A7E746EA020653
:101C600046EA06464FEA164646EA0106BCBF46EA81
:101C70000646360C4FF000034FF000024FF0000113
:101C800094E72DE9804C9A46934670B491E8380069
:101C900007C831EA400C48BF34EA430C03D5FFF7CC
:101CA000E6FDFFF780FFF0BCBDE8008C2DE9804C1D
:101CB0009A46934670B491E8380007C810F0804FF8
:101CC00008BF13F0804F03D100F005F8FFF76BFF5A
:101CD000F0BCBDE8008C20F07F4780EA030023F0D1
:101CE0007F4C07EB0C03A3F57C5300F00040A3F1FD
:101CF000FE0392F0000F00F0B38095F0000F00F0AB
:101D000077802DE901494FEA11404FEA144621EA54
:101D1000004800FB06FC24EA064708FB06F607FB22
:101D200008F800FB07F718EB06484CEB164C4FEA97
:101D3000124B18EB07484FEA15464CEB174022EAC6
:101D40000B4E0BFB06FC25EA06470EFB06F607FBCF
:101D50000EFE0BFB07F71EEB064E4CEB164C4FF03E
:101D600000061EEB074E4CEB174B18EB0B0840F12F
:101D7000000018EB0E0B58EB000840F100008F1A22
:101D80004FF000013CBFC943661B14BFB5EB040C08
:101D900000213CBFC943F61B4FEA17444EEA8E0EA2
:101DA00027EA04454FEA1C4704FB07622CEA074C6C
:101DB00005FB07F70CFB05F604FB0CFC16EB0746CE
:101DC00042EB174216EB0C4642EB1C421BEB06069D
:101DD00058EB0202414146EA9E0601D5BDE8018961
:101DE000B619524141EB0101A3F10103BDE801899C
:101DF0004FEA14454FEA114724EA054621EA074C09
:101E000005FB07F406FB07F70CFB06F105FB0CFCD2
:101E100011EB074144EB17444FEA124711EB0C4119
:101E200044EB1C4422EA074C05FB07F206FB07F7CC
:101E30000CFB06F605FB0CFC16EB074642EB1742C3
:101E400016EB0C4642EB1C456A1854F1000148BFE2
:101E50007047B619524141EB0101A3F101037047EC
:101E600095F0000F37D04FEA11424FEA144721EAAC
:101E7000024624EA074C02FB07F106FB07F70CFBBE
:101E800006F402FB0CFC14EB074441EB17414FEA4C
:101E9000154714EB0C4441EB1C4125EA074C02FBAF
:101EA00007F506FB07F70CFB06F602FB0CFC16EB2E
:101EB000074645EB174516EB0C4645EB1C4212193D
:101EC00051F1000148BF7047B619524141EB010181
:101ED000A3F1010370474FEA14454FEA114724EA82
:101EE000054621EA074C05FB07F106FB07F70CFB4B
:101EF00006F24FF0000605FB0CFC12EB074241EB2B
:101F0000174112EB0C4251EB1C4148BF704792182D
:101F100041EB0101A3F10103704710B5040009D0A2
:101F200041B10120216004F041FA606020B100203D
:101F3000A06010BD022010BD502080F31188BFF3B7
:101F40004F8FBFF36F8FFEE730B129B101600021E1
:101F500081604160084670470220704710B5040058
:101F60000DD0206858B14FF47A725143B1FBF2F1B1
:101F7000406804F0D7FB012803D0012010BD0220E7
:101F800010BD2068846004F01FFD6060002010BD5B
:101F900010B540B1006830B129B122B1006801F03C
:101FA000FBFC002800D0022010BD10B540B1006835
:101FB00030B129B122B1006801F0B5FD002800D090
:101FC000022010BD38B5049C50B1006840B139B151
:101FD00032B12BB10094006801F06CFE002800D0F3
:101FE000022038BD00280BD00168002908D000224B
:101FF0008A604260006813461146406804F046BAA1
:102000007047FEE7014800F076BB0000380300206F
:10201000014800F070BB0000F002002070477047DC
:102020000FB44FF4807110B5C0B043AB6846429A0C
:10203000FEF75AFA041E0BDD04F0CCFC02280BD18B
:102040000948006840B100231A46694604F01EFAA8
:1020500040B010BC5DF814FBA2B26423694603488B
:1020600002F04CF9F4E70000300000206C02002080
:1020700072B6FEE72DE9F84F00270446009790F866
:102080005000DFF8B0930D46B846012811D0012664
:1020900084F85060206802F097F960B1606D40F0FC
:1020A000200060655FF0010784F85080384600F03A
:1020B000D7B90220FBE769680C20052912D802294C
:1020C00007D0032907D0042907D0052907D0062106
:1020D00007E0686006E0122103E0182101E04FF4F8
:1020E00080716960D5E90021236800EA91101844E5
:1020F000036B01F01F014FF01F0C0CFA01FCC2F33F
:10210000846223EA0C038A4013430363206802F0CD
:102110005BF98246206802F053F95AEA00001DD1AB
:10212000AA682968206802F053F920686969C268C2
:10213000C2F3C102520091402A69042A0FD000EB79
:1021400082002B68026EDFF8F0C203F0F84302EA67
:102150000C020B431A4342F00041016672E0002179
:1021600002F028F9400320684FF0000172D002F01D
:1021700021F990FAA0F0B0FA80F1286842036ED0FD
:1021800090FAA0F0B0FA80F0814204D1002211460A
:10219000206802F02CF90121206802F00BF94003BD
:1021A00020684FF001015DD002F004F990FAA0F030
:1021B000B0FA80F12868420359D090FAA0F0B0FA42
:1021C00080F0814204D100220121206802F00FF941
:1021D0000221206802F0EEF8400320684FF002016F
:1021E00048D002F0E7F890FAA0F0B0FA80F1286841
:1021F000420344D090FAA0F0B0FA80F0814204D1BA
:1022000000220221206802F0F2F80321206802F087
:10221000D1F8400320684FF0030133D002F0CAF830
:1022200090FAA0F0B0FA80F1286842032FD090FA1B
:10223000A0F0B0FA80F0814204D10022032120688E
:1022400002F0D5F82068816811F0010F22D0ACE0CF
:1022500000E004E002F0AEF8C0F384618DE7C0F363
:10226000846091E702F0A6F8C0F38461A2E7C0F3AE
:102270008460A6E702F09EF8C0F38461B7E7C0F37C
:102280008460BBE702F096F8C0F38461CCE7C0F34A
:102290008460D0E72A7B296850F8B03FC1F3120C64
:1022A00023EA0C0302F0180C644A22FA0CF20A40EA
:1022B00013430360E968494577D1286841031CD07E
:1022C00090FAA0F1B1FA81F1491C01F01F0109292E
:1022D0004FEA403132D8002912D000BF90FAA0F165
:1022E000B1FA81F101F1010101F01F0106FA01F6D5
:1022F00009D100BFC0F3846109E0C0F38461E3E762
:10230000C0F38461EEE790FAA0F1B1FA81F101F136
:10231000010101F01F0146EA816102D1C0F384602E
:1023200003E090FAA0F0B0FA80F000F1010000F0B4
:102330001F0000EB400041EA005132E000290ED0BE
:1023400090FAA0F1B1FA81F101F1010101F01F0150
:1023500006FA01F606D100BFC0F3846106E0C0F3BF
:102360008461F1E790FAA0F1B1FA81F101F1010184
:1023700001F01F0146EA816102D1C0F3846003E0ED
:1023800090FAA0F0B0FA80F000F1010000F01F0018
:102390002B4A00EB400002EB005041EA000141F003
:1023A0000071AA68206802F013F826482A680242E1
:1023B0003FF47AAE24488168244D254B01F0E0714A
:1023C000AA421BD10D0219D422689A427FF46CAE46
:1023D000826841F4000122F0E0720A4382601D48E5
:1023E0001D490068B0FBF1F0401C00EB400080008C
:1023F00000E0401E00900028FBD155E6174DAA4290
:1024000007D1CD0105D422689A42F6D141F08071FE
:102410000AE06FF00045EA42EFD14A02EDD42268AB
:102420009A42EAD141F48001826822F0E0720A43C4
:10243000826039E600007F4000F0FF03FFFF0700E5
:10244000000020FE0000088000030450000052C776
:102450000000045010000020400D0300000084CB59
:1024600018BCBDE8E08F0000F8B54FF0000504008F
:102470002E46009502D0606D10B107E00120F8BD36
:10248000204600F0C9F8A66584F85060206881688D
:10249000C1F3407119B18168574A114081602068C9
:1024A0008168C1F3007189B98168544A114041F0D3
:1024B00080518160524853490068B0FBF1F0400000
:1024C000801C00E0401E00900028FBD1206881683D
:1024D000C1F3007141B9616D41F010016165A16DF9
:1024E00041F00101A165012501F06EFF616DC90692
:1024F00000D430B1606D40F01000606501252846C1
:10250000F8BD606D20F4807040F0020060652068C6
:10251000806810F0010F0BD13B48806810F0010F6C
:1025200006D13A486168826822F47C120A438260CC
:10253000E168606B627E0843A16841EA423108436A
:1025400094F8201040EA0140012904D1A18C304ABE
:1025500002EB41410843A16A29B101F47071E26ABA
:10256000014342EA01002168CA682A4B1A4002432B
:10257000CA60206801F028FF0646206801F020FFAD
:10258000304315D1207E94F83010800340EA41009A
:102590002168CA6844F202039A430243CA6094F86D
:1025A000380001280CD02068016921F00101016187
:1025B000206901282068016B21F00F0111D013E080
:1025C000D4E90F010843D4E91112114308432168EB
:1025D0000A6940F2FC739A43104340F0010008611D
:1025E000E6E7E269521E11430163606D20F00200CC
:1025F00040F00100606582E7C0FFFF5FC0FFFF7F22
:1026000010000020400D030000000450000304509F
:102610000000FEFF07C0F0FF10B59EB00446142175
:1026200017A8FEF711F85C216846FEF70DF81C4963
:102630002068884232D14FF480400090800314908B
:10264000032001900120029008200390072002241B
:10265000CDE904048801CDE90640684600F0F8FAA7
:1026600008B1FFF705FD0F48C16C41F40051C1648A
:10267000C16C01F400511C91C16C41F00101C164B5
:10268000C06C17A900F001001C900B20CDE9174089
:10269000002019904FF0904000F0EAF81EB010BDF5
:1026A000000004500010024010B590F825100024DE
:1026B000022903D00421C16301241AE001680A68D9
:1026C00022F00E020A6001680A6822F001020A6024
:1026D00090F84410036C01F01C02012101FA02F28F
:1026E0005A6080F82510002180F82410816B01B118
:1026F0008847204610BDF0B4016C0C6801680D6875
:1027000090F8442002F01C06042202FA06F3234249
:1027100011D06B070FD50B689B0603D40B6823F011
:1027200004030B6090F8441001F01C018A40016C16
:102730004A60016B1DE0022303FA06F727424FF0BF
:10274000000C4FF0010218D0AF0716D50C68A40694
:1027500005D40C6824F00A040C6080F8252090F859
:10276000441001F01C018B40016C4B6080F824C0C8
:10277000C16A00291AD0F0BC08470823B34023429D
:1027800014D02B0712D50B6823F00E030B6090F8C2
:102790004410036C01F01C0102FA01F15960C2639C
:1027A00080F8252080F824C0416BE2E7F0BC704738
:1027B00070B568B12B4C036814212B4AA34209D28F
:1027C0002A4C1C44B4FBF1F18900C0E910210BE054
:1027D000012070BD234C64421C44B4FBF1F189001C
:1027E0004164204908390164022180F825101C68E1
:1027F00047F6F0718C43D0E902152943D0E904561D
:102800003543294385692943C5692943056A294315
:10281000214319608168B1F5804F19D0036C0F21F5
:10282000934202D152F8A83F02E00E4AA032136848
:1028300090F8444004F01C04A1408B43136090F8CE
:102840004430416803F01C03994013681943116038
:102850000021C163012280F8252080F82410084659
:1028600070BD00000804024000000240F8FFFDBFF8
:102870002DE9F04FDFF8AC9100230325A9F1040BFB
:1028800085B04FF0010C0F2709F1040AABF1040EDB
:10289000BFE000BF0CFA03F6324075D00C7904F0AB
:1028A0000304012C01D0022C1BD1846800945C002D
:1028B00005FA04F80494009C24EA08040094D1F872
:1028C0000C80049C08FA04F8009C48EA0408C0F84C
:1028D00008804468B4430E79C6F300169E40264330
:1028E00046600C79E443A4070AD0C4684FEA430861
:1028F00005FA08F6B4438E6806FA08F62643C66061
:102900000C7904F00304022C10D1DC0800EB8404E1
:102910000294246A5E074FEAD66807FA08F6B443C1
:102920000E6906FA08F62643029C266204684FEAFE
:10293000430805FA08F6B4430E7906F0030606FAD2
:1029400008F6264306604C6814F4403F60D0364CCD
:10295000266E46F001062666246E23F0030604F078
:1029600001040094314C34440294A4689E074FEA59
:10297000167807FA08F6B443B0F1904F05D02C4E04
:10298000B04204D1012612E042E000260FE0294EB9
:10299000B04201D102260AE0274EB04201D10326FF
:1029A00005E0264EB04201D1042600E0072606FAD3
:1029B00008F62643029CA660D9F800604C46D1F880
:1029C000048096435FEAC82800D516432660DAF8EB
:1029D00000405646D1F8048094435FEA882800D529
:1029E00014433460DBF800405E46D1F80480944321
:1029F0005FEA883800D514433460DEF8004076463C
:102A0000D1F8048094435FEAC83800D51443346099
:102A10005B1C0A6832FA03F47FF43CAF05B000F0A7
:102A20000FB80000080401400010024000000140FF
:102A30000004004800080048000C0048001000484E
:102A400030BCBDE8C08F0AB18161704781627047B8
:102A50000148806870470000040000200248816837
:102A600002781144816070470400002010B50024F2
:102A7000032000F09FF80F2000F008F808B10124AF
:102A800001E000F04FF8204610BD000030B50546CB
:102A90001F4887B0816D41F020018165806D06A9D6
:102AA00000F02000009001A800F0D2FA0498B0B124
:102AB00000F0EEFA40001749174AB0FBF1F1174851
:102AC000491E0260416040F2E7320021C0E9032163
:102AD0008160816101F025FA040003D015E000F067
:102AE000D7FAE8E70D4801F04FFA04000DD137207E
:102AF00000F032F8102D07D200222946372000F0CE
:102B000039F80748056000E0012407B0204630BDD1
:102B10000010024040420F0000140040D405002085
:102B2000080000200B4882B0016E41F001010166EF
:102B3000016E01F001010091816D41F080518165CC
:102B4000806D002200F0805000900F21901E02B096
:102B500000F010B800100240002809DB00F01F024E
:102B6000012191404009800000F1E020C0F80011EF
:102B700070470000F0B40E4B1B680C46C3F30223F1
:102B8000C3F10705042D00D90425191D072901D219
:102B9000002300E0DB1E012606FA05F1491E214054
:102BA00099409E40761E16403143F0BC02F006BEAE
:102BB0000CED00E0064900F0070208684FF6FF033D
:102BC000184040EA0220034A1043086070470000A2
:102BD0000CED00E00000FA051649B0F5007F08682A
:102BE000C0F3412009D0022805D0086820F4C06055
:102BF00040F480600860002070470128FBD008681E
:102C000020F4C06040F4007008600B483222006875
:102C100050430A4AB0FBF2F0401C00E0401E4A69F3
:102C2000520501D50028F9D148694005E3D50320B4
:102C300070470000007000401000002040420F006C
:102C40000248006800F4C060704700000070004057
:102C50002DE9F84F044600270088A84D3E460005A0
:102C600015D5606C60B1B0F5000F04D0B0F5400F21
:102C70002BD001270AE0E86840F48030E86024E0C7
:102C80000021201D01F02AFD07001ED03E462068CD
:102C900080033AD5A86D4FF00008C00009D4A86D94
:102CA00040F08050A865A86D4FF0010800F08050FA
:102CB0000090DFF84CA2DAF8001041F48071CAF8F5
:102CC0000010FFF7C5FE814610E0D5F88800616C62
:102CD00020F440000843C5F88800D8E7FFF7B8FEA5
:102CE000A0EB0900022801D9032705E0DAF800006B
:102CF000C005F3D5002F7DD04FEA0706B8F1000FCD
:102D000003D0A86D20F08050A8652078C00707D0B8
:102D1000D5F88800216A20F003000843C5F8880030
:102D20002078800707D5D5F88800616A20F00C006C
:102D30000843C5F888002078400707D5D5F88800F3
:102D4000A16A20F030000843C5F88800207880068A
:102D500007D5D5F88800E16A20F440600843C5F83B
:102D600088002088800507D5D5F88800E16B20F41D
:102D700040200843C5F888002088400507D5D5F8CD
:102D80008800216C20F440100843C5F888002078A2
:102D9000400607D5D5F88800216B20F44050084341
:102DA000C5F888002078000607D5D5F88800616B43
:102DB00020F440400843C5F888002088C00507D5A6
:102DC000D5F88800A16B20F440300843C5F888008E
:102DD00020684FF0006700034FF0806850D5D5F8A9
:102DE0008800A16C20F040600843C5F88800A06C02
:102DF000B84200E005E03BD1E86840F48010E860AC
:102E00003EE0D5F8900010F4407014D0A16D8142DE
:102E100011D0D5F89000D5F8901020F4407041F40E
:102E20008031C5F89010D5F8901021F48031C5F8A4
:102E30009010C5F89000C00711D0FFF709FE0746B3
:102E400041F2883907E000BFFFF702FEC11B494588
:102E500001D9032652E7D5F890008007F4D5D5F8BC
:102E60009000A16D20F440700843C5F8900045E73C
:102E7000404505D10121201D01F030FC00B106467E
:102E80002068400317D5D5F88800E16C20F0406039
:102E90000843C5F88800E06CB84204D1E86840F403
:102EA0008010E86007E0404505D10121201D01F0B8
:102EB00015FC00B106462088400411D5D5F88800DD
:102EC000216D20F040500843C5F88800206DB0F116
:102ED000805F05D10221201D01F000FC00B10646F3
:102EE0002088000406D555F8880F616D20F08040D9
:102EF00008432860304600F005B80000001002408A
:102F00000070004018BCBDE8E08F00002DE9F047DC
:102F10000F4605006BD0494E306800F00700B842FC
:102F200009D2306820F0070038433060306800F084
:102F30000700B8425BD12878414C80070AD5A868C1
:102F4000A16801F0F001884204D9A16821F0F001E4
:102F50000143A1602878C0072CD06868032811D0ED
:102F6000022812D0216898B1490500293FDAA168EA
:102F700021F003010143A160FFF76AFD804641F2A1
:102F8000883910E021688901EFE721688903ECE7BF
:102F90008907EAE7FFF75CFDA0EB0801494502D984
:102FA0000320BDE8F087A068696800F00C00B0EB72
:102FB000810FEFD1287880070AD5A868A16801F0B1
:102FC000F001884204D2A16821F0F0010143A16020
:102FD000306800F00700B8420BD9306820F00700D5
:102FE00038433060306800F00700B84201D001205B
:102FF000D7E72878400705D5A068E96820F4E060A5
:103000000843A0602878000706D5A068296920F445
:10301000605040EAC100A06000F05EF8A168094A73
:10302000C1F30311515C01F01F01C840064908605B
:1030300006480068BDE8F047FFF728BD00200240C1
:1030400000100240A86E00081000002008000020B8
:103050000F2202600C4A936803F0030343609368F5
:1030600003F0F0038360936803F4E063C360926845
:103070004FF4E06303EAD20202610448006800F002
:103080000700086070470000001002400020024066
:103090000548064900688968054AC1F30221515C68
:1030A00001F01F01C84070471000002000100240CE
:1030B000E86E00080548064900688968054AC1F3BA
:1030C000C221515C01F01F01C84070471000002070
:1030D00000100240E86E000870B52549002318462C
:1030E0008A68CC6812F00C0204F00306214C4FEA07
:1030F000640509D00C2A05D0042A32D0082A00D150
:10310000284670BD012E10D10B681B0704D4D1F8DE
:103110009430C3F3032302E00B68C3F30313164E8A
:1031200056F82330DAB10C2AEBD1C86800F003005E
:10313000022818D0032818D01846CA68CB68C2F3F2
:103140000212C3F306234343521CB3FBF2F2C868D6
:10315000C0F34160401C4000B2FBF0F070BD184667
:1031600070BD204670BD2046E7E72846E5E7000031
:10317000001002400024F400B86E00082DE9F84366
:1031800004006FD0FA4DA86800F00C06E86800F063
:1031900003072078C00664D576B10C2E01D1012F2B
:1031A0000AD0A069002828687AD040F00100286081
:1031B000FFF74EFC80465DE02868800702D5A069D5
:1031C0000028DED0216A2868000703D5286800F0AF
:1031D000F00004E0D5F89400F02202EA10108142D9
:1031E00016D9084601F010FB00283BD1286840F0B2
:1031F000080028602868216A20F0F0000843286051
:103200006868E16920F47F4040EA0120686016E0C8
:10321000286840F0080028602868216A20F0F00043
:10322000084328606868E16920F47F4040EA012093
:10323000686026B9206A01F0E7FA0028D5D1FFF7C7
:103240004BFFA968CB4AC1F30311515C01F01F0188
:10325000C840C9490860C9480068FFF717FC002842
:103260007ED12EE0CAE000BFFFF7F2FBA0EB080022
:10327000022876D828688007F6D5286840F008002C
:1032800028602868216A20F0F000084328606868F8
:10329000E16920F47F4040EA0120686011E0FFE727
:1032A00020F001002860FFF7D3FB804606E000BF56
:1032B000FFF7CEFBA0EB08000228DAD828688007C9
:1032C000F6D42078C00740D0082E18D00C2E01D19B
:1032D000032F14D06068B0F5803F17D0B0F5A02F51
:1032E000286817D020F480302860286820F48020D7
:1032F00028606068E0B1FFF7ABFB804614E0286807
:10330000800322D56068002878D01EE0286840F449
:103310008030EDE740F480202860F7E7FFF798FB66
:10332000A0EB08006428A4D828688003F6D50CE038
:10333000FFF78EFB804605E0FFF78AFBA0EB080055
:10334000642896D828688003F6D4207880073BD577
:10335000042E11D00C2E01D1022F0DD0E06801E017
:10336000AAE1FFE0002828681ED040F480702860A1
:10337000FFF76EFB07460CE0286840050CD5E068B7
:103380000028C1D008E000BFFFF762FBC01B022885
:1033900093D828684005F7D56868217C20F0F8505C
:1033A00040EA016068600FE020F480702860FFF759
:1033B0004FFB074605E000BFFFF74AFBC01B022892
:1033C000B1D828684005F7D42078000729D560696E
:1033D0000028D5F8940012D040F00100C5F8940000
:1033E000FFF736FB074604E0FFF732FBC01B02285D
:1033F00099D8D5F894008007F6D512E02BE120F09B
:103400000100C5F89400FFF723FB074605E000BF65
:10341000FFF71EFBC01B022885D8D5F89400800753
:10342000F6D42078400766D5A86D0027C00008D4E0
:10343000A86D40F08050A865A86D012700F080506D
:1034400000904F480168C90512D40168814641F4D3
:1034500080710160FFF7FCFA804605E0FFF7F8FA9B
:10346000A0EB080002287DD8D9F80000C005F5D5EA
:10347000A068012816D00528D5F8900017D020F0B4
:103480000100C5F89000D5F8900020F0040000BFBE
:10349000C5F89000A06841F28839C0B1FFF7D8FAAA
:1034A00080460FE0D5F8900040F00100F0E740F0D2
:1034B0000400C5F89000F5E7FFF7CAFAA0EB080191
:1034C00049454FD8D5F890008007F5D50EE0FFF7B5
:1034D000BFFA804606E000BFFFF7BAFAA0EB08018A
:1034E00049453FD8D5F890008007F5D41FB1A86DA5
:1034F00020F08050A8652078800628D5606A0028D2
:10350000D5F8980012D040F00100C5F89800FFF7F8
:103510009FFA074605E000BFFFF79AFAC01B022892
:1035200020D8D5F898008007F6D510E020F00100EB
:10353000C5F89800FFF78CFA074604E0FFF788FA11
:10354000C01B02280ED8D5F898008007F6D4A06AD0
:10355000F0B3022816D00C2E7DD0286820F08070A1
:10356000286000E0A7E0FFF773FA0446A6E0000039
:1035700000100240A86E0008100000200800002083
:1035800000700040E868E26A00F00301914228D12F
:10359000216B00F0700209011039914221D1626B58
:1035A00000F4FE41B1EB022F1BD194F8382000F05B
:1035B0007841B1EBC26F14D1A18F00F4C002490869
:1035C0004905A1F5001191420BD194F8401000E09B
:1035D0006AE04908490600F0C060A1F1007181422B
:1035E0004BD00C2E73D02868400170D4286820F08E
:1035F00080702860FFF72CFA064604E0FFF728FAEF
:10360000801B022857D828688001F7D4F4E90B0101
:103610006FF00F0202EB01110843218A520449089E
:1036200002EB4151A26841EA02210843217D4FF09B
:103630007E42490802EB41610843217B40EAC160B8
:10364000E968244A11400843E860286840F0807027
:103650002860E86800E03AE040F08070E860FFF73A
:10366000F7F9044605E000BFFFF7F2F9001B022856
:1036700021D828688001F7D527E02868800124D464
:10368000286840F080702860E86840F08070E8604A
:10369000FFF7DEF9044604E0FFF7DAF9001B022821
:1036A00009D828688001F7D50FE000BFFFF7D0F9EF
:1036B000001B022802D90320BDE8F8832868800196
:1036C000F4D4E86804490840E8600020F4E70120E9
:1036D000F2E700008C809D01FCFFEEFE70470000C9
:1036E00038B5016804464A688868C043430606D571
:1036F000C30704D1D3435B0601D4E16C05E0830723
:1037000008D4D3431B0605D4216D01B02046BDE883
:1037100030400847830603D5430601D5C30551D47D
:10372000D3439B064ED443060AD494F85D30032B52
:1037300049D0236E43F004032366CB688B68009363
:10374000830609D4236E43F0010323668B6800933C
:103750000B6823F040030B60C00506D4206E40F0D8
:1037600008002066206880680090206E002829D01C
:103770002068416821F0E0014160012084F85D008B
:10378000900701D4D00722D02068416821F00301BE
:103790004160114DA06D40B18563A06DFEF784FFBF
:1037A00018B1206E40F040002066606D002809D0FE
:1037B0008563606DFEF778FF002803D0206E40F02F
:1037C0004000206638BDC8688868009038BD204633
:1037D000FFF784FF38BD00009148000870B5040071
:1037E00009D0606A002540B125616561A56294F841
:1037F0005D0040B10CE0012070BD6068B0F5827FD3
:10380000F4D0E561F2E784F85C50204600F056F809
:10381000022084F85D002068016821F04001016009
:10382000E1684FF4E062914201D9002001E04FF4D9
:103830008050B1F5706F02D0914200D0A562A1888E
:10384000228901F4827102F404421143227C02F0C5
:1038500002021143227D02F001021143228B02F485
:1038600000721143227F02F03802114394F82020A5
:1038700002F080021143228D02F4005211432268AB
:103880001160A169042202EA114194F8242000F495
:10389000805002F01002114394F8342002F0080224
:1038A0001143A28902F47062114301432068416010
:1038B0002566012084F85D00002070BD2DE9F041EF
:1038C00086B0064614216846FCF7BEFE2C493068D7
:1038D000884251D12B48016E41F480510166016E3E
:1038E00001F480510591C16C41F00201C164C06CCA
:1038F000002400F002000590382000900220CDE95D
:103900000104032003900520049069461E48FEF739
:10391000AFFF1F4D1D480127E5E8020710204FF0BB
:103920008008A5E811011A4845F81449AC61EC611A
:103930002C62FEF73DFF08B1FEF79AFB7565AE629B
:103940001248144D14382860C5E90174C5E90348CC
:103950006C61AC61EC6128462C62FEF729FF08B16E
:10396000FEF786FBB565002205212320AE62FFF736
:1039700001F92320FFF7F0F806B0BDE8F081000060
:1039800000300140001002400004004830000240B6
:10399000F0020020380300202DE9F84F044640686B
:1039A0000025984616460F464FF0040BB0F5827F6F
:1039B00001D1A06888B194F85C00012818D00120DA
:1039C00084F85C00FFF744F8814694F85D004FF0FE
:1039D000000A01280ED0022599E084F85DB0134654
:1039E0000A462046CDF8008000F064F900F098B84F
:1039F0000220FBE7002F77D0002E75D084F85DB051
:103A0000C4F860A02764A4F84460A4F84660C4F831
:103A100038A0A4F83CA0A4F83EA0C4F84CA0C4F878
:103A200050A0E0684FF4E06188422068426802D903
:103A300022F4805201E042F480524260A068B0F566
:103A4000004F09D12068026822F04002026020681D
:103A5000026822F48042026020680268520603D4A1
:103A6000026842F040020260E06888421DD93FE0EF
:103A700020688168C9070BD0017B206C0170206C25
:103A8000401C2064B4F84600401EA4F846000CE038
:103A9000FEF7DEFFA0EB0901414503D3B8F1FF3F7C
:103AA00003D03BE0B8F1000F38D0B4F8460000284E
:103AB000DED121E020688168C9070BD0C068216C85
:103AC0000880206C801C2064B4F84600401EA4F8D6
:103AD00046000DE0FEF7BCFFA0EB0901414504D311
:103AE000B8F1FF3F04D019E010E0B8F1000F15D095
:103AF000B4F846000028DDD14A464146204600F091
:103B0000D0FE08B120202066206E00B101250120E2
:103B100084F85D0084F85CA0284667E70325F6E793
:103B200018BCBDE8E08F2DE9F84F044690F85C0022
:103B300000271D461646894601280DD04FF0010B7F
:103B400084F85CB0FEF784FF804694F85D00BA46C6
:103B5000012804D00227A4E0022000F0A8B8B9F19F
:103B6000000F74D0002E72D0032084F85D00C4F8DA
:103B700060A0C4F83890A687E687C4F840A0A4F8EF
:103B800044A0A4F846A0C4F850A0C4F84CA0A06873
:103B9000B0F5004F09D12068016821F040010160B3
:103BA0002068016841F4804101602068016849068D
:103BB00003D4016841F040010160E068B0F5E06FB6
:103BC000606823D908B1012E1CD1A06B2168008840
:103BD000C86006E020688168890709D5A16B09885B
:103BE000C160A06B801CA063E08F401EE08709E0ED
:103BF000FEF72EFFA0EB0800A84202D3681C01D0FC
:103C000046E0ADB3E08F0028E4D136E008B1012EE4
:103C100030D1E08F0128A06B03D921680088C860EB
:103C20000FE021680078087314E0E08722E0206844
:103C30008168890714D5E18F0129A16B08D909880A
:103C4000C160A06B801CA063E08F801EEDE727E0C1
:103C500009780173A06B401CA063E08F401EE4E76D
:103C6000FEF7F6FEA0EB0800A84202D3681C01D0C4
:103C70000EE06DB1E08F0028D9D14246294620469A
:103C800000F049FE08B120202066A06810B105E0D0
:103C9000032706E02068C16880680090206E00B1AC
:103CA000012784F85DB084F85CA0384655E718BC5D
:103CB000BDE8E08F2DE9F05F044690F85C00002736
:103CC0000A9E1D4692468B464FF0010901280ED0F0
:103CD000012084F85C00FEF7BBFE804694F85D008E
:103CE000616801280CD0B1F5827F07D102E0022083
:103CF00000F011B9A16809B9042801D0022700E138
:103D0000BBF1000F24D0BAF1000F21D005B394F815
:103D10005D00042802D0052084F85D0000202066A4
:103D2000C4F840A0A4F84650A4F84450C4F838B0F1
:103D3000E587A587E0642065E0684FF4E06188428C
:103D400001D8012D06D92068426822F4805205E08E
:103D50000127D6E02068426842F480524260206821
:103D60000268520603D4026842F040020260E06832
:103D70008842606845D908B1012D3AD1A06B21680D
:103D80000088C860A06B801CA063E08F401EE087A5
:103D90002FE02068816889070FD5E18F69B1B9F1FB
:103DA000010F0AD1A16B0988C160A06B801CA063C0
:103DB000E08F401EE0874FF0000920688168C90746
:103DC0000FD0B4F8461061B1C068216C0880206C37
:103DD000801C2064B4F84600401EA4F846004FF052
:103DE0000109FEF735FEA0EB0800B04201D3701CBC
:103DF00075D1E08F0028CCD1B4F846000028C8D196
:103E000076E008B1012D6CD1E08F0128A06B08D9B4
:103E100021680088C860A06B801CA063E08F801EB2
:103E200007E0216800780873A06B401CA063E08F56
:103E3000401EE08755E02068816889071AD5E18F28
:103E4000C1B1B9F1010F15D1E18F0129A16B07D9DA
:103E50000988C160A06B801CA063E08F801E06E013
:103E600009780173A06B401CA063E08F401EE087BF
:103E70004FF0000920688168C90728D0B4F84610BF
:103E800029B3B4F84610012914D9C068216C088000
:103E9000206C801C2064B4F84600801EA4F8460004
:103EA000B4F84600012810D82068416841F48051D8
:103EB00041600AE0007B216C0870206C401C20648B
:103EC000B4F84600401EA4F846004FF00109FEF782
:103ED000BFFDA0EB0800B04202D3701C01D018E077
:103EE000BEB1E08F0028A6D1B4F846000028A2D1C8
:103EF00042463146204600F00EFD10B10127202039
:103F00002066012084F85D00002084F85C003846BB
:103F1000EEE60327F5E730BCBDE8C09F7047704769
:103F2000704710B5040003D094F83D0010B107E0CD
:103F3000012010BD002084F83C00204600F022F84B
:103F4000022084F83D00211D206801F09DF8012029
:103F500084F8480084F83E0084F83F0084F840006C
:103F600084F8410084F8420084F8430084F8440057
:103F700084F8450084F8460084F8470084F83D0042
:103F8000002010BD7047000090F83D10012901D0BD
:103F900001207047022180F83D100168CA6842F094
:103FA0000102CA6000680B49884205D0B0F1804F19
:103FB00002D00949884207D18168084A1140062980
:103FC00006D0B1F5803F03D0016841F001010160E6
:103FD00000207047002C0140004001400700010014
:103FE000704770B50446006801694FF00005C94389
:103FF000890715D4C168C943890711D4E91E016135
:1040000001202077206880698007204602D0FFF7D2
:10401000E7FF04E000F0A7F8204600F0A5F82577B8
:1040200020680169C943490717D4C168C9434907D2
:1040300013D46FF0040101610220207720688069A9
:1040400010F4407F204602D0FFF7CAFF04E000F0E2
:104050008AF8204600F088F8257720680169C9436E
:10406000090716D4C168C943090712D46FF00801C3
:104070000161042020772068C0698007204602D0B3
:10408000FFF7AEFF04E000F06EF8204600F06CF899
:10409000257720680169C943C90617D4C168C94397
:1040A000C90613D46FF01001016108202077206841
:1040B000C06910F4407F204602D0FFF791FF04E072
:1040C00000F051F8204600F04FF82577206801698C
:1040D000C943C90708D1C168C943C90704D1891EAA
:1040E0000161204600F042F820680169C9430906D1
:1040F00009D4C168C943090605D46FF08001016184
:104100002046FFF70CFF20680169C943C90509D49F
:10411000C168C943090605D46FF480710161204666
:10412000FFF7FCFE20680169C943490609D4C1684C
:10413000C943490605D46FF040010161204600F0F3
:104140001FF820680169C94389060BD4C168C943B7
:10415000890607D46FF0200101612046BDE8704058
:10416000FFF7DEBE70BD704770470000006803496E
:10417000884201D1FEF772BC704700000014004075
:10418000704710B5040002D0A06F10B107E0012005
:1041900010BD002084F87400204600F025F824208B
:1041A000A0672068016821F001010160204601F04C
:1041B00033F80128ECD0606A10B1204600F09AFF75
:1041C0002068416821F4904141602068816821F0B5
:1041D0002A0181602068016841F0010101602046E8
:1041E000BDE8104000F0EABF2DE9F0439DB0044661
:1041F000142117A8FCF728FA5C216846FCF724FA7A
:1042000039492068394C0326072700254FF090498B
:104210004FF0020888421BD10120009008956846A3
:10422000FEF716FD08B1FDF723FF206E40F4804035
:104230002066206E00F480401C90E06C40F001008D
:10424000E064E06C00F001001C904FF4C0601CE0E2
:104250002749884225D16846CDF800800995FEF7A8
:10426000F7FC08B1FDF704FFA06D40F40030A06535
:10427000A06D00F400301C90E06C40F00100E064A0
:10428000E06C00F001001C900C20CDE9170817A984
:10429000484619AA82E8E000FEF7EAFA1DB0BDE838
:1042A000F08314498842F9D104200A9500906846A9
:1042B000FEF7CEFC08B1FDF7DBFEA06D40F48020D8
:1042C000A065A06D00F480201C90E06C40F002001E
:1042D000E064E06C17A900F002001C904FF440600D
:1042E000CDE917080448D4E7003801400010024027
:1042F0000044004000480040000400482DE9F84315
:104300000446806F1F4616460D4620284FD1CDB17A
:10431000C6B194F87400012849D0012084F87400D3
:104320004FF00008C4F880802120A067FEF790FBC2
:10433000A4F850608146A4F85260A068B0F5805F90
:1043400003D004E00120BDE8F883206928B12E469F
:104350005FF0000584F8748010E00026FAE7802101
:10436000204601F059F8B8B9C6B116F8010B21681A
:104370000885B4F85200401EA4F85200B4F8520068
:104380004B464FF0000200970028E8D14FF0400163
:10439000204601F041F830B10320D4E735F8020B94
:1043A000C0F30800E3E72020A0670020CBE702204D
:1043B000C9E7FEE700EB8100006E00F0F8407047AF
:1043C0008068C0F3C00070478068C0F38000704709
:1043D000042303EAD15310B518444369C1F30451CF
:1043E00007248C40A3438A401343436110BD00EB74
:1043F0008100016E21F00041114301667047000009
:1044000010B54FF4807488B000222146142001F0CA
:10441000D8FF0A49002808600DD01C2208496846C8
:10442000FCF7E0F80021684601F048FA1422214622
:1044300004A0FDF7F5FD08B010BD0000300000201D
:104440000C6F00085B494E464F5D205461736B2D25
:104450004261736564204C6F6767696E6720496EBF
:10446000697469616C697A656420284275663A20CE
:1044700025642C205175653A202564290D0A000019
:1044800030B587B018216846FCF7DEF818481749A0
:104490000024C0E9001484600425C460C0E9044518
:1044A000047644760121C16180F820408462C462B0
:1044B00080F83040446380F83840FDF7D5FF08B1FC
:1044C00072B6FEE70B4800900620CDE901047F207C
:1044D0000594CDE9030569460548FDF7CBFD0028A5
:1044E00001D072B6FEE707B030BD000000000450F6
:1044F0009C000020400020192DE9F04186B01421D5
:104500006846FCF7A1F83448C16C41F00401C1646D
:10451000C16C01F004010591C16C41F08001C164DE
:10452000C16C01F080010591C16C41F00101C164D1
:10453000C16C01F001010591C16C41F00201C1643F
:10454000C06C264E00F002004FF4C04405900022DB
:1045500021463046FEF777FA4FF090470022D021EF
:104560003846FEF770FADFF878800022C021404616
:10457000FEF769FA0125CDE9004500240294694659
:1045800030460394FEF774F921204FF48816CDE9E4
:104590000006694602943846FEF76AF9D02000907A
:1045A000CDE90154694638460394FEF761F9C0200D
:1045B000CDE900050320CDE9024069464046FEF7FB
:1045C00057F96802CDE90006694602944046FEF7B5
:1045D0004FF906B0BDE8F081001002400008004825
:1045E00000040048114810B50F4901604FF4827172
:1045F000416000214FF4E062C0E902124FF4007202
:104600000161C0E905122022C0E9072107224162A9
:10461000C0E90A1201634163FFF7E0F8002801D006
:1046200072B6FEE710BD000000300140000100201E
:104630000C4810B50A4901604FF4E1314160002196
:1046400081600C22C160C0E904128161C161016214
:104650004162FFF796FD002801D072B6FEE710BD5B
:1046600000380140640100200C4810B50A4901607F
:104670004FF4E1314160002181600C22C160C0E94A
:1046800004128161C16101624162FFF77AFD002875
:1046900001D072B6FEE710BD00440040E8010020E2
:1046A0000C4810B50A4901604FF4E1314160002126
:1046B00081600C22C160C0E904128161C1610162A4
:1046C0004162FFF75EFD002801D072B6FEE710BD23
:1046D000004800406C020020FEE7FEE72DE9F041B3
:1046E000444C05468846E0680026810728680DD0BE
:1046F000E16801F00301814216D1A8B1E068696860
:10470000C0F30210401C88420ED120E0012804D0E2
:10471000022805D0032807D108E02168890701E0B5
:1047200021684905002907DB01265FE0216889032C
:1047300002D421684903F5E7E1686A686FF00F0366
:1047400021F0730103EB021211430143E160206881
:1047500020F080602060FEF77BF9074605E000BF8F
:10476000FEF776F9C01B022837D820680001F7D47D
:10477000B8F1000F18D0B8F1010F1DD0287D4FF00F
:104780007E41400801EB4060A96840EA01202169B0
:10479000194A114008432061206840F08060206081
:1047A000FEF756F907461AE0A868297B000240EA9E
:1047B000C1602169114AECE7288A1149400801EBE0
:1047C0004050A96840EA012021690E4AE1E700BF94
:1047D000FEF73EF9C01B022801D9032606E0206837
:1047E0000001F5D52069A969084320613046BDE87C
:1047F000F081000000100240FF80FFF9FF80FF07FA
:104800000000E0FFFF809FFFF8B51C4D0646002426
:10481000A86DC00002D5FEF713FA0DE0A86D40F0B8
:104820008050A865A86D00F080500090FEF708FA4F
:10483000A96D21F08051A965B0F5007F04D0802ECC
:1048400007D94FF003040AE0802E08D9A02E01D822
:1048500004E001D1022402E0702E00D101240848B6
:10486000016821F0070121430160006800F00700A2
:10487000A04201D00120F8BD0020F8BD0010024088
:10488000002002400148FEF72BBF0000000100207D
:1048900010B5806A0021A0F84610C187FEF71EFF00
:1048A00010BD2DE9F843044640684FF48276154662
:1048B00089464FF400474FF48068B04209D1A068A0
:1048C000B84201D0404504D12068016821F0400180
:1048D00001604B46002280212046009500F0B4F88C
:1048E00080B96068B04214D1A068B84201D0404598
:1048F0000FD14B4600224FF4C0612046009500F0D6
:104900002FF830B1206E40F0200020660320BDE873
:10491000F8830020FBE7F8B515460E460B460092DB
:10492000044600224FF4C05100F01AF888B933460B
:10493000002280212046009500F086F848B93346D1
:1049400000224FF4C0612046009500F009F80028CD
:1049500004D0206E40F0200020660320F8BD000047
:104960002DE9FE4F4FF0000A984617460E460446C2
:104970000C9D8DF804A0FEF76BF8411BA8EB010518
:10498000FEF766F8814620684FF4C06B0C30029049
:104990002A480068C0EBC00000EB8000000D6843AF
:1049A000009043E05E4506D12FB9029800788DF85B
:1049B00004009DF80400B8F1FF3F37D0FEF748F837
:1049C000A0EB0900A84203D215B1009858B32BE020
:1049D0002068416821F0E00141606068B0F5827FA5
:1049E0000BD1A068B0F5004F02D0B0F5806F04D1B4
:1049F0002068016821F040010160A06AB0F5005F05
:104A000009D12068016821F4005101602068016823
:104A100041F400510160012084F85D0084F85CA03D
:104A2000032000F00DB80025401E0090206880682B
:104A30003040B842B6D10020F3E70000100000205B
:104A40001EBCBDE8E08F00002DE9F8431E469146EC
:104A500088460446089DFDF7FBFF401B351AFDF70D
:104A6000F7FF074625480068C0F3CB30684338E0BD
:104A7000701C37D0FDF7ECFFC01BA84203D215B164
:104A8000009860B32CE02068416821F0E0014160AB
:104A90006068B0F5827F0BD1A068B0F5004F02D0FE
:104AA000B0F5806F04D12068016821F040010160F9
:104AB000A06AB0F5005F09D12068016821F40051B7
:104AC00001602068016841F400510160012084F810
:104AD0005D00002084F85C000320BDE8F883002519
:104AE000401E00902068816838EA010004D000214F
:104AF0004945BDD10020F0E70121F9E71000002071
:104B0000012000F0C3FEFBE70B4CC0B04FF0FF35B7
:104B10004FF47A762A466946206801F067FD01283D
:104B2000F8D16846FBF7FAFC82B23346694603487F
:104B3000FFF7E4FBEEE70000300000206C020020ED
:104B40002DED028B88B037A0FDF76AFA4249402369
:104B5000404A01F10C0000F01FFD40B13FA0FDF7FD
:104B60005FFA4FF47A74204600F090FEFBE73A4A71
:104B70004249183A02F1240000F05AF9364A3F49F6
:104B8000183A02F1240000F073F93D48009000F05B
:104B900089FE9FED3C0A01908DED020A9FED3A0AD5
:104BA0003AA08DED030AFDF73BFA00249FED478AFA
:104BB00000F078FE01909DED020A274A6B4630EE28
:104BC000080A183A2D498DED020A02F1240000F07E
:104BD000A7F80A2000F05AFE641C0C2CE8DB1E4CDF
:104BE0003BA0183C2168FDF71BFA22688AB104AB90
:104BF000224904F12400521E00F02CF9069802F01C
:104C0000CBF841EC100B3AA053EC102B0599FDF7B3
:104C100007FA4248FDF704FA41F28834204600F0D2
:104C200035FEFBE75B494E464F5D202D2D2D205371
:104C3000746F72616765204D616E616765722054A3
:104C40006573742053746172746564202D2D2D0D6D
:104C50000A00000000040048380600205B4552525C
:104C60004F525D2057323551333220496E697420DE
:104C70004661696C6564210D0A000000180000207F
:104C8000BEBAFECA0000CC41000070425B494E46ED
:104C90004F5D20417070656E64696E67203132200F
:104CA0007265636F72647320746F2073656520543E
:104CB0007261636B696E6720536563746F722075F0
:104CC00070646174652E2E2E0D0A0000CDCCCC3D93
:104CD0005B494E464F5D204E657720437572726585
:104CE0006E7420496E6465783A2025640D0A0000D0
:104CF0005B494E464F5D204C617374205265636F73
:104D000072643A2054696D653D25642C2054656DAC
:104D1000703D252E31660D0A00000000307000083D
:104D2000F8B50646107A1F4614460D46A8B1D4E9D8
:104D30000001884207D317A0FDF772F922462946E1
:104D4000304600F041F82868AB8921683A4601FBFB
:104D50000301304600F0B8FC08B10120F8BD21681D
:104D6000491C2160A88AB1FBF0F200FB12127AB94B
:104D7000B1FBF0F0401EB0F5805F09D200218DF844
:104D80000010A968012301446A46304600F09CFCEB
:104D90000020F8BD5B5741524E5D2053746F726125
:104DA00067653A20526567696F6E2066756C6C2185
:104DB000204175746F2D666F726D617474696E67D2
:104DC0002E2E2E0D0A0000002DE9F0410D4607465B
:104DD000164609680AA0FDF723F93846A96800F0CD
:104DE000ACFB2C6805E02146384600F0A6FB04F534
:104DF00080546868A042F6D800203060BDE8F08199
:104E00005B494E464F5D2053746F726167653A206F
:104E1000466F726D617474696E6720726567696F41
:104E20006E203078253038582E2E2E0D0A000000C6
:104E300070B169B162B1D1E900308989C01AB0FBA3
:104E4000F1F05060002010600120107200207047C7
:104E50000120704770B51C468B890D6802FB035119
:104E6000224600F0ABFB002800D0012070BD0000FE
:104E70002DE9F84F8346107A92460E4600B335A0CE
:104E80003168FDF7CDF8D6F80880002540F6FF77A9
:104E9000A94601236A464146584600F08FFB9DF81B
:104EA0000000FF280FD001236A4608F6FF7158461C
:104EB00000F084FB9DF80000FF2806D0791C1CE060
:104EC000012000F081B8002117E0781B00EBD070C2
:104ED00005EB600408EB040101236A46584600F024
:104EE0006DFB9DF80000FF2803D004F10109651C4B
:104EF00000E0671EBD42E8DD4946B08A00FB01F4D0
:104F0000611E4518DAF80400A84200D8451EA046E4
:104F100016E0281B00EBD07004EB6007B189306805
:104F2000042307FB01016A46584600F047FB30693D
:104F30000099884203D107F101087C1C00E07D1E26
:104F4000AC42E6DD414612A0CAF80080FDF768F8E1
:104F50000020B6E75B494E464F5D2053746F726187
:104F600067653A205374617274696E672072656375
:104F70006F7665727920666F7220726567696F6EF1
:104F8000203078253038582E2E2E0D0A00000000D3
:104F90005B494E464F5D2053746F726167653A20DE
:104FA0005265636F7665727920636F6D706C65749E
:104FB000652E2043757272656E7420496E64657843
:104FC0003A2025640D0A000018BCBDE8E08F0000FF
:104FD00010B5502080F31188BFF34F8FBFF36F8F50
:104FE00001F014FD18B104494FF080500860002012
:104FF00080F3118810BD000004ED00E010B596B0FC
:1050000044216846FBF720FB142111A8FBF71CFB89
:105010004FF40070FDF7E0FD08B172B6FEE7012124
:105020000804CDE90010022003240A90CDE90B41C9
:1050300014210D910721CDE90E1010906846FEF75E
:105040009DF808B172B6FEE70F20CDE911040020EB
:10505000139014901590042111A8FDF757FF002814
:1050600001D072B6FEE716B010BD0000024801681C
:1050700041F470010160704788ED00E00148FEF7DF
:10508000B0BF0000D405002070B50268164B4FF089
:105090008046984201D0B04203D122F070044A68A1
:1050A0002243124C124D984205D0B04203D0A04288
:1050B00001D0A84203D122F44076CA6832434E6937
:1050C00022F08002324302608A68C2620A68826209
:1050D000984203D0A04201D0A84201D109690163DE
:1050E0000121416170BD0000002C014000400140E1
:1050F0000044014090F82410C90706D001684A68AE
:10510000836A22F400321A434A6090F82410890717
:1051100006D501684A68C36A22F480321A434A609D
:1051200090F82410490706D501684A68036B22F4F9
:1051300080221A434A6090F82410090706D50168B6
:105140004A68436B22F400421A434A6090F82410E4
:10515000C90606D501688A68836B22F480521A4317
:105160008A6090F82410890606D501688A68C36BA6
:1051700022F400521A438A6090F82410490611D58F
:1051800001684A68036C22F480121A434A60016C79
:10519000B1F5801F06D101684A68436C22F4C00251
:1051A0001A434A6090F82410090606D501684A6837
:1051B000806C22F4002202434A607047F8B5002652
:1051C0000446C0F88060FDF743FC0546206800688F
:1051D0006FF07E47000708D52B4600224FF40011E0
:1051E0002046009700F018F960B920680068400771
:1051F0000AD52B4600224FF480012046009700F08C
:105200000BF908B10320F8BD2020A067E0672666EF
:1052100084F874600020F8BD2DE9F041044601686F
:1052200080682269E3691043626900251A431043CC
:10523000714F0A68714B1A4002430A602068416846
:10524000E26821F44051114341602168A069B942EC
:1052500001D0226A10438A6822F4306202438A60D5
:105260006749236867488B420DD1D0F8880010F059
:10527000030006D0012847D0022843D0032830D1AC
:1052800044E001212EE060498B420BD1D0F8880028
:1052900010F00C0034D0042836D0082832D00C2866
:1052A0001FD133E059498B420BD1D0F8880010F060
:1052B000300025D0102827D0202823D0302810D126
:1052C00024E0BB420DD1D0F8880010F4406017D024
:1052D000B0F5806F18D0B0F5006F13D0B0F5406F07
:1052E00014D010214A4A00264FF40040BB422FD16F
:1052F00071B102290FD004290FD0082973D10FE012
:105300000021EFE70221EDE70421EBE70821E9E7BF
:10531000FDF7BEFE03E0104602E0FDF7DDFEE8B358
:10532000626802EB420181425DD8B0EB023F5AD87D
:10533000010E03025008181871410023FBF75CF8B6
:10534000344AA0F5407191424DD82168C8604BE0C5
:10535000E3694FF6EF77834228D1092943D2DFE88A
:1053600001F005080B420D4242421000FDF790FE8D
:1053700006E0FDF79FFE03E0104602E0FDF7ACFEFD
:1053800060B14100606801EB5001B1FBF0F0A0F1A9
:105390001001B94227D84FF6F07100E024E0014037
:1053A000C0F3420001432068C1601DE009291AD200
:1053B000DFE801F005080B190D1919191000FDF7A8
:1053C00067FE06E0FDF776FE03E0104602E0FDF71B
:1053D00083FE48B1616800EB5100B0FBF1F0A0F131
:1053E0001001B94205D9012566662846A666BDE8C2
:1053F000F08180B2A9E7000000800040F369FFEF70
:1054000000380140001002400044004000480040C5
:105410000024F400FFFC0F002DE9F0479A461746E0
:105420000E4604464FF000094FF02008089D4AE060
:10543000681C48D0FDF70CFBA0EB0A00A8422AD854
:105440004DB32068016849073DD5C069C0430005D8
:1054500039D421684FF400600862206850E8001FCA
:1054600021F4D07140E80012002AF6D120680830FB
:1054700050E8001F21F0010140E80012002AF5D198
:10548000C4F87880C4F87C80C4F8808084F8749074
:105490000320BDE8F087216851E8000F20F4D070A8
:1054A00041E80002002AF6D12068083050E8001FC9
:1054B00021F0010140E80012002AF5D1C4F87880FB
:1054C000C4F87C80E2E72068C06936EA000004D0B6
:1054D0000020B842ACD00020DBE70120F9E7FEE76E
:1054E00000B587B00122C0210C48FDF7ACFA0C4989
:1054F0000C48FCF712FD0B4901F10C00FCF724FDF0
:105500001C2209496846FBF76DF80021684600F047
:10551000D5F90649086007B000BD00000004004846
:10552000000100202C060020F06E0008140000206E
:10553000018940680122FDF786BA38B50D46044658
:10554000C16800F06DF8204600F005F920208DF8C4
:105550000000280C8DF80100280A8DF802008DF853
:105560000350E1682068FCF7F9FC08B1022038BD5F
:10557000204600F050F804226946E3682068FCF7F2
:1055800014FD2046FFF7D4FF2068FCF72BFD2046D2
:10559000E16800F045F838BD10B568B161B1C0E907
:1055A000001203814FF47A71C160FFF7C1FF0A2036
:1055B00000F06CF9002010BD012010BDF8B50446C4
:1055C00003208DF80000080C8DF80100080A8DF802
:1055D00002008DF803101D461646E1682068FCF7AE
:1055E000BDFC08B10220F8BD204600F014F80422EA
:1055F0006946E3682068FCF7D8FCAAB23146E36844
:105600002068FCF7C5FC2046FFF792FF2068FCF7F6
:10561000E9FC0020F8BD018940680022FDF713BABB
:105620002DE9FF41044627A00D46006803900020A5
:1056300002908DF8040000F035F9064629462068EE
:10564000FCF78CFC18B1022004B0BDE8F0812046C4
:10565000FFF7E1FFE0680090022302AA03A9206897
:10566000FCF7B0FC18B99DF809008DF804004FF460
:105670007A7045434FEA00079DF80400C00715D033
:1056800000F010F9B5FBF7F1801B884207D92046DE
:10569000FFF74EFF2068FCF7A5FC0320D4E70122AA
:1056A00001A9E3682068FCF773FC38B12046FFF7D6
:1056B0003FFF2068FCF796FC0020C5E7012000F0C2
:1056C000E5F8D9E7050000002DE9F8431F469046AC
:1056D0000D4604463BE0E8B2C0F58076B74200D202
:1056E0003E462046E168FFF79BFF204600F033F876
:1056F00002208DF80000280C8DF80100280A8DF892
:1057000002008DF80350E1682068FCF727FC10B117
:105710000220BDE8F8832046FFF77DFF042269469A
:10572000E3682068FCF741FCB2B24146E3682068B8
:10573000FCF73BFC2046FFF7FBFE2068FCF752FC21
:105740002046E168FFF76CFF3544B044BF1B002FD3
:10575000C1D10020DDE738B5044606208DF80000F1
:10576000E1682068FCF7FAFB00280ED12046FFF71D
:1057700052FF01226946E3682068FCF716FC2046C8
:10578000FFF7D6FE2068FCF72DFC38BD03B4019866
:105790004100009850EAC12018BF04204A0D18BFEC
:1057A00040F0010040F2FF72B2EB515F08BF40F0E1
:1057B0000200012808BF052002B070470907090E42
:1057C000002804DB00F1E02080F80014704700F0AE
:1057D0000F0000F1E02080F8141D704730380A28CF
:1057E00001D20120704700207047EFF305800028A8
:1057F00000D001207047000088B0FDF737F9FFF7AF
:10580000FDFBFEF779FE1B48816C41F001018164CC
:10581000806C002200F00100079005210C20FDF7AC
:10582000A9F90C20FDF798F9002205210D20FDF7BC
:10583000A1F90D20FDF790F9FEF722FEFEF7D2FE4A
:10584000FEF7F6FEFEF710FFFEF72AFFFCF7E7FB78
:105850001C2209496846FAF7C5FE0021684600F097
:105860002DF806490860FEF7CBFDFFF739FE00F082
:1058700014F8FEE7001002408C6E000800000020C3
:1058800001460020842900D0C81C704710B500B91B
:10589000012000F009FC002010BD10B500F0A0FCB4
:1058A000002010BD10B5FFF7A0FF18B1BDE81040F3
:1058B00001F0A4B8BDE8104001F09AB87FB50D46DC
:1058C00004464169B0F9080081B1A16971B1FFF7DF
:1058D000D7FFD4E905128DE80700D4E900102B4664
:1058E000226901F045F8039004B070BDFFF7C8FFCE
:1058F00003A9CDE90001208A2B4682B2D4E9001029
:1059000001F006F8012801D00020EDE70398EBE74D
:105910002DE9F041184C0F460546E6682068001D49
:1059200000F0D0FA38B9206890F82C100120884097
:10593000216981432161681C07D137B12168BDE825
:10594000F0410E48091D00F001BB20683544B54206
:105950004560216805D2A06BBDE8F041091D00F04B
:10596000DDBA606B091D00F0D9FAA06A854200D249
:10597000A562BDE8F081000034000020300700205F
:105980002DE9F041054600F0EDFA2E4CA068401CD0
:10599000A06020682C4F10B1606940B32DE02560F5
:1059A000A068012829D1002606EB860007EB8000BD
:1059B00000F0A6FA761C072EF6D323488C3000F0B0
:1059C0009FFA2148A03000F09BFA1F48B43000F045
:1059D00097FA1D48C83000F093FA1B48DC3000F0FD
:1059E0008FFA19488C3060631430A06305E020689A
:1059F000E96AC06A884200D82560606A401C60621B
:105A0000E96A0120226988401043206101EB81008E
:105A100007EB8000291D00F099FA00F0C3FA6069D5
:105A200000280CD02068E96AC06A884207D207497A
:105A30004FF080500860BFF34F8FBFF36F8FBDE80A
:105A4000F0810000340000205406002004ED00E046
:105A500030B4026C0B46002A0BD0C1681144C160FF
:105A60008468A14201D30168C16030BC1846FAF7CE
:105A700074BD30BC70472DE9F041856B1746044674
:105A80000026026C82B1C7B1E068FAF766FDE168F2
:105A9000206C091AE1602268914202D2A168081ABA
:105AA000E060022F16D017E02068A8B9A06801F0C6
:105AB00013F806460020A0600EE06068FAF74DFD7E
:105AC000216C606808446060A168884204D3206843
:105AD000606001E005B16D1E6D1CA5633046BDE838
