:020000040800F2
:10000000C04D0020B9030008E3490008AF400008D4
:10001000E1490008D31F0008A354000800000000B5
:10002000000000000000000000000000D9020008ED
:10003000ED1F00080000000035030008954F000880
:10004000D3030008D3030008D3030008D303000838
:10005000D3030008D303000841200008D30300089D
:10006000D3030008D3030008D3030008D303000818
:10007000D51F0008E11F0008D3030008D3030008C0
:10008000D3030008D3030008D3030008D3030008F8
:10009000D3030008D3030008D30300084720000857
:1000A000D3030008D3030008D3030008D3030008D8
:1000B000D30300080000000000000000D303000884
:1000C000D3030008D3030008D30300088D4B0008B6
:1000D000D3030008D3030008D3030008D3030008A8
:1000E000D3030008D3030008000000000000000054
:1000F0000000000000000000000000000000000000
:1001000000000000D303000800000000D303000833
:100110000000000000000000D30300084150000868
:10012000D3030008D3030008D3030008D303000857
:10013000D3030008000000000000000000000000E1
:10014000D3030008D3030008D30300080000000015
:10015000D3030008D3030008D3030008D303000827
:10016000D3030008D3030008D303000800000000F5
:10017000D3030008D30300080000000000000000C3
:10018000D3030008D3030008D303000800F002F8EB
:1001900000F092F80AA090E8000C82448344AAF18F
:1001A0000107DA4501D100F087F8AFF2090EBAE88D
:1001B0000F0013F0010F18BFFB1A43F0010318479B
:1001C0008C710000AC710000103A24BF78C878C16F
:1001D000FAD8520724BF30C830C144BF04680C604D
:1001E000704700000023002400250026103A28BF95
:1001F00078C1FBD8520728BF30C148BF0B60704799
:100200006E2900F0E982702900F03784662906F033
:10021000B186652906F0AE86672906F0AB866129AE
:1002200006F0AA8603681B0A28BF41F080016929ED
:1002300000F09682642900F09382752900F0908284
:100240006F2900F0C483782900F00384E92900F0C5
:100250005F83E42900F05C83F52900F05983EF29DE
:1002600000F0C183F82900F002840368DB0928BF8D
:1002700041F08001632901F00E81732901F013819F
:10028000E32901F01E81F32901F02381002070474A
:100290001FB506F06AFE01F073F90400002000218A
:1002A00006F0D6FD401C60600020002106F0BAFD7B
:1002B000E0601FBD10B510BD01F034F91146FFF725
:1002C000E7FF05F041F901F011FA03B4FFF7F2FF7F
:1002D00003BC01F055FA00002C4B1968086800F0C7
:1002E0005AB880F30988BFF36F8F4FF0000080F396
:1002F000118870470000000008480068006880F31B
:1003000008884FF0000080F3148862B661B6BFF32E
:100310004F8FBFF36F8F00DF00BF00BF08ED00E01D
:10032000DFF80C00016841F470010160704700BF04
:1003300088ED00E0EFF30980BFF36F8F134B1A686D
:100340001EF0100F08BF20ED108A20E9F04F10605A
:1003500009B44FF0500080F31188BFF34F8FBFF303
:100360006F8F05F07FFF4FF0000080F3118809BC0C
:100370001968086800F014B81EF0100F08BF00F0EC
:1003800014B880F30988BFF36F8F704720000020F6
:10039000EFF30580704730C8B0E8C04FFFF7A1BF4A
:1003A00030C8B0E8C04FFFF7E7BFB0EC088AB0EC48
:1003B00008CAFFF7E6BF0000094880470948004720
:1003C000FEE7FEE7FEE7FEE7FEE7FEE7FEE7FEE705
:1003D000FEE7FEE704480549054A064B7047000062
:1003E000315000088D010008C0470020C04D00209A
:1003F000C0490020C049002053EA020C00F0698087
:100400002DE9F04B4FF00006002B1FBFB3FA83F528
:1004100003FA05F424FA05F65E4012BF1643B2FA59
:1004200082F502FA05F4C5F120051EBF22FA05FC8B
:1004300044EA0C04203556EA044C4FEA144418BF31
:10044000641C4FF000084FF00009904271EB030C60
:1004500039D3002919BFB1FA81F701FA07F6B0FACA
:1004600080F700FA07F6C7F120071EBF20FA07FC45
:1004700046EA0C062037B6FBF4FCA7EB0507103F55
:1004800007F01F0BCBF120060CFA0BFB2CFA06F63B
:1004900044BFB3460026202FA4BF5E464FF0000B9A
:1004A0005BEA060C08BF4FF0010B19EB0B09ABFB25
:1004B000027C48EB0608C01B06FB02CC0BFB03CCFE
:1004C00071EB0C01C1E70B46024641464846BDE8C8
:1004D000F08B13B54FF000004FF00001AFF3008038
:1004E000BDE81C40704700007CB51D4616460C0058
:1004F000009001D02044401E074B7B442A466946A9
:100500000190304600F081F905461CB10020694693
:1005100000F08EF928467CBD3D03000010B5431C59
:1005200002E010F8011B71B18107FAD14FF00132DE
:1005300002C88C1A8C4314EAC211F9D0C01A0A06F8
:1005400003D0C01E10BDC01A10BD0A0401D0801E09
:1005500010BD0902FCD0401E10BD032A40F23080BD
:1005600010F0030C00F0158011F8013BBCF1020FF4
:10057000624498BF11F801CB00F8013B38BF11F875
:10058000013BA2F1040298BF00F801CB38BF00F88C
:10059000013B11F0030300F02580083AC0F0088009
:1005A00051F8043B083A51F804CBA0E80810F5E7ED
:1005B000121D5CBF51F8043B40F8043BAFF30080D0
:1005C000D20724BF11F8013B11F801CB48BF11F845
:1005D000012B24BF00F8013B00F801CB48BF00F815
:1005E000012B704710B5203AC0F00B80B1E81850CD
:1005F000203AA0E81850B1E81850A0E81850BFF40D
:10060000F5AF5FEA027C24BFB1E81850A0E81850AB
:1006100044BF18C918C0BDE810405FEA827C24BFFF
:1006200051F8043B40F8043B08BF7047D20728BF8D
:1006300031F8023B48BF11F8012B28BF20F8023BDC
:1006400048BF00F8012B70474FF0000200B5134679
:1006500094469646203922BFA0E80C50A0E80C50E2
:10066000B1F12001BFF4F7AF090728BFA0E80C5093
:1006700048BF0CC05DF804EB890028BF40F8042B8C
:1006800008BF704748BF20F8022B11F0804F18BFF9
:1006900000F8012B704770477047704770B50446EB
:1006A00085690068C10601D5302600E02026C00714
:1006B00007D070BDD4E9012130469047206A401C24
:1006C00020626D1EF6D570BD70B504468569007850
:1006D000C00707D170BDD4E9012120209047206ACE
:1006E000401C20626D1EF6D570BD09684A0501D513
:1006F00040B27047C905FCD500B2704709684A0589
:1007000001D5C0B27047C905FCD580B2704770B53D
:100710000C460546012A05D02878800600D5EA69EE
:10072000002302E0012305E05B1C934202D2E05C5F
:100730000028F9D1A869E618C01AA861286A1844E7
:1007400028622846FFF7AAFF04E0D5E9012114F842
:10075000010B9047B442F8D32846FFF7B5FF70BDB0
:100760002DE9F0410646002410687529314616A58A
:1007700010D0FFF7BAFF002802DA404213A507E0C5
:1007800031688A0701D512A502E0490704D511A5F1
:10079000012401E0FFF7B2FF00210A2206F124073D
:1007A00009E0B0FBF2FCB0FBF2F302FB1C003030BE
:1007B00078541846491C0028F3D123462A4630466F
:1007C000BDE8F04100F070BA000000002D0000000C
:1007D0002B0000002000000011680268006A530529
:1007E00001D508700AE0D30501D5088006E013069C
:1007F00003D5C217C1E9000200E00860012070477C
:1008000001694A1C02610878704700B58FB0CDE9D4
:1008100001310021059105497944CDE903101146C4
:10082000684600F035F90FB000BD0000E5FFFFFF9E
:100830000A6802F8010B0A607047D1E900239A4266
:1008400002D2531C0B601070704700002DE9FF5F4F
:1008500015468A460446DFF8AC80F8440027D8E9FC
:1008600000103E46CDE9001010E03AF816106A4636
:1008700002A800F032FE411C07D02178890603D57A
:10088000E269391891420DD80744761C2078800619
:1008900002D5E069B84205DDAE42E6DB3AF8160063
:1008A0000028E2D1A069C01BA0612046FFF7F6FE38
:1008B000D8E90010CDE90010002017E03AF8181030
:1008C0006A4602A800F009FEB0F1FF3F81460BD056
:1008D00000250DF1080B05E0D4E901211BF8050006
:1008E00090476D1C4D45F7D308F10100B04280469A
:1008F000E4DB206A384420622046FFF7E5FE00F082
:1009000003B80000066800003FBCBDE8C09F0000BF
:100910002DE9F0418046D21D22F007020025D2E9E0
:100920000002F52915A614D0011E72F1000106DAA5
:100930000023D0EB030063EB020211A608E0D8F815
:1009400000108B0701D50FA602E0490701D50EA6BE
:1009500001251146002408F1240704E000F05FF9A6
:1009600030323A55641C50EA0102F7D12B46324628
:1009700021464046BDE8F04100F096B90000000075
:100980002D0000002B0000002000000030B40021EA
:1009900000F1240408E002F00705D208303542EAED
:1009A0004372DB086554491C52EA0305F3D104681D
:1009B000002310A2250707D5A40600D421B1C469DD
:1009C00001230DA2641EC46130BC00F06DB910B5E6
:1009D000044621461068FFF791FE02462046BDE816
:1009E00010400023D2E7D21D22F00701D1E90023F5
:1009F000CCE700000000000030000000F0B40D461D
:100A00000188090502D5214C7C4402E01F4C7C443E
:100A10000E34002100F1240608E002F00F0712094D
:100A2000E75D42EA03721B097754491C52EA030747
:100A3000F3D102780023120704D5702D06D009B136
:100A4000022311342246F0BC00F02EB901231034E9
:100A5000F8E770B504460D4621461068FFF74EFED4
:100A6000024629462046BDE870400023C6E7D21D55
:100A700022F00703D3E90023C0E70368126843F0BC
:100A8000200303600823C3610023B7E7606600000A
:100A90002DE9F05F894604464FF0000ADFF874B193
:100AA000FB44C0F820A02046E1688847002874D0A5
:100AB000252806D0D4E901219047206A401C2062F5
:100AC000F1E700265F462046E16888472028054672
:100AD00007DB312D05D2781910F8200C08B1064338
:100AE000F1E7B00701D526F00406C4F81CA00027E2
:100AF000C4F818A02A2D09D0284604F01DFD38B3EB
:100B000004EB8708303DC8F8185019E059F8041B69
:100B1000204604EB87029161E1688847012F054672
:100B200018D1E069002820DA26F020061DE0D8F868
:100B3000180000EB800005EB40003038C8F81800C2
:100B40002046E1688847054604F0F6FC0028EED10F
:100B5000012F0AD02E2D08D12046E16888477F1C3E
:100B60000546022F46F02006C4DBA069002803DA00
:100B7000404246F00106A061F00701D026F01006C1
:100B80006C2D0BD0682D09D04C2D39D06A2D35D065
:100B9000742D35D07A2D33D016E038E0E1682F4639
:100BA00020468847B842054609D16C2F26D04FF41D
:100BB0008060E168064320468847054604E06C2FC4
:100BC0001AD04FF4807006430DB3A5F141001928E7
:100BD00002D8203546F400664A462946204626605B
:100BE0004E46FFF70DFB80B101280BD0F61D26F015
:100BF000070000F1080956E74020E4E78020D8E725
:100C00000020D6E706F104094DE7284652E7206A9E
:100C100000F002B8F065000030BCBDE8C09F30B500
:100C2000B0F10A024FEA900E71F100034EEA817EA4
:100C3000B0EB0E0061EB91014FEA101E4EEA017E0F
:100C400010EB0E0041EB11114FEA102E4EEA016E2F
:100C500010EB0E0041EB11214FEA104E4EEA014E0F
:100C600010EB0E0041EB1141401841F100014FEA39
:100C7000D00040EA41704FEAD10110EB80054FEA05
:100C8000810444EA907444EB01046D1944EB0404BC
:100C9000521BA3414FF0000348BF0A3200D530BDBC
:100CA000401C41F1000130BD2DE9F0470D46994649
:100CB0009246044600F124080168880604D5E069DC
:100CC00021F01001216000E00120A84201DD471B56
:100CD00000E00027A1697A1902EB0900081AA06157
:100CE0002078C00602D42046FFF7D8FC002608E092
:100CF000D4E901211AF806009047206A401C761CAE
:100D000020624E45F4DB2078C0060AD52046FFF766
:100D1000C5FC06E0D4E9012130209047206A401C40
:100D20002062381EA7F10107F4DC07E0D4E90121B5
:100D300018F805009047206A401C2062281EA5F183
:100D40000105F3DC2046FFF7BFFC2078000602D542
:100D50000220BDE8F0870120FBE770472DE9FF4F37
:100D60000C461E464FF0FF378BB0D2E90001DDF88C
:100D700060800A908A46C1F30A5505B93D460021B4
:100D800008464FF00000BAF1000F00F4400005DA09
:100D900000EB80004FF4400101EA50004FEA905907
:100DA000B9F1010F00DDB9460A9850EA4A000ED0A9
:100DB00044F61050A5F2FF3545432F14B8F1000F4B
:100DC0001ED07542291E1EDDC9F100021CE0B8F1DB
:100DD000010F4FF0000001D0302103E0F24305E0A5
:100DE0002154401CB042FBDB30460022002121543C
:100DF0000B99C1F80880C1E900200FB000F0BCB920
:100E0000BD1B6D1CDEE74A4600DA694206A800F009
:100E1000FBFB06AB93E8070003AB83E807005046F3
:100E20000A9900F0B4FC8DE80700A0F500501F38C7
:100E300000900398002D0ADD42F21F014A46084443
:100E4000002303A90390684600F01DFF09E0A0F508
:100E500000504A461F38002303A90390684600F05B
:100E600027FF8DE807000004000C03D04FF0FF308F
:100E7000410800E01046B8F1000F03D000220092B4
:100E800015461EE0751E05D4FFF7C9FE30326255C7
:100E90006D1EF9D5B3460122084302D000227F1C03
:100EA00004E02078302801D100227F1E002A099713
:100EB00084D01DE0112D07DAFFF7B1FE3032625504
:100EC0006D1C50EA0102F5D1084302D00098C8B168
:100ED0000EE00021681E05E0235C625C635422542E
:100EE000401E491C8142F7DBAB46A81B401E0990FF
:100EF000002004F80B000B98099AC0F80880C0E99C
:100F0000002B7AE711264FF0000857E72DE9F04F44
:100F100088460446D21D22F0070191B0D1E90001B4
:100F2000CDE90A0104F0E0FA02460B98C00F01D0A7
:100F30002D2007E02068810701D52B2002E0202129
:100F400001EAC000032A099001D0072A05DB034605
:100F50004146204600F018FB0BE12078800601D5C1
:100F6000E06900E00620B8F1650F814606D0B8F1CF
:100F7000660F18D0B8F1670F70D131E00020B9F1D9
:100F8000110F009001DB112301E009F101030AAA0E
:100F900001A90CA8FFF7E2FEDDE90C70002609F1BB
:100FA0000105834647E001204B4600904FF0004783
:100FB0000AAA01A90CA8FFF7D1FEDDE90DB00C9932
:100FC0005D46002610B909F101000D18B9EB0500C6
:100FD00003D4C0F1FF3609F10105A5EB09002BE0B0
:100FE000B9F1010F01DA4FF001090020B9F1110F39
:100FF0000090484601DD112300E003460AAA01A93A
:101000000CA8FFF7ABFEDDE90C704D4600268346C9
:10101000207800070AD4AB4500DA5D4601A8012D0F
:1010200004DD411911F8011C302907D04F4502DABF
:1010300017F1040F04DA012082460FE06D1EEEE77F
:10104000002F02DCED1B3E4403E0781CA84200DDCB
:101050007D1CB81B00F1010A4FF000472078000703
:1010600003D4AA4501DB4FF0FF3A0021B7F1004F4E
:101070000DF143088DF8431024D002202B23002FBC
:1010800001DA7F422D230A21021EA0F1010000DCBB
:101090005FB197FBF1FC97FBF1F201FB1C7C17465B
:1010A0000CF1300C08F801CDEEE7A8F10100037057
:1010B0002188090501D5452100E06521A0F101083D
:1010C00000F8011C09980FA9A1EB0807FF1D00B14A
:1010D0000120411901EBEA70A1693844081A401E49
:1010E000A0612078C00602D42046FFF7D7FA0998FD
:1010F00028B1D4E901219047206A401C2062207861
:10110000C00622D52046FFF7C9FA1EE0002E04DBF8
:10111000B34502DD01A8805D00E03020D4E9012163
:101120009047206A401C2062761CAAF101005FEA09
:10113000000A0AD100F024FAC0680168405CD4E9D2
:1011400001219047206A401C2062281EA5F101055C
:10115000DCDC07E0D4E9012118F8010B9047206A94
:10116000401C2062381EA7F10107F3DC2046FFF780
:10117000ABFA032011B041E630BCBDE8C08F0000DF
:101180002DE9F04F04460D46D21D22F0070089B02C
:10119000D0E900974846394604F0A6F90246F80F10
:1011A00001D02D2307E02068810701D52B2302E021
:1011B000202101EAC0038DF820300BB1012000E0AE
:1011C0000020032A824601D0072A04DB2946204654
:1011D00000F0DAF93FE12078800601D40D2500E027
:1011E000E569C7F30A560D2D49DA00214FEA175B6E
:1011F00008464FF00000002F00F4400007DA00EB33
:1012000080004FF4400100EBD07001EA60008115CE
:10121000012901DD4FF0FF3100224FEA850CBCF1BE
:10122000180F06D31346ACF118004FF08052C2409D
:1012300003E04FF4801323FA0CF30CF10C0CBCF117
:10124000200F04D3ACF1200C09FA0CF001E007FAEE
:101250000CF000294FF0004801DD18B90FE00ED165
:1012600040450CD319EB02095F4121B9404502D139
:101270009F4329EA0209BBEB175F00D0761C208848
:10128000000502D57B48784402E07A487844193852
:1012900008AA302302F80A30037C0AF10101002E6B
:1012A0000AF1020A53546A4602DC4FF0300101E0B1
:1012B0004FF031014FF001088DF8001002D0A6F276
:1012C000FF3603E059EA470100D06B4E002D02DCE7
:1012D0002178090704D54FF002082E218DF801105E
:1012E000C44600210BE0C7F303433F01C35C491C24
:1012F0006D1E02F80830052908F1010801DA002DF9
:10130000F1DC00210CE000EB1973491C1B786D1E09
:10131000082902F808304FEA091908F1010801DA32
:10132000002DF0DC21688B0602D516E0A8F101083B
:10133000E04505DD02EB080313F8013C302BF5D046
:10134000B8F1000F09DD02EB080313F8013C2E2B66
:1013500003D1090701D4A8F10108002D05DD3E21C4
:1013600002F808106D1E08F10108407C002E02F8FA
:10137000080008F1010804DA2D20764202F808007E
:1013800002E02B2002F808000A214FF47A7086420E
:1013900008F101080BDB96FBF0F3303302F808305C
:1013A00096FBF0F308F1010800FB136601E0642EE0
:1013B0000CDB642096FBF0F3303302F8083096FB28
:1013C000F0F308F1010800FB136601E00A2E06DBCA
:1013D00096FBF1F0303002F8080008F1010896FBA6
:1013E000F1F001FB1060303002F80800A16908F14B
:1013F000010808EB050202EB0A00081AA061207838
:10140000C00602D42046FFF749F9216A08AE01EB75
:101410000A00206204E0D4E9012116F8010B90478C
:10142000BAF1010AF7D22078C00602D52046FFF7AC
:1014300035F96E4609E016F8010B3E280FD0D4E9C5
:1014400001219047206A401C2062B8F10108F2D2C5
:101450002046FFF739F909B0032000F00FB8206AE1
:101460002844206203E0D4E90121302090476D1E1A
:10147000EBD3F8E72E5E000002FCFFFF30BCBDE8B6
:10148000C08F10B5436913B1AFF3008001E0FFF7DF
:101490003EF9012010BD127800F124010A700022EB
:1014A0004A700122EDE711684FF0FF32E9E710B50D
:1014B000436913B1AFF3008001E0FFF7C7F90120E2
:1014C00010BD128800F1240182840022C28401220E
:1014D000EDE711684FF0FF32E9E770B516460C46AC
:1014E000054600F045F8036893F80101012806D08D
:1014F000FF2C0FD8185D68B101202C7070BDD3F897
:1015000007013246214603F2071303442846BDE88B
:10151000704018474FF0FF3070BD00000048704722
:101520005C4700207546FFF7F9FFAE4605006946A7
:10153000534620F00700854618B020B5FEF74AFF55
:10154000BDE820404FF000064FF000074FF00008C4
:101550004FF0000B21F00701AC46ACE8C009ACE845
:10156000C009ACE8C009ACE8C0098D46704700006E
:1015700010B500F005F8001D10BD00BFD5580000E3
:10158000004870477C4700202DE9F0411F46044683
:1015900003260168072A01F4006004DB08B116A5E0
:1015A00005E016A503E008B115A500E015A521F09A
:1015B00010002060A069C01EA0610FB1401EA06194
:1015C0002046FFF76BF84FB1D4E901213846904728
:1015D000206A401C2062C01C206206E0206AFAE7F4
:1015E000D4E9012115F8010B9047761EF8D2204668
:1015F000FFF76AF8BDE8F0814E414E006E616E0063
:10160000494E4600696E66002DE9F0478146164650
:101610008AB0354878440DC88DE80D0032487844CA
:10162000801C03AC0DC884E80D0041F69B300844D3
:10163000372190FBF1F290FBF1F5A5F1800501FB5C
:1016400012041B3C02D56442012000E00020DFF8B8
:1016500098A080460027FA44AAF1BE0A0EE0E007EF
:101660000AD03246684607EB470101230AEB8101A5
:1016700000F01EFB8DE8070064107F1C002CEED1EB
:10168000194F7F44AE3F19E0E80715D007EB04106F
:101690000DF1180A90E80E008AE80E00C068F042CA
:1016A00001D1981908903246012306A903A800F039
:1016B000FFFA03AB83E807006D10641C002DE3D133
:1016C0004FF0010332466946B8F1000F03A802D07B
:1016D00000F0D9FA01E000F0EBFAC9E90001C9F81D
:1016E00008200AB0BDE8F087305B000010B5044662
:1016F000AFF300802046BDE81040FEF7E6BD0000D5
:101700004FF0013C50F8042B51F8043B9A4221D190
:10171000A2EB0C03934313EACC1317D150F8042B1C
:1017200051F8043B9A4215D1A2EB0C03934313EA00
:10173000CC130BD150F8042B51F8043B9A4209D139
:10174000A2EB0C03934313EACC13DBD04FF0000061
:10175000704700BFD01A01BAB1FA81F101F0180147
:1017600022FA01F0CB40C1F12001DBB2C0B2C01AB5
:101770002CFA01F3D11A914311EAC311E6D1704753
:1017800001491820ABBEFEE72600020070475FEA61
:10179000400C08BF91F0000F4FEA8C234FEAC122A2
:1017A00043EA51514FEA1C5018BF00F5F0404FEA90
:1017B000300018BF41F000415FEA6C5C00F0298006
:1017C000BCF1FF3F08BF40F080407047130C06BFDC
:1017D00012044FF0100C4FF0000C130E04BF120255
:1017E0000CF1080C130F04BF12010CF1040C930F41
:1017F00004BF92000CF1020CD30F04BF52000CF195
:10180000010C11464FF00002A0F11F00A0EB0C00EC
:10181000704711F0004F08BF704731F000413FF4AE
:10182000D5AF0B0C06BF09044FF0100C4FF0000CA5
:101830000B0E04BF09020CF1080C0B0F04BF0901C9
:101840000CF1040C8B0F04BF89000CF1020CCB0FC0
:1018500004BF49000CF1010CCCF12003A0EB0C00FB
:1018600022FA03F302FA0CF241EA030100F101004B
:10187000704720F07F4C80EA030023F07F47ACEBF9
:10188000070303F57C5300F0004003F1FF032DE94B
:1018900080494FEA154B09B44FEA144325EA0B4E31
:1018A00024EA03480FF2042606EB132749083E7882
:1018B0005FEA320203FB0667C7F5000707FB06F67F
:1018C0004FEA54374FEAD64606F1020607FB066C8C
:1018D000CCF1005C4FEA1C472CEA074C07FB06F4EE
:1018E0000CFB06F504EB15464FEA961634BF0020B4
:1018F0004FF000404FEAD13706FB07FC4FEA1C4C83
:101900000CFB0BF7D21B03FB0CF761EB07010CFB85
:101910000EF7B0EB074072EB17420CFB08F734BF31
:10192000A2EB0742B2EB074261EB17414FEA0C44CE
:101930004FEA910706FB07FC4FEA1C4C0CFB0BF728
:10194000B0EBC74072EB573203FB0CF734BFA2EB8E
:10195000C742B2EBC74261EB57310CFB0EF7B0EB5D
:10196000C70072EB57720CFB08F734BFA2EBC7023B
:10197000B2EBC70261EB5771039F4FEA816141EA05
:10198000921104EBCC044FEAD1374FEA826206FB96
:1019900007FC42EA90124FEA80604FEA1C4C0CFBB5
:1019A0000BF7D21B03FB0CF761EB07010CFB0EF7E7
:1019B000B0EB074072EB17420CFB08F734BFA2EB09
:1019C0000742B2EB074261EB17414FEA8C554FEAF1
:1019D000910704EB9C2406FB07FC4FEA1C4C0CFB14
:1019E0000BF7B0EBC74072EB573203FB0CF734BF79
:1019F000A2EBC742B2EBC74261EB57310CFB0EF7CB
:101A0000B0EBC70072EB57720CFB08F734BFA2EBC8
:101A1000C702B2EBC70261EB577115EB4C254FEAD9
:101A2000816141EA92114FEA82624FEAD13742EA7C
:101A3000901206FB07FC44F100044FEA80604FEA75
:101A40001C4C0CFB0BF7D21B03FB0CF761EB0701E3
:101A50000CFB0EF7B0EB074072EB17420CFB08F7DC
:101A600034BFA2EB0742B2EB074261EB174115EB23
:101A70001C154FEA813141EA92414FEA823242EA33
:101A800090424FEA80304FEA0C7644F1000448EA75
:101A900003434EEA0B484FF0000EB2EB080C71EB1B
:101AA000030724BF624639464EEB0E0E4FF0000B83
:101AB0000018524149414BEB0B0BB2EB080C71EB98
:101AC00003077BF1000B24BF624639464EEB0E0E36
:101AD0004FF0000B0018524149414BEB0B0BB2EB9E
:101AE000080C71EB03077BF1000B24BF62463946FB
:101AF0004EEB0E0E51EA020718BF46F0010616EB38
:101B00000E7655F1000254F1000103D5BDE88901BC
:101B1000BDE80088BDE88901BDE80048B61952411A
:101B200041EB0101A3F10103704780807F7E7D7C42
:101B30007B7A7978777676757473727171706F6E5F
:101B40006E6D6C6C6B6A6A6968686766666564640A
:101B5000636362616160605F5F5E5E5D5D5C5C5B94
:101B60005B5A5A5959585857575656555555545403
:101B7000535352525251515050504F4F4F4E4E4D61
:101B80004D4D4C4C4C4B4B4B4A4A4A4949494848AD
:101B900048474747474646464545454444444443ED
:101BA00043434342424242414141002B9C4630D490
:101BB00077002BD01CB54FEA370703B44FF0100065
:101BC0004FF01001BAF1000F06D0BCF1000FDCBFDE
:101BD00040F0080040F008014FF000000FBCBDE8E5
:101BE00010400BF1010BBBF1010F08BF5FEA1707B3
:101BF00022BF12F1010211F101014FF0004143F146
:101C0000000300F0004043EA00007047F9D3570892
:101C1000D0E746EA064613F1400F4FEA16461FDDAD
:101C200013F1200FDFBF16430A46002120335B4229
:101C3000BED0C3F1200746EA064602FA07F74FEA8C
:101C4000164646EA0706C3F1200722FA03F201FA14
:101C500007F721FA03F14FF0000342EA0702A7E772
:101C600046EA020646EA06464FEA164646EA0106F4
:101C7000BCBF46EA0646360C4FF000034FF00002A8
:101C80004FF0000194E72DE9804C9A46934670B4DA
:101C900091E8380007C831EA400C48BF34EA430CE9
:101CA00003D5FFF7E6FDFFF780FFF0BCBDE8008C31
:101CB0002DE9804C9A46934670B491E8380007C8E5
:101CC00010F0804F08BF13F0804F03D100F005F8EB
:101CD000FFF76BFFF0BCBDE8008C20F07F4780EA87
:101CE000030023F07F4C07EB0C03A3F57C5300F0BB
:101CF0000040A3F1FE0392F0000F00F0B38095F0D6
:101D0000000F00F077802DE901494FEA11404FEABA
:101D1000144621EA004800FB06FC24EA064708FBBB
:101D200006F607FB08F800FB07F718EB06484CEB34
:101D3000164C4FEA124B18EB07484FEA15464CEB8E
:101D4000174022EA0B4E0BFB06FC25EA06470EFB6A
:101D500006F607FB0EFE0BFB07F71EEB064E4CEBE1
:101D6000164C4FF000061EEB074E4CEB174B18EBD2
:101D70000B0840F1000018EB0E0B58EB000840F187
:101D800000008F1A4FF000013CBFC943661B14BF0F
:101D9000B5EB040C00213CBFC943F61B4FEA1744C6
:101DA0004EEA8E0E27EA04454FEA1C4704FB076201
:101DB0002CEA074C05FB07F70CFB05F604FB0CFCB3
:101DC00016EB074642EB174216EB0C4642EB1C4261
:101DD0001BEB060658EB0202414146EA9E0601D57E
:101DE000BDE80189B619524141EB0101A3F101039C
:101DF000BDE801894FEA14454FEA114724EA054638
:101E000021EA074C05FB07F406FB07F70CFB06F17C
:101E100005FB0CFC11EB074144EB17444FEA12475A
:101E200011EB0C4144EB1C4422EA074C05FB07F282
:101E300006FB07F70CFB06F605FB0CFC16EB07464A
:101E400042EB174216EB0C4642EB1C456A1854F164
:101E5000000148BF7047B619524141EB0101A3F19F
:101E60000103704795F0000F37D04FEA11424FEA57
:101E7000144721EA024624EA074C02FB07F106FB5D
:101E800007F70CFB06F402FB0CFC14EB074441EBD8
:101E900017414FEA154714EB0C4441EB1C4125EA6E
:101EA000074C02FB07F506FB07F70CFB06F602FBE7
:101EB0000CFC16EB074645EB174516EB0C4645EBBD
:101EC0001C42121951F1000148BF7047B619524126
:101ED00041EB0101A3F1010370474FEA14454FEABA
:101EE000114724EA054621EA074C05FB07F106FBEA
:101EF00007F70CFB06F24FF0000605FB0CFC12EB9B
:101F0000074241EB174112EB0C4251EB1C4148BF19
:101F10007047921841EB0101A3F10103704710B51E
:101F2000040009D041B10120216004F043FA60604F
:101F300020B10020A06010BD022010BD502080F311
:101F40001188BFF34F8FBFF36F8FFEE730B129B118
:101F5000016000218160416008467047022070479F
:101F600010B504000DD0206858B14FF47A72514377
:101F7000B1FBF2F1406804F0D9FB012803D0012045
:101F800010BD022010BD2068846004F0A3FD6060D5
:101F9000002010BD38B5049C50B1006840B139B183
:101FA00032B12BB10094006801F002FD002800D08E
:101FB000022038BD00280BD00168002908D000227B
:101FC0008A604260006813461146406804F062BAB5
:101FD0007047FEE7014800F084BB0000300300209A
:101FE000014800F07EBB0000E80200207047704707
:101FF0000FB44FF4807110B5C0B043AB6846429A3D
:10200000FEF772FA041E0BDD04F06AFD02280BD104
:102010000948006840B100231A46694604F03AFABC
:1020200040B010BC5DF814FBA2B2642369460348BB
:1020300001F0E2FFF4E700001C000020580200203D
:10204000012000F015BC10B5202000F011FCBDE807
:1020500010404FF4007000F00BBC72B6FEE70000B9
:102060002DE9F84F00270446009790F85000DFF85C
:10207000B0930D46B846012811D0012684F850606F
:10208000206802F015FB60B1606D40F020006065D3
:102090005FF0010784F85080384600F0D7B902207D
:1020A000FBE769680C20052912D8022907D003290B
:1020B00007D0042907D0052907D0062107E068606A
:1020C00006E0122103E0182101E04FF480716960FD
:1020D000D5E90021236800EA91101844036B01F050
:1020E0001F014FF01F0C0CFA01FCC2F3846223EABB
:1020F0000C038A4013430363206802F0D9FA824636
:10210000206802F0D1FA5AEA00001DD1AA682968B5
:10211000206802F0D1FA20686969C268C2F3C1027E
:10212000520091402A69042A0FD000EB82002B68EC
:10213000026EDFF8F0C203F0F84302EA0C020B4330
:102140001A4342F00041016672E0002102F0A6FA53
:10215000400320684FF0000172D002F09FFA90FA1D
:10216000A0F0B0FA80F1286842036ED090FAA0F097
:10217000B0FA80F0814204D100221146206802F0BA
:10218000AAFA0121206802F089FA400320684FF082
:1021900001015DD002F082FA90FAA0F0B0FA80F16D
:1021A0002868420359D090FAA0F0B0FA80F081423A
:1021B00004D100220121206802F08DFA022120685A
:1021C00002F06CFA400320684FF0020148D002F0A0
:1021D00065FA90FAA0F0B0FA80F12868420344D082
:1021E00090FAA0F0B0FA80F0814204D100220221DE
:1021F000206802F070FA0321206802F04FFA4003D1
:1022000020684FF0030133D002F048FA90FAA0F0B2
:10221000B0FA80F1286842032FD090FAA0F0B0FA0B
:1022200080F0814204D100220321206802F053FA99
:102230002068816811F0010F22D0ACE000E004E0DA
:1022400002F02CFAC0F384618DE7C0F3846091E75B
:1022500002F024FAC0F38461A2E7C0F38460A6E729
:1022600002F01CFAC0F38461B7E7C0F38460BBE7F7
:1022700002F014FAC0F38461CCE7C0F38460D0E7C5
:102280002A7B296850F8B03FC1F3120C23EA0C03F3
:1022900002F0180C644A22FA0CF20A40134303605D
:1022A000E968494577D1286841031CD090FAA0F12C
:1022B000B1FA81F1491C01F01F0109294FEA4031AF
:1022C00032D8002912D000BF90FAA0F1B1FA81F102
:1022D00001F1010101F01F0106FA01F609D100BF69
:1022E000C0F3846109E0C0F38461E3E7C0F3846173
:1022F000EEE790FAA0F1B1FA81F101F1010101F0EC
:102300001F0146EA816102D1C0F3846003E090FAC4
:10231000A0F0B0FA80F000F1010000F01F0000EB27
:10232000400041EA005132E000290ED090FAA0F1BD
:10233000B1FA81F101F1010101F01F0106FA01F684
:1023400006D100BFC0F3846106E0C0F38461F1E709
:1023500090FAA0F1B1FA81F101F1010101F01F0140
:1023600046EA816102D1C0F3846003E090FAA0F0F4
:10237000B0FA80F000F1010000F01F002B4A00EBE2
:10238000400002EB005041EA000141F00071AA68F0
:10239000206802F091F926482A6802423FF47AAE9A
:1023A00024488168244D254B01F0E071AA421BD1DD
:1023B0000D0219D422689A427FF46CAE826841F40F
:1023C000000122F0E0720A4382601D481D49006846
:1023D000B0FBF1F0401C00EB4000800000E0401E2C
:1023E00000900028FBD155E6174DAA4207D1CD0138
:1023F00005D422689A42F6D141F080710AE06FF06C
:102400000045EA42EFD14A02EDD422689A42EAD16D
:1024100041F48001826822F0E0720A43826039E66A
:1024200000007F4000F0FF03FFFF0700000020FED8
:102430000000088000030450000052C70000045050
:1024400010000020400D0300000084CB18BCBDE844
:10245000E08F0000F8B54FF0000504002E4600950F
:1024600002D0606D10B107E00120F8BD204600F0F9
:10247000C9F8A66584F8506020688168C1F340718E
:1024800019B18168574A1140816020688168C1F3A1
:10249000007189B98168544A114041F080518160CE
:1024A000524853490068B0FBF1F04000801C00E046
:1024B000401E00900028FBD120688168C1F30071A4
:1024C00041B9616D41F010016165A16D41F00101FB
:1024D000A165012502F0ECF8616DC90600D430B1A8
:1024E000606D40F01000606501252846F8BD606D04
:1024F00020F4807040F0020060652068806810F071
:10250000010F0BD13B48806810F0010F06D13A480B
:102510006168826822F47C120A438260E168606B21
:10252000627E0843A16841EA4231084394F82010D2
:1025300040EA0140012904D1A18C304A02EB41411B
:102540000843A16A29B101F47071E26A014342EAC9
:1025500001002168CA682A4B1A400243CA602068F9
:1025600002F0A6F80646206802F09EF8304315D126
:10257000207E94F83010800340EA41002168CA6848
:1025800044F202039A430243CA6094F838000128D7
:102590000CD02068016921F0010101612069012846
:1025A0002068016B21F00F0111D013E0D4E90F0175
:1025B0000843D4E911121143084321680A6940F223
:1025C000FC739A43104340F001000861E6E7E269BA
:1025D000521E11430163606D20F0020040F00100C3
:1025E000606582E7C0FFFF5FC0FFFF7F1000002033
:1025F000400D030000000450000304500000FEFFE3
:1026000007C0F0FF10B59EB00446142117A8FEF7CE
:102610001BF85C216846FEF717F81C4920688842C1
:1026200032D14FF480400090800314900320019039
:10263000012002900820039007200224CDE9040421
:102640008801CDE90640684600F00EFB08B1FFF7AF
:1026500004FD0F48C16C41F40051C164C16C01F428
:1026600000511C91C16C41F00101C164C06C17A9FB
:1026700000F001001C900B20CDE9174000201990BC
:102680004FF0904000F000F91EB010BD0000045063
:102690000010024010B590F825100024022903D044
:1026A0000421C16301241AE001680A6822F00E02C5
:1026B0000A6001680A6822F001020A6090F844107A
:1026C000036C01F01C02012101FA02F25A6080F849
:1026D0002510002180F82410816B01B18847204625
:1026E00010BDF0B4016C0C6801680D6890F84420CE
:1026F00002F01C06042202FA06F3234211D06B07F3
:102700000FD50B689B0603D40B6823F004030B6002
:1027100090F8441001F01C018A40016C4A60016B82
:102720001DE0022303FA06F727424FF0000C4FF09A
:10273000010218D0AF0716D50C68A40605D40C68A2
:1027400024F00A040C6080F8252090F8441001F071
:102750001C018B40016C4B6080F824C0C16A0029C9
:102760001AD0F0BC08470823B340234214D02B07EB
:1027700012D50B6823F00E030B6090F84410036C25
:1027800001F01C0102FA01F15960C26380F82520B2
:1027900080F824C0416BE2E7F0BC704770B568B1C7
:1027A0002B4C036814212B4AA34209D22A4C1C4407
:1027B000B4FBF1F18900C0E910210BE0012070BDEC
:1027C000234C64421C44B4FBF1F18900416420496C
:1027D00008390164022180F825101C6847F6F07161
:1027E0008C43D0E902152943D0E9045635432943E7
:1027F00085692943C5692943056A2943214319602D
:102800008168B1F5804F19D0036C0F21934202D13A
:1028100052F8A83F02E00E4AA032136890F84440F4
:1028200004F01C04A1408B43136090F844304168CD
:1028300003F01C0399401368194311600021C16320
:10284000012280F8252080F82410084670BD000081
:102850000804024000000240F8FFFDBF012804D038
:10286000B0F5007F03D101F0C7BE01F0A7BE7047ED
:10287000044910B50A68024202D00860FFF7EEFF73
:1028800010BD0000140401402DE9F04FDFF8AC91B9
:1028900000230325A9F1040B85B04FF0010C0F278D
:1028A00009F1040AABF1040EBFE000BF0CFA03F615
:1028B000324075D00C7904F00304012C01D0022CB5
:1028C0001BD1846800945C0005FA04F80494009C11
:1028D00024EA08040094D1F80C80049C08FA04F857
:1028E000009C48EA0408C0F808804468B4430E79A4
:1028F000C6F300169E40264346600C79E443A407C5
:102900000AD0C4684FEA430805FA08F6B4438E6853
:1029100006FA08F62643C6600C7904F00304022C7C
:1029200010D1DC0800EB84040294246A5E074FEAAD
:10293000D66807FA08F6B4430E6906FA08F6264385
:10294000029C266204684FEA430805FA08F6B4437D
:102950000E7906F0030606FA08F6264306604C6870
:1029600014F4403F60D0364C266E46F001062666D1
:10297000246E23F0030604F001040094314C344427
:102980000294A4689E074FEA167807FA08F6B44343
:10299000B0F1904F05D02C4EB04204D1012612E088
:1029A00042E000260FE0294EB04201D102260AE0A3
:1029B000274EB04201D1032605E0264EB04201D198
:1029C000042600E0072606FA08F62643029CA660C5
:1029D000D9F800604C46D1F8048096435FEAC828D5
:1029E00000D516432660DAF800405646D1F8048038
:1029F00094435FEA882800D514433460DBF8004034
:102A00005E46D1F8048094435FEA883800D51443C9
:102A10003460DEF800407646D1F8048094435FEAE3
:102A2000C83800D5144334605B1C0A6832FA03F4DA
:102A30007FF43CAF05B000F00FB80000080401407F
:102A40000010024000000140000400480008004857
:102A5000000C00480010004830BCBDE8C08F0AB12F
:102A6000816170478162704701488068704700004B
:102A70000400002002488168027811448160704798
:102A80000400002010B50024032000F09FF80F2060
:102A900000F008F808B1012401E000F04FF82046EA
:102AA00010BD000030B505461F4887B0816D41F06C
:102AB00020018165806D06A900F02000009001A82A
:102AC00000F0D2FA0498B0B100F0EEFA40001749D5
:102AD000174AB0FBF1F11748491E0260416040F20D
:102AE000E7320021C0E903218160816101F097F89C
:102AF000040003D015E000F0D7FAE8E70D4801F034
:102B0000C1F804000DD1372000F032F8102D07D2A3
:102B100000222946372000F039F80748056000E018
:102B2000012407B0204630BD0010024040420F0093
:102B300000140040CC050020080000200B4882B0A3
:102B4000016E41F001010166016E01F00101009189
:102B5000816D41F080518165806D002200F08050D0
:102B600000900F21901E02B000F010B8001002403B
:102B7000002809DB00F01F0201219140400980007C
:102B800000F1E020C0F8001170470000F0B40E4BD7
:102B90001B680C46C3F30223C3F10705042D00D9BB
:102BA0000425191D072901D2002300E0DB1E0126A0
:102BB00006FA05F1491E214099409E40761E1640B6
:102BC0003143F0BC02F0A8BC0CED00E0064900F077
:102BD000070208684FF6FF03184040EA0220034A44
:102BE00010430860704700000CED00E00000FA059B
:102BF0001649B0F5007F0868C0F3412009D00228CB
:102C000005D0086820F4C06040F4806008600020AF
:102C100070470128FBD0086820F4C06040F40070C1
:102C200008600B483222006850430A4AB0FBF2F0B9
:102C3000401C00E0401E4A69520501D50028F9D128
:102C400048694005E3D5032070470000007000404C
:102C50001000002040420F000248006800F4C060ED
:102C600070470000007000402DE9F84F044600272F
:102C70000088A84D3E46000515D5606C60B1B0F5E2
:102C8000000F04D0B0F5400F2BD001270AE0E86810
:102C900040F48030E86024E00021201D01F0A2FE15
:102CA00007001ED03E46206880033AD5A86D4FF03D
:102CB0000008C00009D4A86D40F08050A865A86D38
:102CC0004FF0010800F080500090DFF84CA2DAF8D5
:102CD000001041F48071CAF80010FFF7C5FE81466C
:102CE00010E0D5F88800616C20F440000843C5F876
:102CF0008800D8E7FFF7B8FEA0EB0900022801D949
:102D0000032705E0DAF80000C005F3D5002F7DD0D9
:102D10004FEA0706B8F1000F03D0A86D20F08050ED
:102D2000A8652078C00707D0D5F88800216A20F070
:102D300003000843C5F888002078800707D5D5F838
:102D40008800616A20F00C000843C5F888002078EC
:102D5000400707D5D5F88800A16A20F03000084365
:102D6000C5F888002078800607D5D5F88800E16A84
:102D700020F440600843C5F888002088800507D506
:102D8000D5F88800E16B20F440200843C5F888009E
:102D90002088400507D5D5F88800216C20F4401024
:102DA0000843C5F888002078400607D5D5F8880084
:102DB000216B20F440500843C5F8880020780006B5
:102DC00007D5D5F88800616B20F440400843C5F86A
:102DD00088002088C00507D5D5F88800A16B20F4AD
:102DE00040300843C5F8880020684FF000670003B2
:102DF0004FF0806850D5D5F88800A16C20F0406075
:102E00000843C5F88800A06CB84200E005E03BD15B
:102E1000E86840F48010E8603EE0D5F8900010F4D7
:102E2000407014D0A16D814211D0D5F89000D5F832
:102E3000901020F4407041F48031C5F89010D5F81E
:102E4000901021F48031C5F89010C5F89000C007AB
:102E500011D0FFF709FE074641F2883907E000BFAD
:102E6000FFF702FEC11B494501D9032652E7D5F8F9
:102E700090008007F4D5D5F89000A16D20F4407043
:102E80000843C5F8900045E7404505D10121201DC4
:102E900001F0A8FD00B106462068400317D5D5F81B
:102EA0008800E16C20F040600843C5F88800E06CC1
:102EB000B84204D1E86840F48010E86007E040457B
:102EC00005D10121201D01F08DFD00B106462088AD
:102ED000400411D5D5F88800216D20F040500843FA
:102EE000C5F88800206DB0F1805F05D10221201D5A
:102EF00001F078FD00B106462088000406D555F89B
:102F0000880F616D20F0804008432860304600F053
:102F100005B80000001002400070004018BCBDE879
:102F2000E08F00002DE9F0470F4605006BD0494EB9
:102F3000306800F00700B84209D2306820F007007E
:102F400038433060306800F00700B8425BD1287821
:102F5000414C80070AD5A868A16801F0F0018842B9
:102F600004D9A16821F0F0010143A1602878C007CD
:102F70002CD06868032811D0022812D0216898B19B
:102F8000490500293FDAA16821F003010143A1604E
:102F9000FFF76AFD804641F2883910E02168890117
:102FA000EFE721688903ECE78907EAE7FFF75CFDB3
:102FB000A0EB0801494502D90320BDE8F087A068CD
:102FC000696800F00C00B0EB810FEFD12878800722
:102FD0000AD5A868A16801F0F001884204D2A1686E
:102FE00021F0F0010143A160306800F00700B84211
:102FF0000BD9306820F0070038433060306800F0AB
:103000000700B84201D00120D7E72878400705D54E
:10301000A068E96820F4E0600843A0602878000711
:1030200006D5A068296920F4605040EAC100A0607C
:1030300000F05EF8A168094AC1F30311515C01F088
:103040001F01C8400649086006480068BDE8F0470F
:10305000FFF728BD0020024000100240986F0008D2
:1030600010000020080000200F2202600C4A936824
:1030700003F003034360936803F0F00383609368F5
:1030800003F4E063C36092684FF4E06303EAD202A2
:1030900002610448006800F0070008607047000003
:1030A0000010024000200240054806490068896877
:1030B000054AC1F30221515C01F01F01C84070476D
:1030C0001000002000100240D86F00080548064993
:1030D00000688968054AC1F3C221515C01F01F01F3
:1030E000C84070471000002000100240D86F000850
:1030F00070B52549002318468A68CC6812F00C0286
:1031000004F00306214C4FEA640509D00C2A05D0CF
:10311000042A32D0082A00D1284670BD012E10D1D1
:103120000B681B0704D4D1F89430C3F3032302E0E7
:103130000B68C3F30313164E56F82330DAB10C2A8A
:10314000EBD1C86800F00300022818D0032818D07B
:103150001846CA68CB68C2F30212C3F3062343437E
:10316000521CB3FBF2F2C868C0F34160401C40003F
:10317000B2FBF0F070BD184670BD204670BD204611
:10318000E7E72846E5E70000001002400024F400CD
:10319000A86F00082DE9F84304006FD0FA4DA86825
:1031A00000F00C06E86800F003072078C00664D53C
:1031B00076B10C2E01D1012F0AD0A0690028286811
:1031C0007AD040F001002860FFF74EFC80465DE0B9
:1031D0002868800702D5A0690028DED0216A286807
:1031E000000703D5286800F0F00004E0D5F894004B
:1031F000F02202EA1010814216D9084601F088FC3C
:1032000000283BD1286840F0080028602868216A1F
:1032100020F0F000084328606868E16920F47F40EE
:1032200040EA0120686016E0286840F00800286045
:103230002868216A20F0F000084328606868E16986
:1032400020F47F4040EA0120686026B9206A01F03E
:103250005FFC0028D5D1FFF74BFFA968CB4AC1F32B
:103260000311515C01F01F01C840C9490860C948F9
:103270000068FFF717FC00287ED12EE0CAE000BFEF
:10328000FFF7F2FBA0EB0800022876D82868800739
:10329000F6D5286840F0080028602868216A20F0E8
:1032A000F000084328606868E16920F47F4040EA44
:1032B0000120686011E0FFE720F001002860FFF7BF
:1032C000D3FB804606E000BFFFF7CEFBA0EB080073
:1032D0000228DAD828688007F6D42078C00740D0C2
:1032E000082E18D00C2E01D1032F14D06068B0F531
:1032F000803F17D0B0F5A02F286817D020F4803079
:103300002860286820F4802028606068E0B1FFF71A
:10331000ABFB804614E02868800322D56068002853
:1033200078D01EE0286840F48030EDE740F480203B
:103330002860F7E7FFF798FBA0EB08006428A4D803
:1033400028688003F6D50CE0FFF78EFB804605E089
:10335000FFF78AFBA0EB0800642896D82868800352
:10336000F6D4207880073BD5042E11D00C2E01D145
:10337000022F0DD0E06801E0AAE1FFE000282868F4
:103380001ED040F480702860FFF76EFB07460CE00B
:10339000286840050CD5E0680028C1D008E000BFCF
:1033A000FFF762FBC01B022893D828684005F7D5B9
:1033B0006868217C20F0F85040EA016068600FE006
:1033C00020F480702860FFF74FFB074605E000BF40
:1033D000FFF74AFBC01B0228B1D828684005F7D484
:1033E0002078000729D560690028D5F8940012D00C
:1033F00040F00100C5F89400FFF736FB074604E0F3
:10340000FFF732FBC01B022899D8D5F8940080073B
:10341000F6D512E02BE120F00100C5F89400FFF78B
:1034200023FB074605E000BFFFF71EFBC01B022879
:1034300085D8D5F894008007F6D42078400766D563
:10344000A86D0027C00008D4A86D40F08050A86582
:10345000A86D012700F0805000904F480168C90511
:1034600012D40168814641F480710160FFF7FCFAD3
:10347000804605E0FFF7F8FAA0EB080002287DD8A7
:10348000D9F80000C005F5D5A068012816D0052898
:10349000D5F8900017D020F00100C5F89000D5F8BD
:1034A000900020F0040000BFC5F89000A06841F231
:1034B0008839C0B1FFF7D8FA80460FE0D5F8900000
:1034C00040F00100F0E740F00400C5F89000F5E797
:1034D000FFF7CAFAA0EB080149454FD8D5F890008C
:1034E0008007F5D50EE0FFF7BFFA804606E000BF83
:1034F000FFF7BAFAA0EB080149453FD8D5F890008C
:103500008007F5D41FB1A86D20F08050A865207801
:10351000800628D5606A0028D5F8980012D040F0BF
:103520000100C5F89800FFF79FFA074605E000BFC5
:10353000FFF79AFAC01B022820D8D5F89800800718
:10354000F6D510E020F00100C5F89800FFF78CFADE
:10355000074604E0FFF788FAC01B02280ED8D5F80A
:1035600098008007F6D4A06AF0B3022816D00C2E7B
:103570007DD0286820F08070286000E0A7E0FFF789
:1035800073FA0446A6E0000000100240986F00089D
:10359000100000200800002000700040E868E26A87
:1035A00000F00301914228D1216B00F07002090163
:1035B0001039914221D1626B00F4FE41B1EB022F30
:1035C0001BD194F8382000F07841B1EBC26F14D1D0
:1035D000A18F00F4C00249084905A1F500119142EC
:1035E0000BD194F8401000E06AE04908490600F069
:1035F000C060A1F1007181424BD00C2E73D02868BD
:10360000400170D4286820F080702860FFF72CFA01
:10361000064604E0FFF728FA801B022857D82868DE
:103620008001F7D4F4E90B016FF00F0202EB0111F6
:103630000843218A5204490802EB4151A26841EA39
:1036400002210843217D4FF07E42490802EB41618F
:103650000843217B40EAC160E968244A11400843DD
:10366000E860286840F080702860E86800E03AE090
:1036700040F08070E860FFF7F7F9044605E000BF0E
:10368000FFF7F2F9001B022821D828688001F7D53E
:1036900027E02868800124D4286840F080702860E2
:1036A000E86840F08070E860FFF7DEF9044604E067
:1036B000FFF7DAF9001B022809D828688001F7D53E
:1036C0000FE000BFFFF7D0F9001B022802D903204A
:1036D000BDE8F88328688001F4D4E868044908400C
:1036E000E8600020F4E70120F2E700008C809D01F3
:1036F000FCFFEEFE7047000038B5016804464A68DA
:103700008868C043430606D5C30704D1D3435B068C
:1037100001D4E16C05E0830708D4D3431B0605D42C
:10372000216D01B02046BDE830400847830603D52F
:10373000430601D5C30551D4D3439B064ED443065B
:103740000AD494F85D30032B49D0236E43F0040370
:103750002366CB688B680093830609D4236E43F0FD
:10376000010323668B6800930B6823F040030B6012
:10377000C00506D4206E40F00800206620688068EE
:103780000090206E002829D02068416821F0E001D7
:103790004160012084F85D00900701D4D00722D059
:1037A0002068416821F003014160114DA06D40B1D6
:1037B0008563A06DFEF76EFF18B1206E40F04000EB
:1037C0002066606D002809D08563606DFEF762FF9A
:1037D000002803D0206E40F04000206638BDC86845
:1037E0008868009038BD2046FFF784FF38BD000090
:1037F000994B000870B5040009D0606A002540B1FB
:1038000025616561A56294F85D0040B10CE001207E
:1038100070BD6068B0F5827FF4D0E561F2E784F8AE
:103820005C50204600F056F8022084F85D002068C5
:10383000016821F040010160E1684FF4E0629142CB
:1038400001D9002001E04FF48050B1F5706F02D033
:10385000914200D0A562A188228901F4827102F40C
:1038600004421143227C02F002021143227D02F045
:1038700001021143228B02F400721143227F02F0F5
:103880003802114394F8202002F080021143228D67
:1038900002F40052114322681160A169042202EA75
:1038A000114194F8242000F4805002F010021143DA
:1038B00094F8342002F008021143A28902F47062E5
:1038C00011430143206841602566012084F85D00B2
:1038D000002070BD2DE9F04186B0064614216846EF
:1038E000FCF7B2FE2C493068884251D12B48016E5A
:1038F00041F480510166016E01F480510591C16C63
:1039000041F00201C164C06C002400F00200059087
:10391000382000900220CDE9010403200390052007
:10392000049069461E48FEF7AFFF1F4D1D48012752
:10393000E5E8020710204FF08008A5E811011A48B9
:1039400045F81449AC61EC612C62FEF727FF08B121
:10395000FEF783FB7565AE621248144D143828607B
:10396000C5E90174C5E903486C61AC61EC612846A6
:103970002C62FEF713FF08B1FEF76FFBB56500225E
:1039800005212320AE62FFF701F92320FFF7F0F8AD
:1039900006B0BDE8F0810000003001400010024098
:1039A0000004004830000240E802002030030020FC
:1039B0002DE9F05F044690F85C0000270A9E1D4642
:1039C00092468B464FF0010901280ED0012084F861
:1039D0005C00FFF749F8804694F85D0061680128B3
:1039E0000CD0B1F5827F07D102E0022000F011B9BE
:1039F000A16809B9042801D0022700E1BBF1000F3A
:103A000024D0BAF1000F21D005B394F85D0004284A
:103A100002D0052084F85D0000202066C4F840A094
:103A2000A4F84650A4F84450C4F838B0E587A587F8
:103A3000E0642065E0684FF4E061884201D8012D20
:103A400006D92068426822F4805205E00127D6E0BA
:103A50002068426842F48052426020680268520640
:103A600003D4026842F040020260E0688842606865
:103A700045D908B1012D3AD1A06B21680088C860F2
:103A8000A06B801CA063E08F401EE0872FE02068C1
:103A9000816889070FD5E18F69B1B9F1010F0AD1AA
:103AA000A16B0988C160A06B801CA063E08F401EE1
:103AB000E0874FF0000920688168C9070FD0B4F88B
:103AC000461061B1C068216C0880206C801C2064A5
:103AD000B4F84600401EA4F846004FF00109FEF776
:103AE000C3FFA0EB0800B04201D3701C75D1E08F7A
:103AF0000028CCD1B4F846000028C8D176E008B13F
:103B0000012D6CD1E08F0128A06B08D921680088B5
:103B1000C860A06B801CA063E08F801E07E0216856
:103B200000780873A06B401CA063E08F401EE08704
:103B300055E02068816889071AD5E18FC1B1B9F1D4
:103B4000010F15D1E18F0129A16B07D90988C16047
:103B5000A06B801CA063E08F801E06E009780173D3
:103B6000A06B401CA063E08F401EE0874FF000096F
:103B700020688168C90728D0B4F8461029B3B4F882
:103B80004610012914D9C068216C0880206C801C63
:103B90002064B4F84600801EA4F84600B4F846003D
:103BA000012810D82068416841F4805141600AE042
:103BB000007B216C0870206C401C2064B4F8460027
:103BC000401EA4F846004FF00109FEF74DFFA0EBA0
:103BD0000800B04202D3701C01D018E0BEB1E08FE3
:103BE0000028A6D1B4F846000028A2D142463146AA
:103BF000204600F0DAFF10B10127202020660120C6
:103C000084F85D00002084F85C003846EEE6032767
:103C1000F5E730BCBDE8C09F70477047704710B5EE
:103C2000040003D094F83D0010B107E0012010BD5E
:103C3000002084F83C00204600F022F8022084F89E
:103C40003D00211D206801F001FA012084F84800A0
:103C500084F83E0084F83F0084F8400084F8410076
:103C600084F8420084F8430084F8440084F8450056
:103C700084F8460084F8470084F83D00002010BD19
:103C80007047000090F83D10012901D001207047D5
:103C9000022180F83D100168CA6842F00102CA6042
:103CA00000680B49884205D0B0F1804F02D0094925
:103CB000884207D18168084A1140062906D0B1F52B
:103CC000803F03D0016841F001010160002070478E
:103CD000002C01400040014007000100704770B512
:103CE0000446006801694FF00005C943890715D4EF
:103CF000C168C943890711D4E91E016101202077F9
:103D0000206880698007204602D0FFF7E7FF04E0C3
:103D100000F0A7F8204600F0A5F825772068016993
:103D2000C943490717D4C168C943490713D46FF081
:103D300004010161022020772068806910F4407F2F
:103D4000204602D0FFF7CAFF04E000F08AF82046C0
:103D500000F088F8257720680169C943090716D45F
:103D6000C168C943090712D46FF00801016104203A
:103D700020772068C0698007204602D0FFF7AEFF99
:103D800004E000F06EF8204600F06CF8257720681B
:103D90000169C943C90617D4C168C943C90613D408
:103DA0006FF010010161082020772068C06910F4CD
:103DB000407F204602D0FFF791FF04E000F051F869
:103DC000204600F04FF8257720680169C943C907EC
:103DD00008D1C168C943C90704D1891E01612046C1
:103DE00000F042F820680169C943090609D4C16896
:103DF000C943090605D46FF0800101612046FFF731
:103E00000CFF20680169C943C90509D4C168C943C9
:103E1000090605D46FF4807101612046FFF7FCFEAE
:103E200020680169C943490609D4C168C9434906E4
:103E300005D46FF040010161204600F01FF82068B2
:103E40000169C94389060BD4C168C943890607D4EF
:103E50006FF0200101612046BDE87040FFF7DEBE33
:103E600070BD70477047000000680349884201D167
:103E7000FEF700BE7047000000140040704710B508
:103E8000040002D0A06F10B107E0012010BD002097
:103E900084F87400204600F025F82420A0672068EC
:103EA000016821F001010160204601F097F9012825
:103EB000ECD0606A10B1204601F0FEF8206841683D
:103EC00021F4904141602068816821F02A018160DD
:103ED0002068016841F0010101602046BDE8104002
:103EE00001F04EB92DE9F0439DB00446142117A806
:103EF000FCF7AAFB5C216846FCF7A6FB3949206861
:103F0000394C0326072700254FF090494FF002084F
:103F100088421BD10120009008956846FEF7A4FE58
:103F200008B1FEF79AF8206E40F480402066206EBB
:103F300000F480401C90E06C40F00100E064E06C14
:103F400000F001001C904FF4C0601CE0274988423B
:103F500025D16846CDF800800995FEF785FE08B1A9
:103F6000FEF77BF8A06D40F40030A065A06D00F472
:103F700000301C90E06C40F00100E064E06C00F068
:103F800001001C900C20CDE9170817A9484619AA72
:103F900082E8E000FEF778FC1DB0BDE8F08314492C
:103FA0008842F9D104200A9500906846FEF75CFE2D
:103FB00008B1FEF752F8A06D40F48020A065A06D16
:103FC00000F480201C90E06C40F00200E064E06CA3
:103FD00017A900F002001C904FF44060CDE91708CB
:103FE0000448D4E70038014000100240004400407B
:103FF00000480040000400482DE9F8430446806F63
:104000001F4616460D4620284FD1CDB1C6B194F8B3
:104010007400012849D0012084F874004FF0000892
:10402000C4F880802120A067FEF71EFDA4F8506030
:104030008146A4F85260A068B0F5805F03D004E028
:104040000120BDE8F883206928B12E465FF0000505
:1040500084F8748010E00026FAE78021204601F001
:10406000BDF9B8B9C6B116F8010B21680885B4F8D6
:104070005200401EA4F85200B4F852004B464FF0D4
:10408000000200970028E8D14FF04001204601F0DF
:10409000A5F930B10320D4E735F8020BC0F30800CE
:1040A000E3E72020A0670020CBE70220C9E7FEE776
:1040B000018940680122FEF7D2BC018940680022D4
:1040C000FEF7CDBC70B50D4614460646002101F042
:1040D0001CFE04F00F0040EA4510C2B250213046E9
:1040E00001F03CFE002805D13574B474304601F06F
:1040F0001DFE002070BD70B50D4614460646002119
:1041000001F003FE04F00F0040EA4510C2B24F2157
:10411000304601F023FE002805D17574F474304652
:1041200001F004FE002070BD2DE9F0411E46174647
:104130000D46040023D0002D21D02FA0FDF758FFFD
:10414000C4E9005726816420E060002020772046E3
:10415000FFF7AEFF0A2001F04FFA204600F048F9C1
:1041600001462EA0FDF744FF204600F06FF9050040
:1041700007D036A0FDF73CFF2846BDE8F0810120BE
:10418000FBE7204600F034F906460246691C39A0D8
:10419000FDF72EFF422E0CD00A2001F02DFA6D1CE7
:1041A000032DEEDB422231463E48FDF721FF04207D
:1041B000E3E731463CA0FDF71BFF1B2214212046FC
:1041C00001F0CCFD082202212046FFF77BFF0822E8
:1041D00002212046FFF78FFF0321204600F019F946
:1041E0000321204600F023F9012001F005FA3948A7
:1041F000FDF7FEFE0020C0E75B494E464F5D205BA9
:1042000049434D34323630355D20496E69746961F9
:104210006C697A696E672E2E2E0D0A005B494E4638
:104220004F5D205B49434D34323630355D2050724E
:10423000652D72657365742057484F5F414D5F4926
:10424000203D203078253032580D0A005B4552520F
:104250004F525D205B49434D34323630355D20533B
:104260006F66742D7265736574204641494C4544F0
:104270000D0A00005B494E464F5D205B49434D34BB
:10428000323630355D2057484F5F414D5F492061E0
:104290007474656D70742025643A2030782530324E
:1042A000580D0A005C7200085B494E464F5D205B6A
:1042B00049434D34323630355D2057484F5F414DCC
:1042C0005F49203D2030782530325820284F4B2937
:1042D0000D0A0000A07200082DE9FF410C46050000
:1042E0007ED0002C7CD0002101F00FFD0E236A4609
:1042F0001D21284601F0D3FC002870D1BDF8000034
:1043000040BA07B2A781BDF8020040BA06B22680C3
:10431000BDF8040000EE106A40BA03B26380BDF835
:104320000600B8EEC00A40BA02B2A280BDF808008A
:1043300040BA01B2E180BDF80A0040BA00B2208163
:10434000BDF80CC09CFA9CFC0FFA8CFCA4F80AC0C7
:10435000D5ED050A80EE201A00EE103AB8EEC00A3C
:1043600084ED041AD5ED050A80EE201A00EE102A1D
:10437000B8EEC00A84ED051AD5ED050A80EE201AC4
:1043800000EE101AB8EEC00A84ED061AD5ED060A42
:1043900080EE201A00EE100A0020B8EEC00A84ED6C
:1043A000071AD5ED060A80EE201A00EE10CAB8EE04
:1043B000C00A84ED081AD5ED060A80EE201A00EE38
:1043C000107AF8EEC00A84ED091A9FED081A80EE03
:1043D000810AF3EE090A30EE200A84ED0A0A00E0B1
:1043E00002E004B0BDE8F0810120F8E7E17A04437F
:1043F00038B5044600208DF800000146204601F043
:1044000084FC6A467521204601F01EFC9DF80000E0
:1044100038BD70B50C460546002101F076FC2346F8
:104420002846BDE8704003224E2101F0F7BB70B56D
:104430000C460546002101F068FCA006030E284644
:10444000BDE870400C224E2101F0E8BB10B50446D7
:10445000002101F05AFC01221121204601F07EFCCE
:10446000002804D10A2001F0C7F80020207710BDF1
:1044700010B588B01CA0FDF7BBFD244C01228021A3
:104480002046FEF7ECFA22492248FDF75FFD22A004
:10449000FDF7AEFD1F4980232246A1F12800FFF75A
:1044A00043FE010004D02A48FDF7A2FD08B010BD6C
:1044B000184800222749283800F0BCF826A0FDF74C
:1044C00097FD1C222F496846FCF78CF800216846AE
:1044D00001F09EF82C49086018B12C48FDF788FDC2
:1044E000E4E72BA0FAE700005B494E464F5D205BF6
:1044F000494D555F5441534B5D20496E6974696164
:104500006C697A696E672E2E2E0D0A000004004831
:10451000DC0200204C0600205B494E464F5D205BCC
:10452000494D555F5441534B5D20535049204861DC
:104530006E646C6520696E697469616C697A656422
:10454000202873686172656420627573290D0A0002
:1045500008720008F95A00085B494E464F5D205B1F
:10456000494D555F5441534B5D20494D552053658E
:10457000727669636520696E697469616C697A65D0
:10458000640D0A00FC6F000818000020BC710008D0
:104590005B4552524F525D205B494D555F5441532C
:1045A0004B5D204661696C656420746F20637265A1
:1045B000617465207461736B210D0A001CB50C4891
:1045C0000068002813D00021019101A90122009167
:1045D0000023114602F0FCF90198002807D0054994
:1045E0004FF080500860BFF34F8FBFF36F8F1CBD3B
:1045F0001800002004ED00E01CB50C4800680028FD
:1046000013D00021019101A9009100230122022170
:1046100002F0DEF90198002807D005494FF08050DC
:104620000860BFF34F8FBFF36F8F1CBD18000020D1
:1046300004ED00E070B515460E46040012D00AA045
:10464000FDF7D6FC4FF4CA711248FBF7FDFF114B82
:1046500000209D60C3E9004618730F48FDF7C8FCB1
:10466000002070BD012070BD5B494E464F5D205B50
:10467000494D555F5356435D20496E697469616CBD
:10468000697A696E6720736572766963652E2E2E6E
:104690000D0A000058060020F472000800EB8100AB
:1046A000006E00F0F84070478068C0F3C0007047AB
:1046B0008068C0F380007047042303EAD15310B52B
:1046C00018444369C1F3045107248C40A3438A4032
:1046D0001343436110BD00EB8100016E21F00041E6
:1046E000114301667047000010B54FF4807488B024
:1046F00000222146142001F068FE0A4900280860C3
:104700000DD01C2208496846FBF76CFF0021684663
:1047100000F07EFF1422214604A0FDF769FC08B0DA
:1047200010BD00001C000020487000085B494E4688
:104730004F5D205461736B2D4261736564204C6F33
:104740006767696E6720496E697469616C697A652B
:104750006420284275663A2025642C205175653AFC
:10476000202564290D0A000030B587B0182168465D
:10477000FBF76AFF184817490024C0E90014846059
:104780000425C460C0E90445047644760121C16172
:1047900080F820408462C46280F83040446380F82E
:1047A0003840FDF757FE08B172B6FEE70B4800909F
:1047B0000620CDE901047F200594CDE90305694673
:1047C0000548FDF74DFC002801D072B6FEE707B0A2
:1047D00030BD000000000450880000204000201977
:1047E0002DE9F04186B014216846FBF72DFF3C48C7
:1047F000C16C41F00401C164C16C01F00401059178
:10480000C16C41F08001C164C16C01F0800105916F
:10481000C16C41F00101C164C16C01F0010105915D
:10482000C16C41F00201C164C06C2E4E00F0020068
:104830004FF4C0440590002221463046FEF70FF9A0
:104840004FF090470022D0213846FEF708F9DFF8F4
:1048500098800122C0214046FEF701F90125CDE9EB
:10486000004500240294694630460394FEF70CF894
:1048700021204FF48816CDE9000669460294384697
:10488000FEF702F8D0200090CDE901546946384681
:104890000394FDF7F9FFC020CDE900050320CDE921
:1048A000024069464046FDF7EFFF6802CDE9000689
:1048B000694602944046FDF7E7FF002205210620E5
:1048C000FEF764F90620FEF753F9002205211720B0
:1048D000FEF75CF91720FEF74BF906B0BDE8F08152
:1048E000001002400008004800040048114810B5BC
:1048F0000F4901604FF48271416000214FF4E06282
:10490000C0E902124FF400720161C0E905122022D1
:10491000C0E9072107224162C0E90A12016341632D
:10492000FEF768FF002801D072B6FEE710BD000058
:1049300000300140EC0000200C4810B50A4901602D
:104940004FF4E1314160002181600C22C160C0E977
:1049500004128161C16101624162FFF790FA00288F
:1049600001D072B6FEE710BD0038014050010020B2
:104970000C4810B50A4901604FF4E1314160002153
:1049800081600C22C160C0E904128161C1610162D1
:104990004162FFF774FA002801D072B6FEE710BD3D
:1049A00000440040D40100200C4810B50A490160C1
:1049B0004FF4E1314160002181600C22C160C0E907
:1049C00004128161C16101624162FFF758FA002857
:1049D00001D072B6FEE710BD00480040580200202A
:1049E000FEE7FEE72DE9F041444C05468846E068C5
:1049F0000026810728680DD0E16801F0030181429B
:104A000016D1A8B1E0686968C0F30210401C884262
:104A10000ED120E0012804D0022805D0032807D1B8
:104A200008E02168890701E021684905002907DBC2
:104A300001265FE02168890302D421684903F5E774
:104A4000E1686A686FF00F0321F0730103EB021253
:104A500011430143E160206820F080602060FEF790
:104A600003F8074605E000BFFDF7FEFFC01B022864
:104A700037D820680001F7D4B8F1000F18D0B8F18A
:104A8000010F1DD0287D4FF07E41400801EB4060B2
:104A9000A96840EA01202169194A114008432061B0
:104AA000206840F080602060FDF7DEFF07461AE0D6
:104AB000A868297B000240EAC1602169114AECE73D
:104AC000288A1149400801EB4050A96840EA0120BA
:104AD00021690E4AE1E700BFFDF7C6FFC01B0228AF
:104AE00001D9032606E020680001F5D52069A969EF
:104AF000084320613046BDE8F0810000001002400C
:104B0000FF80FFF9FF80FF070000E0FFFF809FFFAD
:104B1000F8B51C4D06460024A86DC00002D5FEF76E
:104B20009BF80DE0A86D40F08050A865A86D00F0DE
:104B300080500090FEF790F8A96D21F08051A96592
:104B4000B0F5007F04D0802E07D94FF003040AE0AF
:104B5000802E08D9A02E01D804E001D1022402E061
:104B6000702E00D101240848016821F0070121437B
:104B70000160006800F00700A04201D00120F8BDEC
:104B80000020F8BD00100240002002400148FEF75E
:104B9000B3BD0000EC00002010B5806A0021A0F831
:104BA0004610C187FEF7A6FD10BDF8B515460E46A6
:104BB0000B460092044600224FF4C05100F01AF850
:104BC00088B93346002280212046009500F086F8FF
:104BD00048B9334600224FF4C0612046009500F0EA
:104BE00009F8002804D0206E40F020002066032041
:104BF000F8BD00002DE9FE4F4FF0000A9846174619
:104C00000E4604460C9D8DF804A0FDF72DFF411BB8
:104C1000A8EB0105FDF728FF814620684FF4C06B23
:104C20000C3002902A480068C0EBC00000EB800006
:104C3000000D6843009043E05E4506D12FB902980D
:104C400000788DF804009DF80400B8F1FF3F37D0DC
:104C5000FDF70AFFA0EB0900A84203D215B10098A6
:104C600058B32BE02068416821F0E00141606068A2
:104C7000B0F5827F0BD1A068B0F5004F02D0B0F53F
:104C8000806F04D12068016821F040010160A06AB2
:104C9000B0F5005F09D12068016821F4005101607E
:104CA0002068016841F400510160012084F85D0032
:104CB00084F85CA0032000F00DB80025401E009091
:104CC000206880683040B842B6D10020F3E7000089
:104CD000100000201EBCBDE8E08F00002DE9F84365
:104CE0001E46914688460446089DFDF7BDFE401BC2
:104CF000351AFDF7B9FE074625480068C0F3CB30EA
:104D0000684338E0701C37D0FDF7AEFEC01BA842E8
:104D100003D215B1009860B32CE02068416821F0FF
:104D2000E00141606068B0F5827F0BD1A068B0F50A
:104D3000004F02D0B0F5806F04D12068016821F0E7
:104D400040010160A06AB0F5005F09D120680168E8
:104D500021F4005101602068016841F400510160B4
:104D6000012084F85D00002084F85C000320BDE889
:104D7000F8830025401E00902068816838EA010011
:104D800004D000214945BDD10020F0E70121F9E719
:104D900010000020012000F02FFCFBE790B026A0BF
:104DA000FDF726F94FF4FA7804A93248FFF794FA90
:104DB000010006D030A0FDF71BF9404600F01CFCB6
:104DC000F2E70A9802F060F806460F46099802F0EA
:104DD0005BF804460D46089802F056F88DE8F0009E
:104DE00041EC100B31A053EC102BFDF701F90D989D
:104DF00002F04AF806460F460C9802F045F80446C1
:104E00000D460B9802F040F88DE8F00041EC100BD5
:104E100033A053EC102BFDF7EBF80E9802F034F8AA
:104E200041EC100B3BA053EC102BFDF7E1F842A036
:104E3000FDF7DEF8C1E700005B494E464F5D205BA1
:104E4000494D555F5441534B5D205461736B207342
:104E500074617274656420E28094205068617365A7
:104E600020313A20506F6C6C696E672074657374E2
:104E70000D0A0000240600205B4552524F525D206F
:104E80005B494D555F5441534B5D20526561644110
:104E90006C6C44617461204641494C45442028654E
:104EA00072723D2564290D0A000000005B494E46E0
:104EB0004F5D205B494D555F5441534B5D2041632D
:104EC00063656C3A20583D252E32666720593D2592
:104ED0002E326667205A3D252E3266670D0A000085
:104EE0005B494E464F5D205B494D555F5441534BE6
:104EF0005D204779726F3A2020583D252E3166207B
:104F0000593D252E3166205A3D252E31662064708C
:104F1000730D0A005B494E464F5D205B494D555F5E
:104F20005441534B5D2054656D703A2020252E313D
:104F30006620430D0A0000005B494E464F5D205B32
:104F4000494D555F5441534B5D202D2D2D0D0A00C9
:104F50000B4CC0B04FF0FF354FF47A762A466946C5
:104F6000206801F047FB0128F8D16846FBF7D6FA24
:104F700082B2334669460348FFF73EF8EEE7000089
:104F80001C000020580200204FF47A74204600F0E4
:104F900033FBFBE710B5502080F31188BFF34F8F30
:104FA000BFF36F8F01F0AAFD18B104494FF0805094
:104FB0000860002080F3118810BD000004ED00E0BF
:104FC00010B596B044216846FBF73EFB142111A8AA
:104FD000FBF73AFB4FF40070FDF70AFE08B172B61A
:104FE000FEE701210804CDE90010022003240A9005
:104FF000CDE90B4114210D910721CDE90E10109040
:105000006846FEF7C7F808B172B6FEE70F20CDE993
:1050100011040020139014901590042111A8FDF79D
:1050200081FF002801D072B6FEE716B010BD000067
:105030000248016841F470010160704788ED00E0AA
:105040000148FEF74CBE0000CC05002070B5026898
:10505000164B4FF08046984201D0B04203D122F067
:1050600070044A682243124C124D984205D0B04257
:1050700003D0A04201D0A84203D122F44076CA68EE
:1050800032434E6922F08002324302608A68C26273
:105090000A688262984203D0A04201D0A84201D19E
:1050A000096901630121416170BD0000002C0140CC
:1050B000004001400044014090F82410C90706D088
:1050C00001684A68836A22F400321A434A6090F801
:1050D0002410890706D501684A68C36A22F4803221
:1050E0001A434A6090F82410490706D501684A68B7
:1050F000036B22F480221A434A6090F824100907B7
:1051000006D501684A68436B22F400421A434A609C
:1051100090F82410C90606D501688A68836B22F4CA
:1051200080521A438A6090F82410890606D50168D7
:105130008A68C36B22F400521A438A6090F82410E4
:10514000490611D501684A68036C22F480121A439B
:105150004A60016CB1F5801F06D101684A68436C52
:1051600022F4C0021A434A6090F82410090606D5BA
:1051700001684A68806C22F4002202434A6070474A
:10518000F8B500260446C0F88060FDF76DFC0546C2
:10519000206800686FF07E47000708D52B46002284
:1051A0004FF400112046009700F018F960B920680C
:1051B000006840070AD52B4600224FF480012046A4
:1051C000009700F00BF908B10320F8BD2020A0677C
:1051D000E067266684F874600020F8BD2DE9F04190
:1051E0000446016880682269E3691043626900250A
:1051F0001A431043714F0A68714B1A4002430A6008
:1052000020684168E26821F44051114341602168FF
:10521000A069B94201D0226A10438A6822F4306240
:1052200002438A606749236867488B420DD1D0F8F2
:10523000880010F0030006D0012847D0022843D090
:10524000032830D144E001212EE060498B420BD18C
:10525000D0F8880010F00C0034D0042836D008288C
:1052600032D00C281FD133E059498B420BD1D0F8F2
:10527000880010F0300025D0102827D0202823D017
:10528000302810D124E0BB420DD1D0F8880010F4B2
:10529000406017D0B0F5806F18D0B0F5006F13D014
:1052A000B0F5406F14D010214A4A00264FF4004058
:1052B000BB422FD171B102290FD004290FD0082988
:1052C00073D10FE00021EFE70221EDE70421EBE7C6
:1052D0000821E9E7FDF7E8FE03E0104602E0FDF7EC
:1052E00007FFE8B3626802EB420181425DD8B0EB90
:1052F000023F5AD8010E03025008181871410023CA
:10530000FBF77AF8344AA0F5407191424DD82168F4
:10531000C8604BE0E3694FF6EF77834228D1092953
:1053200043D2DFE801F005080B420D424242100073
:10533000FDF7BAFE06E0FDF7C9FE03E0104602E005
:10534000FDF7D6FE60B14100606801EB5001B1FB92
:10535000F0F0A0F11001B94227D84FF6F07100E04B
:1053600024E00140C0F3420001432068C1601DE019
:1053700009291AD2DFE801F005080B190D191919CE
:105380001000FDF791FE06E0FDF7A0FE03E01046D9
:1053900002E0FDF7ADFE48B1616800EB5100B0FBE3
:1053A000F1F0A0F11001B94205D901256666284641
:1053B000A666BDE8F08180B2A9E700000080004049
:1053C000F369FFEF00380140001002400044004044
:1053D000004800400024F400FFFC0F002DE9F047D6
:1053E0009A4617460E4604464FF000094FF0200833
:1053F000089D4AE0681C48D0FDF736FBA0EB0A0088
:10540000A8422AD84DB32068016849073DD5C06934
:10541000C043000539D421684FF400600862206859
:1054200050E8001F21F4D07140E80012002AF6D1A4
:105430002068083050E8001F21F0010140E8001208
:10544000002AF5D1C4F87880C4F87C80C4F8808044
:1054500084F874900320BDE8F087216851E8000FBC
:1054600020F4D07041E80002002AF6D1206808300C
:1054700050E8001F21F0010140E80012002AF5D198
:10548000C4F87880C4F87C80E2E72068C06936EA16
:10549000000004D00020B842ACD00020DBE701209F
:1054A000F9E7FEE700B587B0012240210948FDF782
:1054B000D6FA09490948FCF749FD1C220849684603
:1054C000FBF790F80021684600F0A2F80549086053
:1054D00007B000BD00040048DC02002018060020D0
:1054E000E06F00081400002003B401984100009808
:1054F00050EAC12018BF04204A0D18BF40F0010037
:1055000040F2FF72B2EB515F08BF40F00200012889
:1055100008BF052002B070470907090E002804DB08
:1055200000F1E02080F80014704700F00F0000F157
:10553000E02080F8141D704730380A2801D201207D
:10554000704700207047000088B0FDF79BFAFFF716
:1055500037FDFFF745F92048816C41F00101816476
:10556000806C002200F00100079005210C20FDF75F
:105570000DFB0C20FDF7FCFA002205210D20FDF7A4
:1055800005FB0D20FDF7F4FAFFF7EEF8FFF7AEF993
:10559000FFF7D2F9FFF7ECF9FFF706FAFCF727FD62
:1055A0000E4901F5F870FCF7BAFC0D48FCF720FD38
:1055B0001C220C496846FBF715F80021684600F0EC
:1055C00027F809490860FFF78FF8FFF76BFFFEF730
:1055D0004FFF00F018F8FEE700100240EC0000203A
:1055E000607100087C6F0008000000200146002068
:1055F000842900D0C81C704710B500B9012000F004
:1056000057FD002010BD10B500F0EEFD002010BDCC
:105610007FB50D4604464169B0F9080081B1A16922
:1056200071B1FFF7E3FFD4E905128DE80700D4E973
:1056300000102B46226901F09FF9039004B070BD61
:10564000FFF7D4FF03A9CDE90001208A2B4682B2DF
:10565000D4E9001001F060F9012801D00020EDE745
:105660000398EBE72DE9F041184C0F460546E66834
:105670002068001D00F02AFC38B9206890F82C1032
:1056800001208840216981432161681C07D137B11D
:105690002168BDE8F0410E48091D00F05BBC2068A0
:1056A0003544B5424560216805D2A06BBDE8F041A4
:1056B000091D00F037BC606B091D00F033FCA06AC7
:1056C000854200D2A562BDE8F081000020000020E4
:1056D000C80800202DE9F041054600F047FC2E4C9B
:1056E000A068401CA06020682C4F10B1606940B3D6
:1056F0002DE02560A068012829D1002606EB860050
:1057000007EB800000F000FC761C072EF6D3234840
:105710008C3000F0F9FB2148A03000F0F5FB1F4869
:10572000B43000F0F1FB1D48C83000F0EDFB1B4821
:10573000DC3000F0E9FB19488C3060631430A06362
:1057400005E02068E96AC06A884200D82560606A7E
:10575000401C6062E96A0120226988401043206190
:1057600001EB810007EB8000291D00F0F3FB00F046
:105770001DFC606900280CD02068E96AC06A884274
:1057800007D207494FF080500860BFF34F8FBFF337
:105790006F8FBDE8F081000020000020EC070020A2
:1057A00004ED00E030B4026C0B46002A0BD0C16857
:1057B0001144C1608468A14201D30168C16030BC5A
:1057C0001846FAF7CABE30BC70472DE9F041856B28
:1057D000174604460026026C82B1C7B1E068FAF7AA
:1057E000BCFEE168206C091AE1602268914202D295
:1057F000A168081AE060022F16D017E02068A8B947
:10580000A06801F0E1F906460020A0600EE06068A3
:10581000FAF7A3FE216C606808446060A1688842C2
:1058200004D32068606001E005B16D1E6D1CA563A6
:105830003046BDE8F08110B5044690F8510058B1EB
:1058400001280CD002280FD0502080F31188BFF31C
:105850004F8FBFF36F8FFEE7206B00F0BBFB20463E
:10586000BDE8104000F0B6BB10BD000010484FF47A
:105870007A51420706D0C01D0D4920F00700411A99
:10588000C1F57A510B4A00230144C2E900030839EB
:10589000183A21F0070111604B600B600B1AC0E948
:1058A000001393604FF00040536050617047000058
:1058B000DC08002074000020144E154CA6F1C80727
:1058C0004FF08058DFF84C9012E000BF00F04EFB24
:1058D000F068C568281D00F0F9FAA068401EA060B5
:1058E0006068401E606000F061FB2846FFF7A3FF80
:1058F00060680028EAD138680128F9D9C9F8008021
:10590000BFF34F8FBFF36F8FF2E70000B4080020A2
:105910002000002004ED00E0002807D00021816075
:1059200001600B460A46C16000F0B4BD70470346F3
:10593000009829B10260C0E90F31012100F066BD75
:105940000060F8E72DE9F0479A46DDE909848146D1
:105950006FF00303206B03EB82021044089E20F0DB
:105960000707780707D0502080F31188BFF34F8FC7
:10597000BFF36F8FFEE7002561B1002023180A5C9A
:1059800083F834200A5C12B1401C1028F6D384F846
:10599000435001E084F83450072E00D30626E66217
:1059A000C4E91165201D00F0BAFA04F1180000F0F6
:1059B000B6FA2461C6F107006462A061E56484F868
:1059C000505052464946384600F06AFA2060B8F115
:1059D000000F01D0C8F80040BDE8F08730B511498C
:1059E00000E011460A688242FBD34B685C1884428F
:1059F00003D1406818444860084643681C18944224
:105A000009D1084C183C2468A24209D052681A44B3
:105A100042600A6812680260814200D0086030BDAE
:105A20000460F9E77400002010B5044600F09EFA07
:105A3000A06B28B15FF0000400F0B8FA204610BD5A
:105A40000124F9E70648416B096829B1416BC9682F
:105A5000C9684968816270474FF0FF31FAE700007A
:105A60002000002008484068401C4FF0500080F3A0
:105A7000118804D0BFF34F8FBFF36F8FFEE7BFF3E2
:105A80004F8FBFF36F8FFEE77C0000202DE9F041C0
:105A9000044600F06BFA94F9455004F1240609E03D
:105AA000606A48B1304601F021F908B100F02EFBE0
:105AB0006D1E6DB2002DF3DC4FF0FF3684F84560AB
:105AC00000F074FA00F052FA94F9445004F110070F
:105AD00009E0206948B1384601F008F908B100F042
