:020000040800F2
:10000000781800200D030008DB210008351F0008C8
:10001000D9210008670500089B280008000000009F
:100020000000000000000000000000002D02000899
:100030006905000800000000890200088D230008FF
:1000400027030008270300082703000827030008E8
:1000500027030008270300082703000827030008D8
:1000600027030008270300082703000827030008C8
:1000700027030008270300082703000827030008B8
:1000800027030008270300082703000827030008A8
:100090002703000827030008270300082703000898
:1000A0002703000827030008270300082703000888
:1000B00027030008000000000000000027030008DC
:1000C0002703000827030008270300082703000868
:1000D0002703000827030008270300082703000858
:1000E00027030008270300080000000000000000AC
:1000F0000000000000000000000000000000000000
:10010000000000002703000800000000270300088B
:100110000000000000000000270300083924000848
:100120002703000827030008270300082703000807
:10013000270300080000000000000000000000008D
:100140002703000827030008270300080000000019
:1001500027030008270300082703000827030008D7
:1001600027030008270300082703000800000000F9
:10017000270300082703000800000000000000001B
:1001800027030008270300082703000800F002F8EF
:1001900000F03CF80AA090E8000C82448344AAF1E5
:1001A0000107DA4501D100F031F8AFF2090EBAE8E3
:1001B0000F0013F0010F18BFFB1A43F0010318479B
:1001C0007832000098320000103A24BF78C878C115
:1001D000FAD8520724BF30C830C144BF04680C604D
:1001E000704700000023002400250026103A28BF95
:1001F00078C1FBD8520728BF30C148BF0B60704799
:100200001FB503F0DBF81FBD10B510BD00F071F98C
:100210001146FFF7F5FF02F051FB00F08FF903B430
:10022000FFF7F2FF03BC00F097F900002C4B1968B0
:10023000086800F05AB880F30988BFF36F8F4FF059
:10024000000080F311887047000000000848006833
:10025000006880F308884FF0000080F3148862B6CD
:1002600061B6BFF34F8FBFF36F8F00DF00BF00BFDA
:1002700008ED00E0DFF80C00016841F47001016056
:10028000704700BF88ED00E0EFF30980BFF36F8F88
:10029000134B1A681EF0100F08BF20ED108A20E9DA
:1002A000F04F106009B44FF0500080F31188BFF395
:1002B0004F8FBFF36F8F02F0B5FE4FF0000080F359
:1002C000118809BC1968086800F014B81EF0100FF6
:1002D00008BF00F014B880F30988BFF36F8F704730
:1002E00014000020EFF30580704730C8B0E8C04F1D
:1002F000FFF7A1BF30C8B0E8C04FFFF7E7BFB0ECD1
:10030000088AB0EC08CAFFF7E6BF0000094880473A
:1003100009480047FEE7FEE7FEE7FEE7FEE7FEE7E7
:10032000FEE7FEE7FEE7FEE704480549054A064BFF
:1003300070470000292400088D0100087812002071
:1003400078180020781400207814002053EA020C5A
:1003500000F069802DE9F04B4FF00006002B1FBF25
:10036000B3FA83F503FA05F424FA05F65E4012BFEA
:100370001643B2FA82F502FA05F4C5F120051EBF54
:1003800022FA05FC44EA0C04203556EA044C4FEAF4
:10039000144418BF641C4FF000084FF0000990424D
:1003A00071EB030C39D3002919BFB1FA81F701FAB7
:1003B00007F6B0FA80F700FA07F6C7F120071EBF6C
:1003C00020FA07FC46EA0C062037B6FBF4FCA7EB44
:1003D0000507103F07F01F0BCBF120060CFA0BFBB3
:1003E0002CFA06F644BFB3460026202FA4BF5E4673
:1003F0004FF0000B5BEA060C08BF4FF0010B19EB46
:100400000B09ABFB027C48EB0608C01B06FB02CCC9
:100410000BFB03CC71EB0C01C1E70B4602464146D6
:100420004846BDE8F08B13B54FF000004FF00001D7
:10043000AFF30080BDE81C40704710B5203AC0F013
:100440000B80B1E81850203AA0E81850B1E81850D5
:10045000A0E81850BFF4F5AF5FEA027C24BFB1E812
:100460001850A0E8185044BF18C918C0BDE8104083
:100470005FEA827C24BF51F8043B40F8043B08BF8C
:100480007047D20728BF31F8023B48BF11F8012B53
:1004900028BF20F8023B48BF00F8012B70474FF0FF
:1004A000000200B5134694469646203922BFA0E8C4
:1004B0000C50A0E80C50B1F12001BFF4F7AF0907D0
:1004C00028BFA0E80C5048BF0CC05DF804EB8900C1
:1004D00028BF40F8042B08BF704748BF20F8022B04
:1004E00011F0804F18BF00F8012B7047704770471C
:1004F0007047754600F02CF8AE4605006946534635
:1005000020F00700854618B020B5FFF70DFFBDE8C5
:1005100020404FF000064FF000074FF000084FF06A
:10052000000B21F00701AC46ACE8C009ACE8C009FB
:10053000ACE8C009ACE8C0098D46704710B5044668
:10054000AFF300802046BDE81040FFF768BE000012
:10055000004870471812002001491820ABBEFEE782
:10056000260002007047FEE7704772B6FEE7000003
:100570002DE9F84F00270446009790F85000DFF867
:10058000B0930D46B846012811D0012684F850607A
:10059000206801F0DAFC60B1606D40F02000606519
:1005A0005FF0010784F85080384600F0D7B9022088
:1005B000FBE769680C20052912D8022907D0032916
:1005C00007D0042907D0052907D0062107E0686075
:1005D00006E0122103E0182101E04FF48071696008
:1005E000D5E90021236800EA91101844036B01F05B
:1005F0001F014FF01F0C0CFA01FCC2F3846223EAC6
:100600000C038A4013430363206801F09EFC82467A
:10061000206801F096FC5AEA00001DD1AA682968FA
:10062000206801F096FC20686969C268C2F3C102C3
:10063000520091402A69042A0FD000EB82002B68F7
:10064000026EDFF8F0C203F0F84302EA0C020B433B
:100650001A4342F00041016672E0002101F06BFC98
:10066000400320684FF0000172D001F064FC90FA62
:10067000A0F0B0FA80F1286842036ED090FAA0F0A2
:10068000B0FA80F0814204D100221146206801F0C6
:100690006FFC0121206801F04EFC400320684FF000
:1006A00001015DD001F047FC90FAA0F0B0FA80F1B2
:1006B0002868420359D090FAA0F0B0FA80F0814245
:1006C00004D100220121206801F052FC022120689F
:1006D00001F031FC400320684FF0020148D001F0E6
:1006E0002AFC90FAA0F0B0FA80F12868420344D0C6
:1006F00090FAA0F0B0FA80F0814204D100220221E9
:10070000206801F035FC0321206801F014FC40034F
:1007100020684FF0030133D001F00DFC90FAA0F0F7
:10072000B0FA80F1286842032FD090FAA0F0B0FA16
:1007300080F0814204D100220321206801F018FCDE
:100740002068816811F0010F22D0ACE000E004E0E5
:1007500001F0F1FBC0F384618DE7C0F3846091E7A1
:1007600001F0E9FBC0F38461A2E7C0F38460A6E76F
:1007700001F0E1FBC0F38461B7E7C0F38460BBE73D
:1007800001F0D9FBC0F38461CCE7C0F38460D0E70B
:100790002A7B296850F8B03FC1F3120C23EA0C03FE
:1007A00002F0180C644A22FA0CF20A401343036068
:1007B000E968494577D1286841031CD090FAA0F137
:1007C000B1FA81F1491C01F01F0109294FEA4031BA
:1007D00032D8002912D000BF90FAA0F1B1FA81F10D
:1007E00001F1010101F01F0106FA01F609D100BF74
:1007F000C0F3846109E0C0F38461E3E7C0F384617E
:10080000EEE790FAA0F1B1FA81F101F1010101F0F6
:100810001F0146EA816102D1C0F3846003E090FACF
:10082000A0F0B0FA80F000F1010000F01F0000EB32
:10083000400041EA005132E000290ED090FAA0F1C8
:10084000B1FA81F101F1010101F01F0106FA01F68F
:1008500006D100BFC0F3846106E0C0F38461F1E714
:1008600090FAA0F1B1FA81F101F1010101F01F014B
:1008700046EA816102D1C0F3846003E090FAA0F0FF
:10088000B0FA80F000F1010000F01F002B4A00EBED
:10089000400002EB005041EA000141F00071AA68FB
:1008A000206801F056FB26482A6802423FF47AAEDF
:1008B00024488168244D254B01F0E071AA421BD1E8
:1008C0000D0219D422689A427FF46CAE826841F41A
:1008D000000122F0E0720A4382601D481D49006851
:1008E000B0FBF1F0401C00EB4000800000E0401E37
:1008F00000900028FBD155E6174DAA4207D1CD0143
:1009000005D422689A42F6D141F080710AE06FF076
:100910000045EA42EFD14A02EDD422689A42EAD178
:1009200041F48001826822F0E0720A43826039E675
:1009300000007F4000F0FF03FFFF0700000020FEE3
:100940000000088000030450000052C7000004505B
:1009500010000020400D0300000084CB18BCBDE84F
:10096000E08F0000F8B54FF0000504002E4600951A
:1009700002D0606D10B107E00120F8BD204600F004
:10098000C9F8A66584F8506020688168C1F3407199
:1009900019B18168574A1140816020688168C1F3AC
:1009A000007189B98168544A114041F080518160D9
:1009B000524853490068B0FBF1F04000801C00E051
:1009C000401E00900028FBD120688168C1F30071AF
:1009D00041B9616D41F010016165A16D41F0010106
:1009E000A165012501F0B1FA616DC90600D430B1ED
:1009F000606D40F01000606501252846F8BD606D0F
:100A000020F4807040F0020060652068806810F07B
:100A1000010F0BD13B48806810F0010F06D13A4816
:100A20006168826822F47C120A438260E168606B2C
:100A3000627E0843A16841EA4231084394F82010DD
:100A400040EA0140012904D1A18C304A02EB414126
:100A50000843A16A29B101F47071E26A014342EAD4
:100A600001002168CA682A4B1A400243CA60206804
:100A700001F06BFA0646206801F063FA304315D1A5
:100A8000207E94F83010800340EA41002168CA6853
:100A900044F202039A430243CA6094F838000128E2
:100AA0000CD02068016921F0010101612069012851
:100AB0002068016B21F00F0111D013E0D4E90F0180
:100AC0000843D4E911121143084321680A6940F22E
:100AD000FC739A43104340F001000861E6E7E269C5
:100AE000521E11430163606D20F0020040F00100CE
:100AF000606582E7C0FFFF5FC0FFFF7F100000203E
:100B0000400D030000000450000304500000FEFFED
:100B100007C0F0FF10B59EB00446142117A8FFF7D8
:100B2000BEFC5C216846FFF7BAFC1C49206888427D
:100B300032D14FF480400090800314900320019044
:100B4000012002900820039007200224CDE904042C
:100B50008801CDE90640684600F014FA08B1FFF7B5
:100B600004FD0F48C16C41F40051C164C16C01F433
:100B700000511C91C16C41F00101C164C06C17A906
:100B800000F001001C900B20CDE9174000201990C7
:100B90004FF0904000F006F81EB010BD0000045069
:100BA000001002402DE9F04FDFF8AC91002303253F
:100BB000A9F1040B85B04FF0010C0F2709F1040ACD
:100BC000ABF1040EBFE000BF0CFA03F6324075D063
:100BD0000C7904F00304012C01D0022C1BD1846891
:100BE00000945C0005FA04F80494009C24EA0804CC
:100BF0000094D1F80C80049C08FA04F8009C48EAA0
:100C00000408C0F808804468B4430E79C6F300169F
:100C10009E40264346600C79E443A4070AD0C4688A
:100C20004FEA430805FA08F6B4438E6806FA08F658
:100C30002643C6600C7904F00304022C10D1DC08B2
:100C400000EB84040294246A5E074FEAD66807FA30
:100C500008F6B4430E6906FA08F62643029C26629B
:100C600004684FEA430805FA08F6B4430E7906F023
:100C7000030606FA08F6264306604C6814F4403F63
:100C800060D0364C266E46F001062666246E23F0B0
:100C9000030604F001040094314C34440294A46827
:100CA0009E074FEA167807FA08F6B443B0F1904F62
:100CB00005D02C4EB04204D1012612E042E00026BD
:100CC0000FE0294EB04201D102260AE0274EB04281
:100CD00001D1032605E0264EB04201D1042600E0F2
:100CE000072606FA08F62643029CA660D9F800609B
:100CF0004C46D1F8048096435FEAC82800D51643D5
:100D00002660DAF800405646D1F8048094435FEA42
:100D1000882800D514433460DBF800405E46D1F8E3
:100D2000048094435FEA883800D514433460DEF8C9
:100D300000407646D1F8048094435FEAC83800D575
:100D4000144334605B1C0A6832FA03F47FF43CAF4E
:100D500005B000F00FB80000080401400010024088
:100D6000000001400004004800080048000C004852
:100D70000010004830BCBDE8C08F0AB181617047E7
:100D800081627047014880687047000004000020BD
:100D90000248816802781144816070470400002095
:100DA00010B50024032000F09FF80F2000F008F891
:100DB00008B1012401E000F04FF8204610BD00000A
:100DC00030B505461F4887B0816D41F0200181652F
:100DD000806D06A900F02000009001A800F0D2FA72
:100DE0000498B0B100F0EEFA40001749174AB0FB82
:100DF000F1F11748491E0260416040F2E7320021DC
:100E0000C0E903218160816100F0A7FE040003D0E6
:100E100015E000F0D7FAE8E70D4800F0D1FE040035
:100E20000DD1372000F032F8102D07D200222946CC
:100E3000372000F039F80748056000E0012407B0CA
:100E4000204630BD0010024040420F000014004018
:100E500024050020080000200B4882B0016E41F0FC
:100E600001010166016E01F001010091816D41F007
:100E700080518165806D002200F0805000900F212C
:100E8000901E02B000F010B800100240002809DBEC
:100E900000F01F02012191404009800000F1E02094
:100EA000C0F8001170470000F0B40E4B1B680C46F0
:100EB000C3F30223C3F10705042D00D90425191D2E
:100EC000072901D2002300E0DB1E012606FA05F106
:100ED000491E214099409E40761E16403143F0BC89
:100EE00001F0DCBC0CED00E0064900F007020868E8
:100EF0004FF6FF03184040EA0220034A10430860FF
:100F0000704700000CED00E00000FA051649B0F54E
:100F1000007F0868C0F3412009D0022805D0086886
:100F200020F4C06040F48060086000207047012811
:100F3000FBD0086820F4C06040F4007008600B48E3
:100F40003222006850430A4AB0FBF2F0401C00E035
:100F5000401E4A69520501D50028F9D1486940056B
:100F6000E3D503207047000000700040100000200F
:100F700040420F000248006800F4C0607047000063
:100F8000007000402DE9F84F044600270088A84D66
:100F90003E46000515D5606C60B1B0F5000F04D079
:100FA000B0F5400F2BD001270AE0E86840F480300C
:100FB000E86024E00021201D01F010F907001ED098
:100FC0003E46206880033AD5A86D4FF00008C00067
:100FD00009D4A86D40F08050A865A86D4FF00108B5
:100FE00000F080500090DFF84CA2DAF8001041F4D5
:100FF0008071CAF80010FFF7C5FE814610E0D5F8F1
:101000008800616C20F440000843C5F88800D8E7E8
:10101000FFF7B8FEA0EB0900022801D9032705E07D
:10102000DAF80000C005F3D5002F7DD04FEA07069F
:10103000B8F1000F03D0A86D20F08050A86520788B
:10104000C00707D0D5F88800216A20F003000843C4
:10105000C5F888002078800707D5D5F88800616A30
:1010600020F00C000843C5F888002078400707D519
:10107000D5F88800A16A20F030000843C5F8880040
:101080002078800607D5D5F88800E16A20F4406012
:101090000843C5F888002088800507D5D5F8880062
:1010A000E16B20F440200843C5F888002088400503
:1010B00007D5D5F88800216C20F440100843C5F806
:1010C00088002078400607D5D5F88800216B20F4E9
:1010D00040500843C5F888002078000607D5D5F8A9
:1010E0008800616B20F440400843C5F888002088E0
:1010F000C00507D5D5F88800A16B20F4403008431F
:10110000C5F8880020684FF0006700034FF0806842
:1011100050D5D5F88800A16C20F040600843C5F890
:101120008800A06CB84200E005E03BD1E86840F4DC
:101130008010E8603EE0D5F8900010F4407014D0C4
:10114000A16D814211D0D5F89000D5F8901020F40F
:10115000407041F48031C5F89010D5F8901021F41A
:101160008031C5F89010C5F89000C00711D0FFF786
:1011700009FE074641F2883907E000BFFFF702FE8B
:10118000C11B494501D9032652E7D5F890008007D5
:10119000F4D5D5F89000A16D20F440700843C5F84F
:1011A000900045E7404505D10121201D01F016F8CA
:1011B00000B106462068400317D5D5F88800E16CD9
:1011C00020F040600843C5F88800E06CB84204D1C4
:1011D000E86840F48010E86007E0404505D101214F
:1011E000201D00F0FBFF00B106462088400411D509
:1011F000D5F88800216D20F040500843C5F88800DC
:10120000206DB0F1805F05D10221201D00F0E6FFC6
:1012100000B106462088000406D555F8880F616D98
:1012200020F0804008432860304600F005B80000F8
:10123000001002400070004018BCBDE8E08F0000C4
:101240002DE9F0470F4605006BD0494E306800F09D
:101250000700B84209D2306820F0070038433060F8
:10126000306800F00700B8425BD12878414C800715
:101270000AD5A868A16801F0F001884204D9A168E4
:1012800021F0F0010143A1602878C0072CD06868E4
:10129000032811D0022812D0216898B149050029ED
:1012A0003FDAA16821F003010143A160FFF76AFD65
:1012B000804641F2883910E021688901EFE7216812
:1012C0008903ECE78907EAE7FFF75CFDA0EB08017B
:1012D000494502D90320BDE8F087A068696800F09D
:1012E0000C00B0EB810FEFD1287880070AD5A868F1
:1012F000A16801F0F001884204D2A16821F0F00158
:101300000143A160306800F00700B8420BD9306893
:1013100020F0070038433060306800F00700B84222
:1013200001D00120D7E72878400705D5A068E968F3
:1013300020F4E0600843A0602878000706D5A06884
:10134000296920F4605040EAC100A06000F05EF816
:10135000A168094AC1F30311515C01F01F01C840A3
:101360000649086006480068BDE8F047FFF728BD59
:101370000020024000100240E4330008100000206A
:10138000080000200F2202600C4A936803F0030358
:101390004360936803F0F0038360936803F4E063B1
:1013A000C36092684FF4E06303EAD202026104482A
:1013B000006800F00700086070470000001002405D
:1013C000002002400548064900688968054AC1F3C3
:1013D0000221515C01F01F01C8407047100000203D
:1013E0000010024024340008054806490068896856
:1013F000054AC1F3C221515C01F01F01C84070478A
:1014000010000020001002402434000870B5254967
:10141000002318468A68CC6812F00C0204F0030618
:10142000214C4FEA640509D00C2A05D0042A32D099
:10143000082A00D1284670BD012E10D10B681B0769
:1014400004D4D1F89430C3F3032302E00B68C3F350
:101450000313164E56F82330DAB10C2AEBD1C868C4
:1014600000F00300022818D0032818D01846CA68D4
:10147000CB68C2F30212C3F306234343521CB3FBEF
:10148000F2F2C868C0F34160401C4000B2FBF0F0CB
:1014900070BD184670BD204670BD2046E7E728465F
:1014A000E5E70000001002400024F400F4330008D7
:1014B0002DE9F84304006FD0FA4DA86800F00C063F
:1014C000E86800F003072078C00664D576B10C2EDA
:1014D00001D1012F0AD0A069002828687AD040F0F5
:1014E00001002860FFF74EFC80465DE02868800719
:1014F00002D5A0690028DED0216A2868000703D53C
:10150000286800F0F00004E0D5F89400F02202EA28
:101510001010814216D9084600F0F6FE00283BD193
:10152000286840F0080028602868216A20F0F00050
:10153000084328606868E16920F47F4040EA0120A0
:10154000686016E0286840F0080028602868216A72
:1015500020F0F000084328606868E16920F47F40CB
:1015600040EA0120686026B9206A00F0CDFE00281C
:10157000D5D1FFF74BFFA968CB4AC1F30311515CEA
:1015800001F01F01C840C9490860C9480068FFF759
:1015900017FC00287ED12EE0CAE000BFFFF7F2FB67
:1015A000A0EB0800022876D828688007F6D52868BE
:1015B00040F0080028602868216A20F0F000084305
:1015C00028606868E16920F47F4040EA0120686093
:1015D00011E0FFE720F001002860FFF7D3FB804611
:1015E00006E000BFFFF7CEFBA0EB08000228DAD828
:1015F00028688007F6D42078C00740D0082E18D07D
:101600000C2E01D1032F14D06068B0F5803F17D0A5
:10161000B0F5A02F286817D020F480302860286803
:1016200020F4802028606068E0B1FFF7ABFB8046C3
:1016300014E02868800322D56068002878D01EE076
:10164000286840F48030EDE740F480202860F7E718
:10165000FFF798FBA0EB08006428A4D82868800353
:10166000F6D50CE0FFF78EFB804605E0FFF78AFB1E
:10167000A0EB0800642896D828688003F6D4207868
:1016800080073BD5042E11D00C2E01D1022F0DD096
:10169000E06801E0AAE1FFE0002828681ED040F4DD
:1016A00080702860FFF76EFB07460CE02868400555
:1016B0000CD5E0680028C1D008E000BFFFF762FB4E
:1016C000C01B022893D828684005F7D56868217C9C
:1016D00020F0F85040EA016068600FE020F480706C
:1016E0002860FFF74FFB074605E000BFFFF74AFB06
:1016F000C01B0228B1D828684005F7D4207800071D
:1017000029D560690028D5F8940012D040F0010076
:10171000C5F89400FFF736FB074604E0FFF732FBFD
:10172000C01B022899D8D5F894008007F6D512E09E
:101730002BE120F00100C5F89400FFF723FB0746DA
:1017400005E000BFFFF71EFBC01B022885D8D5F8B7
:1017500094008007F6D42078400766D5A86D00274E
:10176000C00008D4A86D40F08050A865A86D01277E
:1017700000F0805000904F480168C90512D40168FC
:10178000814641F480710160FFF7FCFA804605E074
:10179000FFF7F8FAA0EB080002287DD8D9F800007E
:1017A000C005F5D5A068012816D00528D5F8900009
:1017B00017D020F00100C5F89000D5F8900020F077
:1017C000040000BFC5F89000A06841F28839C0B19C
:1017D000FFF7D8FA80460FE0D5F8900040F00100FE
:1017E000F0E740F00400C5F89000F5E7FFF7CAFA0B
:1017F000A0EB080149454FD8D5F890008007F5D5F2
:101800000EE0FFF7BFFA804606E000BFFFF7BAFA26
:10181000A0EB080149453FD8D5F890008007F5D4E2
:101820001FB1A86D20F08050A8652078800628D5CB
:10183000606A0028D5F8980012D040F00100C5F881
:101840009800FFF79FFA074605E000BFFFF79AFAF6
:10185000C01B022820D8D5F898008007F6D510E0E4
:1018600020F00100C5F89800FFF78CFA074604E065
:10187000FFF788FAC01B02280ED8D5F89800800719
:10188000F6D4A06AF0B3022816D00C2E7DD02868BA
:1018900020F08070286000E0A7E0FFF773FA0446AC
:1018A000A6E0000000100240E43300081000002011
:1018B0000800002000700040E868E26A00F00301C0
:1018C000914228D1216B00F0700209011039914238
:1018D00021D1626B00F4FE41B1EB022F1BD194F8D1
:1018E000382000F07841B1EBC26F14D1A18F00F421
:1018F000C00249084905A1F5001191420BD194F8A5
:10190000401000E06AE04908490600F0C060A1F11B
:10191000007181424BD00C2E73D02868400170D4E6
:10192000286820F080702860FFF72CFA064604E053
:10193000FFF728FA801B022857D828688001F7D4BF
:10194000F4E90B016FF00F0202EB01110843218A49
:101950005204490802EB4151A26841EA02210843BE
:10196000217D4FF07E42490802EB41610843217B13
:1019700040EAC160E968244A11400843E8602868E9
:1019800040F080702860E86800E03AE040F0807045
:10199000E860FFF7F7F9044605E000BFFFF7F2F94A
:1019A000001B022821D828688001F7D527E0286885
:1019B000800124D4286840F080702860E86840F0F6
:1019C0008070E860FFF7DEF9044604E0FFF7DAF91B
:1019D000001B022809D828688001F7D50FE000BF56
:1019E000FFF7D0F9001B022802D90320BDE8F883D5
:1019F00028688001F4D4E86804490840E8600020C1
:101A0000F4E70120F2E700008C809D01FCFFEEFE70
:101A100070B5040009D0606A002540B12561656198
:101A2000A56294F85D0040B10CE0012070BD6068D3
:101A3000B0F5827FF4D0E561F2E784F85C5020468F
:101A400000F056F8022084F85D002068016821F05B
:101A500040010160E1684FF4E062914201D9002049
:101A600001E04FF48050B1F5706F02D0914200D088
:101A7000A562A188228901F4827102F40442114313
:101A8000227C02F002021143227D02F00102114386
:101A9000228B02F400721143227F02F038021143BC
:101AA00094F8202002F080021143228D02F40052AB
:101AB000114322681160A169042202EA114194F8DD
:101AC000242000F4805002F01002114394F83420D6
:101AD00002F008021143A28902F47062114301432B
:101AE000206841602566012084F85D00002070BDFB
:101AF00010B586B0044614216846FEF7D0FC1249A2
:101B0000206888421ED11148016E41F4805101665F
:101B1000016E01F480510591C16C41F00201C16474
:101B2000C06C694600F00200059038200090022049
:101B300001900020029003200390052004900448A7
:101B4000FFF730F806B010BD003001400010024031
:101B50000004004870477047704710B5040003D078
:101B600094F83D0010B107E0012010BD002084F87A
:101B70003C00204600F022F8022084F83D00211DA0
:101B8000206800F05FFC012084F8480084F83E00E3
:101B900084F83F0084F8400084F8410084F8420053
:101BA00084F8430084F8440084F8450084F8460033
:101BB00084F8470084F83D00002010BD7047000005
:101BC00090F83D10012901D001207047022180F8D2
:101BD0003D100168CA6842F00102CA6000680B4902
:101BE000884205D0B0F1804F02D00949884207D120
:101BF0008168084A1140062906D0B1F5803F03D01C
:101C0000016841F00101016000207047002C014093
:101C10000040014007000100704770B504460068AD
:101C200001694FF00005C943890715D4C168C9434C
:101C3000890711D4E91E016101202077206880699D
:101C40008007204602D0FFF7E7FF04E000F0A7F886
:101C5000204600F0A5F8257720680169C9434907A7
:101C600017D4C168C943490713D46FF00401016157
:101C7000022020772068806910F4407F204602D03F
:101C8000FFF7CAFF04E000F08AF8204600F088F869
:101C9000257720680169C943090716D4C168C9437B
:101CA000090712D46FF00801016104202077206831
:101CB000C0698007204602D0FFF7AEFF04E000F0C5
:101CC0006EF8204600F06CF8257720680169C9435A
:101CD000C90617D4C168C943C90613D46FF01001EF
:101CE0000161082020772068C06910F4407F2046F9
:101CF00002D0FFF791FF04E000F051F8204600F019
:101D00004FF8257720680169C943C90708D1C16820
:101D1000C943C90704D1891E0161204600F042F879
:101D200020680169C943090609D4C168C943090685
:101D300005D46FF0800101612046FFF70CFF206899
:101D40000169C943C90509D4C168C943090605D455
:101D50006FF4807101612046FFF7FCFE2068016985
:101D6000C943490609D4C168C943490605D46FF07F
:101D700040010161204600F01FF820680169C94355
:101D800089060BD4C168C943890607D46FF02001C6
:101D900001612046BDE87040FFF7DEBE70BD7047B0
:101DA0007047000000680349884201D1FEF7F0BF88
:101DB0007047000000140040704710B5040002D0C6
:101DC000A06F10B107E0012010BD002084F874005E
:101DD000204600F025F82420A0672068016821F043
:101DE00001010160204600F0F5FB0128ECD0606A9B
:101DF00010B1204600F05CFB2068416821F490415E
:101E000041602068816821F02A01816020680168B2
:101E100041F0010101602046BDE8104000F0ACBB7C
:101E20002DE9F0439DB00446142117A8FEF737FBB7
:101E30005C216846FEF733FB39492068394C03269C
:101E4000072700254FF090494FF0020888421BD128
:101E50000120009008956846FFF794F808B1FEF756
:101E600084FB206E40F480402066206E00F48040A9
:101E70001C90E06C40F00100E064E06C00F00100B8
:101E80001C904FF4C0601CE02749884225D1684669
:101E9000CDF800800995FFF775F808B1FEF765FBEE
:101EA000A06D40F40030A065A06D00F400301C90DF
:101EB000E06C40F00100E064E06C00F001001C9078
:101EC0000C20CDE9170817A9484619AA82E8E000B6
:101ED000FEF768FE1DB0BDE8F08314498842F9D1D1
:101EE00004200A9500906846FFF74CF808B1FEF709
:101EF0003CFBA06D40F48020A065A06D00F4802024
:101F00001C90E06C40F00200E064E06C17A900F067
:101F100002001C904FF44060CDE917080448D4E754
:101F200000380140001002400044004000480040DA
:101F300000040048FEE700EB8100006E00F0F8406E
:101F400070478068C0F3C00070478068C0F38000AD
:101F50007047042303EAD15310B518444369C1F311
:101F6000045107248C40A3438A401343436110BDAE
:101F700000EB8100016E21F00041114301667047C2
:101F800030B587B018216846FEF789FA1848174916
:101F90000024C0E9001484600425C460C0E904453D
:101FA000047644760121C16180F820408462C462D5
:101FB00080F83040446380F83840FEF7D3FC08B125
:101FC00072B6FEE70B4800900620CDE901047F20A1
:101FD0000594CDE9030569460548FEF7C9FA0028CE
:101FE00001D072B6FEE707B030BD0000000004501B
:101FF0007C000020400020192DE9F04186B014211A
:102000006846FEF74CFA3448C16C41F00401C164E3
:10201000C16C01F004010591C16C41F08001C16403
:10202000C16C01F080010591C16C41F00101C164F6
:10203000C16C01F001010591C16C41F00201C16464
:10204000C06C264E00F002004FF4C0440590002200
:1020500021463046FEF791FE4FF090470022D021F6
:102060003846FEF78AFEDFF878800022C02140461D
:10207000FEF783FE0125CDE9004500240294694660
:1020800030460394FEF78EFD21204FF48816CDE9EB
:102090000006694602943846FEF784FDD020009081
:1020A000CDE90154694638460394FEF77BFDC02014
:1020B0000090CDE90154694640460394FEF772FD55
:1020C0006802CDE90006694602944046FEF76AFDC3
:1020D00006B0BDE8F0810000001002400008004892
:1020E00000040048114810B50F4901604FF4827197
:1020F000416000214FF44072C0E902124FF40072B7
:102100000161C0E90512C161016207224162C0E9B3
:102110000A12016308214163FFF77AFC002801D00D
:1021200072B6FEE710BD000000300140E000002064
:102130000C4810B50A4901604FF4E13141600021BB
:1021400081600C22C160C0E904128161C161016239
:102150004162FFF732FE002801D072B6FEE710BDE3
:1021600000380140440100200C4810B50A490160C4
:102170004FF4E1314160002181600C22C160C0E96F
:1021800004128161C16101624162FFF716FE0028FD
:1021900001D072B6FEE710BD00440040C801002027
:1021A0000C4810B50A4901604FF4E131416000214B
:1021B00081600C22C160C0E904128161C1610162C9
:1021C0004162FFF7FAFD002801D072B6FEE710BDAC
:1021D000004800404C020020FEE7FEE72DE9F041F8
:1021E000444C05468846E0680026810728680DD0E3
:1021F000E16801F00301814216D1A8B1E068696885
:10220000C0F30210401C88420ED120E0012804D007
:10221000022805D0032807D108E02168890701E0DA
:1022200021684905002907DB01265FE02168890351
:1022300002D421684903F5E7E1686A686FF00F038B
:1022400021F0730103EB021211430143E1602068A6
:1022500020F080602060FEF795FD074605E000BF96
:10226000FEF790FDC01B022837D820680001F7D484
:10227000B8F1000F18D0B8F1010F1DD0287D4FF034
:102280007E41400801EB4060A96840EA01202169D5
:10229000194A114008432061206840F080602060A6
:1022A000FEF770FD07461AE0A868297B000240EAA5
:1022B000C1602169114AECE7288A1149400801EB05
:1022C0004050A96840EA012021690E4AE1E700BFB9
:1022D000FEF758FDC01B022801D9032606E020683E
:1022E0000001F5D52069A969084320613046BDE8A1
:1022F000F081000000100240FF80FFF9FF80FF071F
:102300000000E0FFFF809FFFF8B51C4D064600244B
:10231000A86DC00002D5FEF72DFE0DE0A86D40F0BF
:102320008050A865A86D00F080500090FEF722FE56
:10233000A96D21F08051A965B0F5007F04D0802EF1
:1023400007D94FF003040AE0802E08D9A02E01D847
:1023500004E001D1022402E0702E00D101240848DB
:10236000016821F0070121430160006800F00700C7
:10237000A04201D00120F8BD0020F8BD00100240AD
:1023800000200240012000F0C3FAFBE710B5502006
:1023900080F31188BFF34F8FBFF36F8F00F046FFBC
:1023A00018B104494FF080500860002080F3118874
:1023B00010BD000004ED00E010B596B04421684661
:1023C000FEF76DF8142111A8FEF769F84FF40070BC
:1023D000FEF79CFD08B172B6FEE701210804CDE9C5
:1023E0000010022003240A90CDE90B4114210D9125
:1023F0000721CDE90E1010906846FFF759F808B193
:1024000072B6FEE70F20CDE911040020139014905E
:102410001590042111A8FEF713FF002801D072B611
:10242000FEE716B010BD00000248016841F47001DB
:102430000160704788ED00E00148FFF7EEBB000047
:102440002405002070B50268164B4FF08046984274
:1024500001D0B04203D122F070044A682243124CEA
:10246000124D984205D0B04203D0A04201D0A842FC
:1024700003D122F44076CA6832434E6922F08002CA
:10248000324302608A68C2620A688262984203D05C
:10249000A04201D0A84201D1096901630121416133
:1024A00070BD0000002C014000400140004401408C
:1024B00090F82410C90706D001684A68836A22F49C
:1024C00000321A434A6090F82410890706D5016843
:1024D0004A68C36A22F480321A434A6090F8241092
:1024E000490706D501684A68036B22F480221A4323
:1024F0004A6090F82410090706D501684A68436BC2
:1025000022F400421A434A6090F82410C90606D506
:1025100001688A68836B22F480521A438A6090F8BB
:102520002410890606D501688A68C36B22F400521C
:102530001A438A6090F82410490611D501684A6848
:10254000036C22F480121A434A60016CB1F5801FBB
:1025500006D101684A68436C22F4C0021A434A60FB
:1025600090F82410090606D501684A68806C22F4A8
:10257000002202434A607047F8B500260446C0F8BE
:102580008060FEF7FFFB0546206800686FF07E471D
:10259000000708D52B4600224FF400112046009773
:1025A00000F018F960B92068006840070AD52B468A
:1025B00000224FF480012046009700F00BF908B18B
:1025C0000320F8BD2020A067E067266684F87460C9
:1025D0000020F8BD2DE9F0410446016880682269B9
:1025E000E3691043626900251A431043714F0A687A
:1025F000714B1A4002430A6020684168E26821F486
:102600004051114341602168A069B94201D0226A5A
:1026100010438A6822F4306202438A606749236863
:1026200067488B420DD1D0F8880010F0030006D027
:10263000012847D0022843D0032830D144E00121AB
:102640002EE060498B420BD1D0F8880010F00C00CE
:1026500034D0042836D0082832D00C281FD133E0DB
:1026600059498B420BD1D0F8880010F0300025D0AA
:10267000102827D0202823D0302810D124E0BB42B6
:102680000DD1D0F8880010F4406017D0B0F5806FFD
:1026900018D0B0F5006F13D0B0F5406F14D01021F2
:1026A0004A4A00264FF40040BB422FD171B10229A3
:1026B0000FD004290FD0082973D10FE00021EFE7D4
:1026C0000221EDE70421EBE70821E9E7FEF77AFEB6
:1026D00003E0104602E0FEF799FEE8B3626802EB01
:1026E000420181425DD8B0EB023F5AD8010E03028D
:1026F0005008181871410023FDF728FE344AA0F550
:10270000407191424DD82168C8604BE0E3694FF6B3
:10271000EF77834228D1092943D2DFE801F0050889
:102720000B420D4242421000FEF74CFE06E0FEF75F
:102730005BFE03E0104602E0FEF768FE60B1410078
:10274000606801EB5001B1FBF0F0A0F11001B9425B
:1027500027D84FF6F07100E024E00140C0F34200BA
:1027600001432068C1601DE009291AD2DFE801F0A9
:1027700005080B190D1919191000FEF723FE06E0C4
:10278000FEF732FE03E0104602E0FEF73FFE48B1DE
:10279000616800EB5100B0FBF1F0A0F11001B9420B
:1027A00005D9012566662846A666BDE8F08180B297
:1027B000A9E7000000800040F369FFEF0038014006
:1027C0000010024000440040004800400024F40093
:1027D000FFFC0F002DE9F0479A4617460E460446C7
:1027E0004FF000094FF02008089D4AE0681C48D0CF
:1027F000FEF7C8FAA0EB0A00A8422AD84DB3206819
:10280000016849073DD5C069C043000539D4216836
:102810004FF400600862206850E8001F21F4D07176
:1028200040E80012002AF6D12068083050E8001F66
:1028300021F0010140E80012002AF5D1C4F87880A7
:10284000C4F87C80C4F8808084F874900320BDE8CC
:10285000F087216851E8000F20F4D07041E80002B1
:10286000002AF6D12068083050E8001F21F001014D
:1028700040E80012002AF5D1C4F87880C4F87C80C2
:10288000E2E72068C06936EA000004D00020B842C0
:10289000ACD00020DBE70120F9E7FEE70907090ECD
:1028A000002804DB00F1E02080F80014704700F0FD
:1028B0000F0000F1E02080F8141D704788B0FEF78B
:1028C0006FFAFFF779FDFFF797FBFFF759FBFFF76B
:1028D00009FCFFF72DFCFFF747FCFFF761FC1C220A
:1028E00006496846FDF7A9FD0021684600F01CF87E
:1028F0000349086000F013F8FEE70000C833000841
:102900000000002001460020842900D0C81C704728
:1029100010B500B9012000F021FB002010BD10B55A
:1029200000F042FB002010BD7FB50D460446416912
:10293000B0F9080081B1A16971B1FFF7E3FFD4E9F3
:1029400005128DE80700D4E900102B46226900F03B
:1029500041FC039004B070BDFFF7D4FF03A9CDE99B
:102960000001208A2B4682B2D4E9001000F002FC5C
:10297000012801D00020EDE70398EBE72DE9F041B5
:10298000184C0F460546E6682068001D00F01EFA48
:1029900038B9206890F82C100120884021698143C3
:1029A0002161681C07D137B12168BDE8F0410E48AC
:1029B000091D00F04FBA20683544B54245602168D2
:1029C00005D2A06BBDE8F041091D00F02BBA606B89
:1029D000091D00F027FAA06A854200D2A562BDE871
:1029E000F0810000140000204C0600202DE9F04189
:1029F000054600F03BFA2E4CA068401CA060206801
:102A00002C4F10B1606940B32DE02560A06801280B
:102A100029D1002606EB860007EB800000F0F4F9D0
:102A2000761C072EF6D323488C3000F0EDF92148B0
:102A3000A03000F0E9F91F48B43000F0E5F91D4876
:102A4000C83000F0E1F91B48DC3000F0DDF919482E
:102A50008C3060631430A06305E02068E96AC06AC6
:102A6000884200D82560606A401C6062E96A0120E3
:102A7000226988401043206101EB810007EB800050
:102A8000291D00F0E7F900F011FA606900280CD068
:102A90002068E96AC06A884207D207494FF080502F
:102AA0000860BFF34F8FBFF36F8FBDE8F081000068
:102AB000140000207005002004ED00E010B504466D
:102AC00090F8510058B101280CD002280FD05020A6
:102AD00080F31188BFF34F8FBFF36F8FFEE7206B3A
:102AE00000F0F8F92046BDE8104000F0F3B910BD41
:102AF0000F4840F6B831420705D0C01D0C4A20F0FF
:102B00000700821A891A0B4A00230144C2E9000314
:102B10000839183A21F0070111604B600B600B1A5D
:102B2000C0E9001393604FF000405360506170475C
:102B30006006002068000020144E154CA6F1C8075E
:102B40004FF08058DFF84C9012E000BF00F08EF993
:102B5000F068C568281D00F039F9A068401EA06023
:102B60006068401E606000F0A1F92846FFF7A6FFEC
:102B700060680028EAD138680128F9D9C9F80080CE
:102B8000BFF34F8FBFF36F8FF2E7000038060020CE
:102B90001400002004ED00E02DE9F0479A46DDE93D
:102BA000098481466FF00303206B03EB820210441B
:102BB000089E20F00707780707D0502080F311887F
:102BC000BFF34F8FBFF36F8FFEE7002561B1002089
:102BD00023180A5C83F834200A5C12B1401C1028C8
:102BE000F6D384F8435001E084F83450072E00D324
:102BF0000626E662C4E91165201D00F010F904F113
:102C0000180000F00CF92461C6F107006462A061AD
:102C1000E56484F8505052464946384600F0C0F802
:102C20002060B8F1000F01D0C8F80040BDE8F0877F
:102C300030B5114900E011460A688242FBD34B6867
:102C40005C18844203D140681844486008464368D1
:102C50001C18944209D1084C183C2468A24209D09F
:102C600052681A4442600A6812680260814200D0C9
:102C7000086030BD0460F9E7680000200648416B39
:102C8000096829B1416BC968C968496881627047A0
:102C90004FF0FF31FAE700001400002008484068B8
:102CA000401C4FF0500080F3118804D0BFF34F8FC9
:102CB000BFF36F8FFEE7BFF34F8FBFF36F8FFEE75A
:102CC000700000202DE9F0410546002700F0A2F930
:102CD000324E306808B9FFF70BFF706905424ED1DC
:102CE000C5B3083568070ED005F00700C0F108002D
:102CF0000544680707D0502080F31188BFF34F8F39
:102D0000BFF36F8FFEE72DB37068854237D8234835
:102D1000183001460C6801E020460C466168A94263
:102D200002D221680029F7D131688C4227D0076888
:102D30002168016060680837411B10290FD96019AC
:102D4000420708D0502080F31188BFF34F8FBFF3A4
:102D50006F8FFEE713E041606560FFF769FF616810
:102D60007068401A7060B268904200D2B0607069BA
:102D700001430020C4E90001F068401CF06000F04D
:102D8000BBFA780707D0502080F31188BFF34F8F2C
:102D9000BFF36F8FFEE73846BDE8F081500000209A
:102DA00010B5031F4FF080741C601B1F21F0010140
:102DB0001960191F044B0B6014390A60091F6FF06A
:102DC000020244380A6010BD9D2C0008D0E901328F
:102DD00001699A60D0E901235A604A68824201D1B0
:102DE00082684A60002202610868401E0860086824
:102DF00070470000034B036003F15400086080201B
:102E000010607047D002002000F108014FF0FF323F
:102E1000C0E90112C1600161002101607047002119
:102E20000161704730B50B685A1C02D000F10802EE
:102E300002E0026904E02246546825689D42FAD9FE
:102E400053684B6099608A60516008610168491C51
:102E5000016030BD42684A6093688B609368596036
:102E6000916008610168491C01607047502080F33F
:102E70001188BFF34F8FBFF36F8F0A494868401C1A
:102E8000486001280CD10848006810F0FF0F07D0F7
:102E9000502080F31188BFF34F8FBFF36F8FFEE791
:102EA000704700007000002004ED00E00849486809
:102EB00028B1401E486001D180F31188704750202E
:102EC00080F31188BFF34F8FBFF36F8FFEE70000D1
:102ED0007000002070B500282AD0164DA0F108041B
:102EE00060686969084207D1502080F31188BFF3F8
:102EF0004F8FBFF36F8FFEE722683AB1502080F307
:102F00001188BFF34F8FBFF36F8FFEE78843606078
:102F100000F080F860686968084468602046FFF740
:102F200087FE2869401C2861BDE8704000F0E4B9C4
:102F300070BD0000500000204FF0E0200021016132
:102F4000816105494FF47A720968B1FBF2F1491EBB
:102F500041610721016170471000002010B5020097
:102F600014D00F48006B38B1502080F31188BFF3A4
:102F70004F8FBFF36F8FFEE700F04CF80021104633
:102F8000FFF7FCFC00F0B8F9002807D105494FF025
:102F900080500860BFF34F8FBFF36F8F10BD0000EC
:102FA0001400002004ED00E010B586B00024039466
:102FB00005AA04A903A80494FFF71CFFDDE9030197
:102FC0000094CDE9011000230EA11048059A00F0ED
:102FD00001F90F490028C86211D0502080F31188F0
:102FE000BFF34F8FBFF36F8F4FF0FF308862012028
:102FF0004861CC6006B0BDE8104000F041B806B0B2
:1030000010BD000049444C4500000000392B000869
:10301000140000200248016B491C01637047000046
:10302000140000201448016B11B10121C1617047E7
:103030000021C1610169B1FA81F1C1F11F0101EB08
:1030400081020E4951F822306BB101EB820101F18E
:1030500008034A6852684A609A4201D152684A603D
:10306000D16801607047502080F31188BFF34F8F03
:10307000BFF36F8FFEE700001400002070050020F2
:103080001CB537480168374A914207D1502080F378
:103090001188BFF34F8FBFF36F8FFEE70068314990
:1030A000491E884207D1502080F31188BFF34F8F0B
:1030B000BFF36F8FFEE72C4908780190FF2008705E
:1030C00008788DF800009DF800009DF8002000F0C1
:1030D000F000904207D0502080F31188BFF34F8F4B
:1030E000BFF36F8FFEE79DF80000204C00F050000A
:1030F00020700720A06005E09DF8002052008DF8A8
:103100000020401E9DF800201206F5D4A060032880
:1031100007D0502080F31188BFF34F8FBFF36F8F1C
:10312000FEE74FF44070A060019808700C48203012
:10313000016841F470010160016841F07041016073
:10314000FFF7FAFE00206060FDF794F80848016878
:1031500041F040410160FDF779F800201CBD0000FE
:1031600000ED00E071C20F4100E400E070000020BB
:1031700034EF00E02DE9FF5F8346DDE90E879946D5
:1031800016468A469000FFF79DFD05001CD054208E
:10319000FFF798FD040014D00020256384F8510047
:1031A000CDE90240CDE900874B46324651465846AC
:1031B000FFF7F2FC2046FFF719FC012004B000F0F5
:1031C00006B82846FFF786FE4FF0FF30F6E730BC22
:1031D000BDE8C09FF0B585B0DDE90B640A9DA6B1DE
:1031E000DCB1542700972663022684F8516000263C
:1031F00004AFCDE90246CDE90057FFF7CDFC2046EC
:10320000FFF7F4FB049805B0F0BD502080F311885F
:10321000BFF34F8FBFF36F8FFEE7502080F311880D
:10322000BFF34F8FBFF36F8FFEE700002DE9F04132
:103230002F4C0026206B28B1A069401CA0613046AD
:10324000BDE8F081E5686D1CE56013D1606B006836
:1032500038B1502080F31188BFF34F8FBFF36F8FC9
:10326000FEE7606BA16B6163A063206A401C206273
:10327000FFF704FDA06ADFF87C80854209D3606B0C
:103280000068A0B1606BC068C7687868854211D2D9
:10329000A0622068C06A00EB800158F82100012874
:1032A00000D90126E0690028C9D00126C7E74FF000
:1032B000FF30EDE7381DFFF789FDB86A18B107F157
:1032C0001800FFF783FDF96A012022698840104346
:1032D000206101EB810108EB8100391DFFF7BAFD88
:1032E000F86A2168C96A8842C9D30126C7E7000085
:1032F00014000020700500202DE9F0472C4D00241B
:103300002746286B38B1FFF7B1FD286B401E2863B4
:10331000286B40B146E0502080F31188BFF34F8FF7
:10332000BFF36F8FFEE7A968224E0120D1B3A6F14B
:10333000B40980463068E8B1F068C46804F1180048
:10334000FFF744FD201DFFF741FDE06A2A6908FAF6
:1033500000F11143296100EB800109EB8100211D7F
:10336000FFF778FDE06A2968C96A8842E2D3C5F8A8
:103370001C80DFE70CB1FFF781FCAC6944B1464625
:10338000FFF754FF00B1EE61641EF9D10020A8617F
:10339000E86938B10849012738070860BFF34F8F43
:1033A000BFF36F8FFFF782FD3846BDE8F08700005E
:1033B000140000202406002004ED00E04FF04070CF
:1033C000E1EE100A704700002C3400088523000845
:1033D000000000000000000080000000000000006D
:1033E00000000000000000000000000001020304D3
:1033F00006070809A0860100400D0300801A060098
:1034000000350C0040420F0080841E0000093D0082
:1034100000127A000024F40000366E010048E80132
:10342000006CDC02000000000102030464656661B8
:10343000756C745461736B005834000800000020F0
:103440007C000000C8010008D43400087C00002083
:10345000FC170000E401000800000000010000006B
:10346000100000000000000000093D000000000006
:10347000000000000000000000000000000000004C
:10348000000000000000000000000000000000003C
:10349000000000000000000000000000000000002C
:1034A000000000000000000000000000000000001C
:1034B000000000000000000000000000000000000C
:1034C000000000000000000000000000AAAAAAAA54
:0434D00000000000F8
:040000050800018D61
:00000001FF
